{
  "_format": "hh-sol-artifact-1",
  "contractName": "AIAgentRegistry",
  "sourceName": "contracts/AIAgentRegistry.sol",
  "abi": [
    {
      "inputs": [
        {
          "internalType": "address",
          "name": "_feeRecipient",
          "type": "address"
        }
      ],
      "stateMutability": "nonpayable",
      "type": "constructor"
    },
    {
      "inputs": [],
      "name": "ERC721EnumerableForbiddenBatchMint",
      "type": "error"
    },
    {
      "inputs": [
        {
          "internalType": "address",
          "name": "sender",
          "type": "address"
        },
        {
          "internalType": "uint256",
          "name": "tokenId",
          "type": "uint256"
        },
        {
          "internalType": "address",
          "name": "owner",
          "type": "address"
        }
      ],
      "name": "ERC721IncorrectOwner",
      "type": "error"
    },
    {
      "inputs": [
        {
          "internalType": "address",
          "name": "operator",
          "type": "address"
        },
        {
          "internalType": "uint256",
          "name": "tokenId",
          "type": "uint256"
        }
      ],
      "name": "ERC721InsufficientApproval",
      "type": "error"
    },
    {
      "inputs": [
        {
          "internalType": "address",
          "name": "approver",
          "type": "address"
        }
      ],
      "name": "ERC721InvalidApprover",
      "type": "error"
    },
    {
      "inputs": [
        {
          "internalType": "address",
          "name": "operator",
          "type": "address"
        }
      ],
      "name": "ERC721InvalidOperator",
      "type": "error"
    },
    {
      "inputs": [
        {
          "internalType": "address",
          "name": "owner",
          "type": "address"
        }
      ],
      "name": "ERC721InvalidOwner",
      "type": "error"
    },
    {
      "inputs": [
        {
          "internalType": "address",
          "name": "receiver",
          "type": "address"
        }
      ],
      "name": "ERC721InvalidReceiver",
      "type": "error"
    },
    {
      "inputs": [
        {
          "internalType": "address",
          "name": "sender",
          "type": "address"
        }
      ],
      "name": "ERC721InvalidSender",
      "type": "error"
    },
    {
      "inputs": [
        {
          "internalType": "uint256",
          "name": "tokenId",
          "type": "uint256"
        }
      ],
      "name": "ERC721NonexistentToken",
      "type": "error"
    },
    {
      "inputs": [
        {
          "internalType": "address",
          "name": "owner",
          "type": "address"
        },
        {
          "internalType": "uint256",
          "name": "index",
          "type": "uint256"
        }
      ],
      "name": "ERC721OutOfBoundsIndex",
      "type": "error"
    },
    {
      "inputs": [
        {
          "internalType": "address",
          "name": "owner",
          "type": "address"
        }
      ],
      "name": "OwnableInvalidOwner",
      "type": "error"
    },
    {
      "inputs": [
        {
          "internalType": "address",
          "name": "account",
          "type": "address"
        }
      ],
      "name": "OwnableUnauthorizedAccount",
      "type": "error"
    },
    {
      "anonymous": false,
      "inputs": [
        {
          "indexed": true,
          "internalType": "uint256",
          "name": "tokenId",
          "type": "uint256"
        },
        {
          "indexed": true,
          "internalType": "address",
          "name": "registrant",
          "type": "address"
        },
        {
          "indexed": false,
          "internalType": "string",
          "name": "agentName",
          "type": "string"
        },
        {
          "indexed": false,
          "internalType": "string",
          "name": "agentURI",
          "type": "string"
        },
        {
          "indexed": false,
          "internalType": "address",
          "name": "agentWallet",
          "type": "address"
        }
      ],
      "name": "AgentRegistered",
      "type": "event"
    },
    {
      "anonymous": false,
      "inputs": [
        {
          "indexed": true,
          "internalType": "uint256",
          "name": "tokenId",
          "type": "uint256"
        },
        {
          "indexed": false,
          "internalType": "enum AIAgentRegistry.AgentState",
          "name": "oldState",
          "type": "uint8"
        },
        {
          "indexed": false,
          "internalType": "enum AIAgentRegistry.AgentState",
          "name": "newState",
          "type": "uint8"
        }
      ],
      "name": "AgentStateChanged",
      "type": "event"
    },
    {
      "anonymous": false,
      "inputs": [
        {
          "indexed": true,
          "internalType": "uint256",
          "name": "tokenId",
          "type": "uint256"
        },
        {
          "indexed": false,
          "internalType": "string",
          "name": "newAgentURI",
          "type": "string"
        }
      ],
      "name": "AgentURIUpdated",
      "type": "event"
    },
    {
      "anonymous": false,
      "inputs": [
        {
          "indexed": true,
          "internalType": "address",
          "name": "owner",
          "type": "address"
        },
        {
          "indexed": true,
          "internalType": "address",
          "name": "approved",
          "type": "address"
        },
        {
          "indexed": true,
          "internalType": "uint256",
          "name": "tokenId",
          "type": "uint256"
        }
      ],
      "name": "Approval",
      "type": "event"
    },
    {
      "anonymous": false,
      "inputs": [
        {
          "indexed": true,
          "internalType": "address",
          "name": "owner",
          "type": "address"
        },
        {
          "indexed": true,
          "internalType": "address",
          "name": "operator",
          "type": "address"
        },
        {
          "indexed": false,
          "internalType": "bool",
          "name": "approved",
          "type": "bool"
        }
      ],
      "name": "ApprovalForAll",
      "type": "event"
    },
    {
      "anonymous": false,
      "inputs": [
        {
          "indexed": true,
          "internalType": "address",
          "name": "previousOwner",
          "type": "address"
        },
        {
          "indexed": true,
          "internalType": "address",
          "name": "newOwner",
          "type": "address"
        }
      ],
      "name": "OwnershipTransferred",
      "type": "event"
    },
    {
      "anonymous": false,
      "inputs": [
        {
          "indexed": true,
          "internalType": "uint256",
          "name": "tokenId",
          "type": "uint256"
        },
        {
          "indexed": false,
          "internalType": "uint256",
          "name": "oldScore",
          "type": "uint256"
        },
        {
          "indexed": false,
          "internalType": "uint256",
          "name": "newScore",
          "type": "uint256"
        }
      ],
      "name": "ReputationUpdated",
      "type": "event"
    },
    {
      "anonymous": false,
      "inputs": [
        {
          "indexed": true,
          "internalType": "uint256",
          "name": "tokenId",
          "type": "uint256"
        },
        {
          "indexed": false,
          "internalType": "bool",
          "name": "success",
          "type": "bool"
        },
        {
          "indexed": true,
          "internalType": "bytes32",
          "name": "taskId",
          "type": "bytes32"
        }
      ],
      "name": "TaskRecorded",
      "type": "event"
    },
    {
      "anonymous": false,
      "inputs": [
        {
          "indexed": true,
          "internalType": "address",
          "name": "from",
          "type": "address"
        },
        {
          "indexed": true,
          "internalType": "address",
          "name": "to",
          "type": "address"
        },
        {
          "indexed": true,
          "internalType": "uint256",
          "name": "tokenId",
          "type": "uint256"
        }
      ],
      "name": "Transfer",
      "type": "event"
    },
    {
      "inputs": [],
      "name": "MAX_REPUTATION",
      "outputs": [
        {
          "internalType": "uint256",
          "name": "",
          "type": "uint256"
        }
      ],
      "stateMutability": "view",
      "type": "function"
    },
    {
      "inputs": [],
      "name": "MIN_REPUTATION",
      "outputs": [
        {
          "internalType": "uint256",
          "name": "",
          "type": "uint256"
        }
      ],
      "stateMutability": "view",
      "type": "function"
    },
    {
      "inputs": [],
      "name": "REPUTATION_THRESHOLD_EXPERT",
      "outputs": [
        {
          "internalType": "uint256",
          "name": "",
          "type": "uint256"
        }
      ],
      "stateMutability": "view",
      "type": "function"
    },
    {
      "inputs": [],
      "name": "REPUTATION_THRESHOLD_TRUSTED",
      "outputs": [
        {
          "internalType": "uint256",
          "name": "",
          "type": "uint256"
        }
      ],
      "stateMutability": "view",
      "type": "function"
    },
    {
      "inputs": [],
      "name": "REPUTATION_THRESHOLD_VERIFIED",
      "outputs": [
        {
          "internalType": "uint256",
          "name": "",
          "type": "uint256"
        }
      ],
      "stateMutability": "view",
      "type": "function"
    },
    {
      "inputs": [
        {
          "internalType": "uint256",
          "name": "",
          "type": "uint256"
        }
      ],
      "name": "agents",
      "outputs": [
        {
          "internalType": "string",
          "name": "agentName",
          "type": "string"
        },
        {
          "internalType": "string",
          "name": "agentURI",
          "type": "string"
        },
        {
          "internalType": "address",
          "name": "agentWallet",
          "type": "address"
        },
        {
          "internalType": "enum AIAgentRegistry.AgentState",
          "name": "state",
          "type": "uint8"
        },
        {
          "internalType": "uint256",
          "name": "reputationScore",
          "type": "uint256"
        },
        {
          "internalType": "uint256",
          "name": "totalTasks",
          "type": "uint256"
        },
        {
          "internalType": "uint256",
          "name": "successfulTasks",
          "type": "uint256"
        },
        {
          "internalType": "address",
          "name": "registrant",
          "type": "address"
        },
        {
          "internalType": "uint256",
          "name": "registeredAt",
          "type": "uint256"
        },
        {
          "internalType": "uint256",
          "name": "updatedAt",
          "type": "uint256"
        }
      ],
      "stateMutability": "view",
      "type": "function"
    },
    {
      "inputs": [
        {
          "internalType": "address",
          "name": "to",
          "type": "address"
        },
        {
          "internalType": "uint256",
          "name": "tokenId",
          "type": "uint256"
        }
      ],
      "name": "approve",
      "outputs": [],
      "stateMutability": "nonpayable",
      "type": "function"
    },
    {
      "inputs": [
        {
          "internalType": "address",
          "name": "owner",
          "type": "address"
        }
      ],
      "name": "balanceOf",
      "outputs": [
        {
          "internalType": "uint256",
          "name": "",
          "type": "uint256"
        }
      ],
      "stateMutability": "view",
      "type": "function"
    },
    {
      "inputs": [],
      "name": "feeRecipient",
      "outputs": [
        {
          "internalType": "address",
          "name": "",
          "type": "address"
        }
      ],
      "stateMutability": "view",
      "type": "function"
    },
    {
      "inputs": [
        {
          "internalType": "address",
          "name": "_wallet",
          "type": "address"
        }
      ],
      "name": "getAgentByWallet",
      "outputs": [
        {
          "components": [
            {
              "internalType": "string",
              "name": "agentName",
              "type": "string"
            },
            {
              "internalType": "string",
              "name": "agentURI",
              "type": "string"
            },
            {
              "internalType": "address",
              "name": "agentWallet",
              "type": "address"
            },
            {
              "internalType": "enum AIAgentRegistry.AgentState",
              "name": "state",
              "type": "uint8"
            },
            {
              "internalType": "uint256",
              "name": "reputationScore",
              "type": "uint256"
            },
            {
              "internalType": "uint256",
              "name": "totalTasks",
              "type": "uint256"
            },
            {
              "internalType": "uint256",
              "name": "successfulTasks",
              "type": "uint256"
            },
            {
              "internalType": "address",
              "name": "registrant",
              "type": "address"
            },
            {
              "internalType": "uint256",
              "name": "registeredAt",
              "type": "uint256"
            },
            {
              "internalType": "uint256",
              "name": "updatedAt",
              "type": "uint256"
            }
          ],
          "internalType": "struct AIAgentRegistry.Agent",
          "name": "",
          "type": "tuple"
        }
      ],
      "stateMutability": "view",
      "type": "function"
    },
    {
      "inputs": [
        {
          "internalType": "uint256",
          "name": "tokenId",
          "type": "uint256"
        }
      ],
      "name": "getApproved",
      "outputs": [
        {
          "internalType": "address",
          "name": "",
          "type": "address"
        }
      ],
      "stateMutability": "view",
      "type": "function"
    },
    {
      "inputs": [
        {
          "internalType": "address",
          "name": "_registrant",
          "type": "address"
        }
      ],
      "name": "getRegistrantAgents",
      "outputs": [
        {
          "internalType": "uint256[]",
          "name": "",
          "type": "uint256[]"
        }
      ],
      "stateMutability": "view",
      "type": "function"
    },
    {
      "inputs": [
        {
          "internalType": "address",
          "name": "owner",
          "type": "address"
        },
        {
          "internalType": "address",
          "name": "operator",
          "type": "address"
        }
      ],
      "name": "isApprovedForAll",
      "outputs": [
        {
          "internalType": "bool",
          "name": "",
          "type": "bool"
        }
      ],
      "stateMutability": "view",
      "type": "function"
    },
    {
      "inputs": [
        {
          "internalType": "uint256",
          "name": "_tokenId",
          "type": "uint256"
        }
      ],
      "name": "isExpert",
      "outputs": [
        {
          "internalType": "bool",
          "name": "",
          "type": "bool"
        }
      ],
      "stateMutability": "view",
      "type": "function"
    },
    {
      "inputs": [
        {
          "internalType": "uint256",
          "name": "_tokenId",
          "type": "uint256"
        }
      ],
      "name": "isTrusted",
      "outputs": [
        {
          "internalType": "bool",
          "name": "",
          "type": "bool"
        }
      ],
      "stateMutability": "view",
      "type": "function"
    },
    {
      "inputs": [
        {
          "internalType": "uint256",
          "name": "_tokenId",
          "type": "uint256"
        }
      ],
      "name": "isVerified",
      "outputs": [
        {
          "internalType": "bool",
          "name": "",
          "type": "bool"
        }
      ],
      "stateMutability": "view",
      "type": "function"
    },
    {
      "inputs": [
        {
          "internalType": "address",
          "name": "_wallet",
          "type": "address"
        }
      ],
      "name": "isWalletRegistered",
      "outputs": [
        {
          "internalType": "bool",
          "name": "",
          "type": "bool"
        }
      ],
      "stateMutability": "view",
      "type": "function"
    },
    {
      "inputs": [],
      "name": "minReputationThreshold",
      "outputs": [
        {
          "internalType": "uint256",
          "name": "",
          "type": "uint256"
        }
      ],
      "stateMutability": "view",
      "type": "function"
    },
    {
      "inputs": [],
      "name": "name",
      "outputs": [
        {
          "internalType": "string",
          "name": "",
          "type": "string"
        }
      ],
      "stateMutability": "view",
      "type": "function"
    },
    {
      "inputs": [],
      "name": "owner",
      "outputs": [
        {
          "internalType": "address",
          "name": "",
          "type": "address"
        }
      ],
      "stateMutability": "view",
      "type": "function"
    },
    {
      "inputs": [
        {
          "internalType": "uint256",
          "name": "tokenId",
          "type": "uint256"
        }
      ],
      "name": "ownerOf",
      "outputs": [
        {
          "internalType": "address",
          "name": "",
          "type": "address"
        }
      ],
      "stateMutability": "view",
      "type": "function"
    },
    {
      "inputs": [
        {
          "internalType": "uint256",
          "name": "_tokenId",
          "type": "uint256"
        },
        {
          "internalType": "bool",
          "name": "_success",
          "type": "bool"
        },
        {
          "internalType": "uint256",
          "name": "_qualityScore",
          "type": "uint256"
        },
        {
          "internalType": "bytes32",
          "name": "_taskId",
          "type": "bytes32"
        }
      ],
      "name": "recordTaskCompletion",
      "outputs": [],
      "stateMutability": "nonpayable",
      "type": "function"
    },
    {
      "inputs": [
        {
          "internalType": "string",
          "name": "_agentName",
          "type": "string"
        },
        {
          "internalType": "string",
          "name": "_agentURI",
          "type": "string"
        },
        {
          "internalType": "address",
          "name": "_agentWallet",
          "type": "address"
        }
      ],
      "name": "registerAgent",
      "outputs": [
        {
          "internalType": "uint256",
          "name": "",
          "type": "uint256"
        }
      ],
      "stateMutability": "payable",
      "type": "function"
    },
    {
      "inputs": [
        {
          "internalType": "address",
          "name": "",
          "type": "address"
        },
        {
          "internalType": "uint256",
          "name": "",
          "type": "uint256"
        }
      ],
      "name": "registrantAgents",
      "outputs": [
        {
          "internalType": "uint256",
          "name": "",
          "type": "uint256"
        }
      ],
      "stateMutability": "view",
      "type": "function"
    },
    {
      "inputs": [],
      "name": "registrationFee",
      "outputs": [
        {
          "internalType": "uint256",
          "name": "",
          "type": "uint256"
        }
      ],
      "stateMutability": "view",
      "type": "function"
    },
    {
      "inputs": [],
      "name": "renounceOwnership",
      "outputs": [],
      "stateMutability": "nonpayable",
      "type": "function"
    },
    {
      "inputs": [
        {
          "internalType": "address",
          "name": "from",
          "type": "address"
        },
        {
          "internalType": "address",
          "name": "to",
          "type": "address"
        },
        {
          "internalType": "uint256",
          "name": "tokenId",
          "type": "uint256"
        }
      ],
      "name": "safeTransferFrom",
      "outputs": [],
      "stateMutability": "nonpayable",
      "type": "function"
    },
    {
      "inputs": [
        {
          "internalType": "address",
          "name": "from",
          "type": "address"
        },
        {
          "internalType": "address",
          "name": "to",
          "type": "address"
        },
        {
          "internalType": "uint256",
          "name": "tokenId",
          "type": "uint256"
        },
        {
          "internalType": "bytes",
          "name": "data",
          "type": "bytes"
        }
      ],
      "name": "safeTransferFrom",
      "outputs": [],
      "stateMutability": "nonpayable",
      "type": "function"
    },
    {
      "inputs": [
        {
          "internalType": "address",
          "name": "operator",
          "type": "address"
        },
        {
          "internalType": "bool",
          "name": "approved",
          "type": "bool"
        }
      ],
      "name": "setApprovalForAll",
      "outputs": [],
      "stateMutability": "nonpayable",
      "type": "function"
    },
    {
      "inputs": [
        {
          "internalType": "address",
          "name": "_recipient",
          "type": "address"
        }
      ],
      "name": "setFeeRecipient",
      "outputs": [],
      "stateMutability": "nonpayable",
      "type": "function"
    },
    {
      "inputs": [
        {
          "internalType": "uint256",
          "name": "_threshold",
          "type": "uint256"
        }
      ],
      "name": "setMinReputationThreshold",
      "outputs": [],
      "stateMutability": "nonpayable",
      "type": "function"
    },
    {
      "inputs": [
        {
          "internalType": "uint256",
          "name": "_fee",
          "type": "uint256"
        }
      ],
      "name": "setRegistrationFee",
      "outputs": [],
      "stateMutability": "nonpayable",
      "type": "function"
    },
    {
      "inputs": [
        {
          "internalType": "bytes4",
          "name": "interfaceId",
          "type": "bytes4"
        }
      ],
      "name": "supportsInterface",
      "outputs": [
        {
          "internalType": "bool",
          "name": "",
          "type": "bool"
        }
      ],
      "stateMutability": "view",
      "type": "function"
    },
    {
      "inputs": [],
      "name": "symbol",
      "outputs": [
        {
          "internalType": "string",
          "name": "",
          "type": "string"
        }
      ],
      "stateMutability": "view",
      "type": "function"
    },
    {
      "inputs": [
        {
          "internalType": "uint256",
          "name": "index",
          "type": "uint256"
        }
      ],
      "name": "tokenByIndex",
      "outputs": [
        {
          "internalType": "uint256",
          "name": "",
          "type": "uint256"
        }
      ],
      "stateMutability": "view",
      "type": "function"
    },
    {
      "inputs": [
        {
          "internalType": "address",
          "name": "owner",
          "type": "address"
        },
        {
          "internalType": "uint256",
          "name": "index",
          "type": "uint256"
        }
      ],
      "name": "tokenOfOwnerByIndex",
      "outputs": [
        {
          "internalType": "uint256",
          "name": "",
          "type": "uint256"
        }
      ],
      "stateMutability": "view",
      "type": "function"
    },
    {
      "inputs": [
        {
          "internalType": "uint256",
          "name": "_tokenId",
          "type": "uint256"
        }
      ],
      "name": "tokenURI",
      "outputs": [
        {
          "internalType": "string",
          "name": "",
          "type": "string"
        }
      ],
      "stateMutability": "view",
      "type": "function"
    },
    {
      "inputs": [],
      "name": "totalSupply",
      "outputs": [
        {
          "internalType": "uint256",
          "name": "",
          "type": "uint256"
        }
      ],
      "stateMutability": "view",
      "type": "function"
    },
    {
      "inputs": [
        {
          "internalType": "address",
          "name": "from",
          "type": "address"
        },
        {
          "internalType": "address",
          "name": "to",
          "type": "address"
        },
        {
          "internalType": "uint256",
          "name": "tokenId",
          "type": "uint256"
        }
      ],
      "name": "transferFrom",
      "outputs": [],
      "stateMutability": "nonpayable",
      "type": "function"
    },
    {
      "inputs": [
        {
          "internalType": "address",
          "name": "newOwner",
          "type": "address"
        }
      ],
      "name": "transferOwnership",
      "outputs": [],
      "stateMutability": "nonpayable",
      "type": "function"
    },
    {
      "inputs": [
        {
          "internalType": "uint256",
          "name": "_tokenId",
          "type": "uint256"
        },
        {
          "internalType": "string",
          "name": "_newAgentURI",
          "type": "string"
        }
      ],
      "name": "updateAgentURI",
      "outputs": [],
      "stateMutability": "nonpayable",
      "type": "function"
    },
    {
      "inputs": [
        {
          "internalType": "uint256",
          "name": "_tokenId",
          "type": "uint256"
        },
        {
          "internalType": "enum AIAgentRegistry.AgentState",
          "name": "_newState",
          "type": "uint8"
        }
      ],
      "name": "updateState",
      "outputs": [],
      "stateMutability": "nonpayable",
      "type": "function"
    },
    {
      "inputs": [
        {
          "internalType": "address",
          "name": "",
          "type": "address"
        }
      ],
      "name": "walletToAgent",
      "outputs": [
        {
          "internalType": "uint256",
          "name": "",
          "type": "uint256"
        }
      ],
      "stateMutability": "view",
      "type": "function"
    },
    {
      "inputs": [],
      "name": "withdrawFees",
      "outputs": [],
      "stateMutability": "nonpayable",
      "type": "function"
    },
    {
      "stateMutability": "payable",
      "type": "receive"
    }
  ],
  "bytecode": "0x608060405234620003f25762002cd580380390816200001e816200042d565b9283928339602092839181010312620003f257516001600160a01b038082169291839003620003f25760009162000054620003f7565b60118152704149204167656e7420526567697374727960781b828201526200007b620003f7565b60058152641051d1539560da1b8382015281516001600160401b0391828211620002fc578654916001948584811c94168015620003e7575b87851014620003d3578190601f9485811162000380575b5087908583116001146200031c578a9262000310575b5050600019600383901b1c191690851b1787555b8051928311620002fc5783548481811c91168015620002f1575b86821014620002dd579081838594931162000288575b50859183116001146200022457879262000218575b5050600019600383901b1c191690821b1790555b3315620001ff57600a549260018060a01b0319933385821617600a55604051933391167f8be0079c531659141344cd1fd0a4f28419497f9722a3daafe3b4186f6b6457e08380a36103e8600f556010558315620001be57505060115416176011556040516128819081620004548239f35b62461bcd60e51b82526004820152601560248201527f496e76616c69642066656520726563697069656e740000000000000000000000604482015260649150fd5b604051631e4fbdf760e01b815260048101849052602490fd5b01519050388062000139565b8488528588208594509190601f198416895b8882821062000271575050841162000257575b505050811b0190556200014d565b015160001960f88460031b161c1916905538808062000249565b838501518655889790950194938401930162000236565b909192508488528588208380860160051c820192888710620002d3575b91869588929594930160051c01915b828110620002c457505062000124565b8a8155869550879101620002b4565b92508192620002a5565b634e487b7160e01b88526022600452602488fd5b90607f16906200010e565b634e487b7160e01b87526041600452602487fd5b015190503880620000e0565b8a8052888b208894509190601f1984168c5b8b8282106200036957505084116200034f575b505050811b018755620000f4565b015160001960f88460031b161c1916905538808062000341565b8385015186558b979095019493840193016200032e565b909150898052878a208580850160051c8201928a8610620003c9575b918991869594930160051c01915b828110620003ba575050620000ca565b8c8155859450899101620003aa565b925081926200039c565b634e487b7160e01b89526022600452602489fd5b93607f1693620000b3565b600080fd5b60408051919082016001600160401b038111838210176200041757604052565b634e487b7160e01b600052604160045260246000fd5b6040519190601f01601f191682016001600160401b03811183821017620004175760405256fe608080604052600436101561001d575b50361561001b57600080fd5b005b60003560e01c90816301ffc9a714611f4657508063051cadea14611f1257806306fdde0314611e67578063081812fc14611e49578063095ea7b314611d6257806314c44e0914611d4457806318160ddd14611d2657806323b872dd14611d0f5780632f745c5914611c8b57806337b6d96b14611c5757806342842e0e14611c295780634528a40f14611b755780634690484014611b4c578063476343ee14611ad85780634d047b6b14611abb5780634f6ccce714611a73578063513856c8146119a357806353bce15e14611079578063585f9142146110215780636352211e14610ff1578063697c604514610fd55780636b59582214610dc657806370a0823114610d9b578063715018a614610d3e57806375f090d714610cda57806376b9cf0514610ca65780637f247e4914610c6a57806385f8dd8d14610a015780638c46d48f146109e45780638da5cb5b146109bb57806395d89b41146108d8578063a22cb46514610833578063a4a6b47614610815578063b703b852146107f8578063b88d4fde1461078d578063c320c7271461076c578063c361ca891461055b578063c87b56dd146104bb578063d213c0f21461049e578063e16abb1714610464578063e74b981b146103e3578063e985e9c51461038d578063f2fde38b146103045763ffbafdfe1461020e573861000f565b346102ff5760403660031901126102ff5760043560243560048110156102ff5761024061023b83336126a3565b6125b9565b81600052600c60205260406000206002810160ff815460a01c169061026482612831565b156102ba578360409361029b7f943bf771473f88636834f567c80e94889dcdeef862314d30ffb3378db7a96d4b966102b794612572565b6008429101556102ad845180946121a6565b60208301906121a6565ba2005b60405162461bcd60e51b815260206004820152601860248201527f496e76616c6964207374617465207472616e736974696f6e00000000000000006044820152606490fd5b600080fd5b346102ff5760203660031901126102ff5761031d61200b565b610325612677565b6001600160a01b0390811690811561037457600a54826001600160601b0360a01b821617600a55167f8be0079c531659141344cd1fd0a4f28419497f9722a3daafe3b4186f6b6457e0600080a3005b604051631e4fbdf760e01b815260006004820152602490fd5b346102ff5760403660031901126102ff576103a661200b565b6103ae612021565b9060018060a01b03809116600052600560205260406000209116600052602052602060ff604060002054166040519015158152f35b346102ff5760203660031901126102ff576103fc61200b565b610404612677565b6001600160a01b0316801561042b576001600160601b0360a01b6011541617601155600080f35b60405162461bcd60e51b8152602060048201526011602482015270125b9d985b1a59081c9958da5c1a595b9d607a1b6044820152606490fd5b346102ff5760203660031901126102ff576001600160a01b0361048561200b565b16600052600d6020526020604060002054604051908152f35b346102ff5760003660031901126102ff5760206040516127108152f35b346102ff5760203660031901126102ff576004356000818152600260205260409020546001600160a01b03161561051f57600052600c60205261051b6105076001604060002001612101565b604051918291602083526020830190611fcb565b0390f35b60405162461bcd60e51b8152602060048201526014602482015273151bdad95b88191bd95cc81b9bdd08195e1a5cdd60621b6044820152606490fd5b346102ff5760803660031901126102ff57600435610577612289565b90604435610583612677565b6000828152600260205260409020546001600160a01b03161561073057606481116106eb5781600052600c6020526040600020906004820190846105c78354612563565b8093556106d6575b6003830180549092806106b657506000925b6046840293808504604614901517156106a057610bb8928381029381850414901517156106a057859461064f606461063c6040967fd9f66501c000653403d74ddfa62a75c8dd44cc05d910ee81bf1d852262dd5fa19861262f565b04612710808211610698575b508461262f565b60011c80925560084291015582519182526020820152a260405191151582527fe927398b511e2d9a1adc219d50d1dea04765173ddbcfd77635e412292dcf6ccf602060643593a3005b90508a610648565b634e487b7160e01b600052601160045260246000fd5b6005850154612710908181029181830414901517156106a05704926105e1565b600583016106e48154612563565b90556105cf565b60405162461bcd60e51b815260206004820152601b60248201527f5175616c6974792073636f7265206d75737420626520302d31303000000000006044820152606490fd5b60405162461bcd60e51b81526020600482015260146024820152731059d95b9d08191bd95cc81b9bdd08195e1a5cdd60621b6044820152606490fd5b346102ff5760203660031901126102ff57610785612677565b600435601055005b346102ff5760803660031901126102ff576107a661200b565b6107ae612021565b906044356064359267ffffffffffffffff84116102ff57366023850112156102ff576107e761001b9436906024816004013591016121cf565b926107f38383836122bd565b612711565b346102ff5760003660031901126102ff5760206040516121348152f35b346102ff5760003660031901126102ff576020600f54604051908152f35b346102ff5760403660031901126102ff5761084c61200b565b610854612289565b6001600160a01b039091169081156108bf5733600052600560205260406000208260005260205260406000209015159060ff1981541660ff83161790556040519081527f17307eab39ab6107e8899845ad3d59bd9653f200f220920489ca2b5937696c3160203392a3005b604051630b61174360e31b815260048101839052602490fd5b346102ff5760003660031901126102ff576040516000600182600154926108fe8461206c565b928383526020948560018216918260001461099b57505060011461093e575b5061092a925003836120df565b61051b604051928284938452830190611fcb565b84915060016000527fb10e2d527612073b26eecdfd717e6a320cf44b4afac2b0732d9fcbe2b7fa0cf6906000915b85831061098357505061092a93508201018561091d565b8054838901850152879450869390920191810161096c565b60ff19168582015261092a95151560051b850101925087915061091d9050565b346102ff5760003660031901126102ff57600a546040516001600160a01b039091168152602090f35b346102ff5760003660031901126102ff576020604051611b588152f35b346102ff5760203660031901126102ff57610a1a61200b565b6000610120604051610a2b816120a6565b60608152606060208201528260408201528260608201528260808201528260a08201528260c08201528260e082015282610100820152015260018060a01b031680600052600d60205260406000205490811590811591610c2d575b5015610bf057600052600c602052604060002060405190610aa6826120a6565b610aaf81612101565b8252610abd60018201612101565b602083015260028101546001600160a01b038116604084015260a01c60ff16906004821015610bda57600891606084015260038101546080840152600481015460a0840152600581015460c084015260018060a01b0360068201541660e084015260078101546101008401520154610120820152604051809160208252610120610b6e610b5883516101406020870152610160860190611fcb565b6020840151858203601f19016040870152611fcb565b9160018060a01b036040820151166060850152610b93606082015160808601906121a6565b608081015160a085015260a081015160c085015260c081015160e085015260018060a01b0360e0820151166101008501526101008101518285015201516101408301520390f35b634e487b7160e01b600052602160045260246000fd5b60405162461bcd60e51b815260206004820152601560248201527415d85b1b195d081b9bdd081c9959da5cdd195c9959605a1b6044820152606490fd5b60008052600c6020527f13649b2456f1b42fef0f0040b3aaeabcd21a76a0f3f5defd4f583839455116ea546001600160a01b031614905082610a86565b346102ff5760203660031901126102ff576001600160a01b03610c8b61200b565b16600052600d60205260206040600020541515604051908152f35b346102ff5760203660031901126102ff57600435600052600c602052602061251c6003604060002001541015604051908152f35b346102ff5760203660031901126102ff57600435610cf6612677565b6127108111610d0457600f55005b60405162461bcd60e51b81526020600482015260126024820152710a8d0e4cae6d0ded8c840e8dede40d0d2ced60731b6044820152606490fd5b346102ff5760003660031901126102ff57610d57612677565b600a80546001600160a01b031981169091556000906001600160a01b03167f8be0079c531659141344cd1fd0a4f28419497f9722a3daafe3b4186f6b6457e08280a3005b346102ff5760203660031901126102ff576020610dbe610db961200b565b6125f6565b604051908152f35b346102ff5760403660031901126102ff5767ffffffffffffffff6004356024358281116102ff57610dfb903690600401612206565b610e0861023b83336126a3565b805115610fa157816000526020600c815260019384604060002001908351908111610f8b57610e37825461206c565b601f8111610f42575b508295601f8211600114610ec3578180917fe335f4a32c56fb32eb92f5084017a5836fcdc9307d02f49f27dd61f0f6a434a89798600093610eb8575b501b916000199060031b1c19161790555b83600052600c815242600860406000200155610eb3604051928284938452830190611fcb565b0390a2005b870151925089610e7c565b90601f1981169683600052846000209060005b898110610f2d5750827fe335f4a32c56fb32eb92f5084017a5836fcdc9307d02f49f27dd61f0f6a434a8989910610f14575b5050811b019055610e8d565b86015160001960f88460031b161c191690558780610f08565b87820151835591840191908601908601610ed6565b8260005283600020601f830160051c810191858410610f81575b601f0160051c019087905b828110610f75575050610e40565b60008155018790610f67565b9091508190610f5c565b634e487b7160e01b600052604160045260246000fd5b60405162461bcd60e51b815260206004820152600c60248201526b155492481c995c5d5a5c995960a21b6044820152606490fd5b346102ff5760003660031901126102ff57602060405160008152f35b346102ff5760203660031901126102ff57602061100f60043561263c565b6040516001600160a01b039091168152f35b346102ff5760403660031901126102ff5761103a61200b565b6001600160a01b03166000908152600e60205260409020805460243591908210156102ff5760209161106b91612271565b90546040519160031b1c8152f35b60603660031901126102ff5760043567ffffffffffffffff81116102ff576110a5903690600401612206565b60243567ffffffffffffffff81116102ff576110c5903690600401612206565b6044356001600160a01b03811681036102ff578251156119685760c8835111611933578151156118f9576001600160a01b038116156118bb576001600160a01b0381166000908152600d60205260409020546118765760105480611832575b50600b549161113283612563565b600b55604051611141816120c3565b600081523315611819576000848152600260205260409020546001600160a01b031680159081156117e2575b3360005260036020526040600020600181540190558560005260026020526040600020336001600160601b0360a01b8254161790558533827fddf252ad1be2c89b69c2b068fc378daa952ba7f163c4a11628f55a4df523b3ef600080a4811561175b576008548660005260096020526040600020556111eb86612596565b330361170f575b156116f657333b611608575b5060405161120b816120a6565b84815281602082015260018060a01b0383166040820152600160608201526113886080820152600060a0820152600060c08201523360e0820152426101008201524261012082015283600052600c602052604060002090805180519067ffffffffffffffff8211610f8b578190611282855461206c565b601f81116115b8575b50602090601f831160011461154c57600092611541575b50508160011b916000199060031b1c19161782555b602081015180519067ffffffffffffffff8211610f8b5781906112dd600186015461206c565b601f81116114ee575b50602090601f831160011461147c57600092611471575b50508160011b916000199060031b1c19161760018301555b600282019060018060a01b036040820151166001600160601b0360a01b8354161782556060810151906004821015610bda5761135661012092600894612572565b6080810151600385015560a0810151600485015560c081015160058501556006840160018060a01b0360e0830151166001600160601b0360a01b8254161790556101008101516007850155015191015560018060a01b038216600052600d6020528260406000205533600052600e6020526040600020805494600160401b861015610f8b576114528593611430856114178a7f8ce17797a36dd5dcd9b740b8c7f77d8ebdcf5caf506f976225e85f3adaf9d63697600160209d018155612271565b90919082549060031b91821b91600019901b1916179055565b61144560405193606085526060850190611fcb565b9083820389850152611fcb565b6001600160a01b039094166040820152339381900390a3604051908152f35b0151905088806112fd565b9250600185016000526020600020906000935b601f19841685106114d3576001945083601f198116106114ba575b505050811b016001830155611315565b015160001960f88460031b161c191690558880806114aa565b8181015183556020948501946001909301929091019061148f565b909150600185016000526020600020601f840160051c81016020851061153a575b90849392915b601f830160051c8201811061152b5750506112e6565b60008155859450600101611515565b508061150f565b0151905088806112a2565b9250846000526020600020906000935b601f198416851061159d576001945083601f19811610611584575b505050811b0182556112b7565b015160001960f88460031b161c19169055888080611577565b8181015183556020948501946001909301929091019061155c565b909150846000526020600020601f840160051c810160208510611601575b90849392915b601f830160051c820181106115f257505061128b565b600081558594506001016115dc565b50806115d6565b60405160208180611642630a85bd0160e11b9586835233600484015260006024840152896044840152608060648401526084830190611fcb565b03816000335af1600091816116b1575b506116845761165f612533565b8051908161167f57604051633250574960e11b8152336004820152602490fd5b602001fd5b6001600160e01b0319160361169957846111fe565b604051633250574960e11b8152336004820152602490fd5b9091506020813d6020116116ee575b816116cd602093836120df565b810103126102ff57516001600160e01b0319811681036102ff579087611652565b3d91506116c0565b6040516339e3563760e11b815260006004820152602490fd5b611718336125f6565b806000198101116106a0573360005260066020526040600020600019820160005260205285604060002055856000526007602052600019016040600020556111f2565b3381146111eb5761176b816125f6565b8660005260076020526040600020548181036117af575b508660005260006040812055816000526006602052604060002090600052602052600060408120556111eb565b60008381526006602090815260408083208584528252808320548484528184208190558352600790915290205588611782565b600086815260046020526040902080546001600160a01b03191690558060005260036020526040600020600019815401905561116d565b604051633250574960e11b815260006004820152602490fd5b341061183e5783611124565b60405162461bcd60e51b815260206004820152601060248201526f496e73756666696369656e742066656560801b6044820152606490fd5b60405162461bcd60e51b815260206004820152601960248201527f57616c6c657420616c72656164792072656769737465726564000000000000006044820152606490fd5b60405162461bcd60e51b8152602060048201526016602482015275496e76616c69642077616c6c6574206164647265737360501b6044820152606490fd5b60405162461bcd60e51b81526020600482015260126024820152711059d95b9d08155492481c995c5d5a5c995960721b6044820152606490fd5b60405162461bcd60e51b815260206004820152600d60248201526c4e616d6520746f6f206c6f6e6760981b6044820152606490fd5b60405162461bcd60e51b81526020600482015260136024820152721059d95b9d081b985b59481c995c5d5a5c9959606a1b6044820152606490fd5b346102ff5760203660031901126102ff57600435600052600c602052611a2960406000206119d081612101565b906119dd60018201612101565b60028201549160018060a01b039260038201546004830154600584015491611a4f8760068701541694611a3760086007890154980154986040519c8d9c8d610140908181520190611fcb565b8c810360208e015290611fcb565b98811660408b015260ff60608b019160a01c166121a6565b608088015260a087015260c086015260e08501526101008401526101208301520390f35b346102ff5760203660031901126102ff57600435600854811015611a9c5761106b602091612224565b6044906040519063295f44f760e21b8252600060048301526024820152fd5b346102ff5760003660031901126102ff57602060405161251c8152f35b346102ff5760003660031901126102ff57611af1612677565b600080808060018060a01b036011541647905af1611b0d612533565b5015611b1557005b60405162461bcd60e51b815260206004820152600f60248201526e15da5d1a191c985dc819985a5b1959608a1b6044820152606490fd5b346102ff5760003660031901126102ff576011546040516001600160a01b039091168152602090f35b346102ff576020806003193601126102ff576001600160a01b03611b9761200b565b16600052600e8152604060002060405190818382549182815201908192600052846000209060005b86828210611c15578686611bd5828803836120df565b604051928392818401908285525180915260408401929160005b828110611bfe57505050500390f35b835185528695509381019392810192600101611bef565b835485529093019260019283019201611bbf565b346102ff5761001b611c3a36612037565b9060405192611c48846120c3565b600084526107f38383836122bd565b346102ff5760203660031901126102ff57600435600052600c60205260206121346003604060002001541015604051908152f35b346102ff5760403660031901126102ff57611ca461200b565b60243590611cb1816125f6565b821015611ce45760018060a01b031660005260066020526040600020906000526020526020604060002054604051908152f35b60405163295f44f760e21b81526001600160a01b039190911660048201526024810191909152604490fd5b346102ff5761001b611d2036612037565b916122bd565b346102ff5760003660031901126102ff576020600854604051908152f35b346102ff5760003660031901126102ff576020601054604051908152f35b346102ff5760403660031901126102ff57611d7b61200b565b602435611d878161263c565b33151580611e36575b80611e09575b611df1576001600160a01b039283169282918491167f8c5be1e5ebec7d5bd14f71427d1e84f3dd0314c0f7b2291e5b200ac8c7c3b925600080a4600090815260046020526040902080546001600160a01b0319169091179055005b60405163a9fbf51f60e01b8152336004820152602490fd5b5060018060a01b038116600052600560205260406000203360005260205260ff6040600020541615611d96565b506001600160a01b038116331415611d90565b346102ff5760203660031901126102ff57602061100f600435612298565b346102ff5760003660031901126102ff57604051600080549082611e8a8361206c565b918282526020936001908560018216918260001461099b575050600114611eb8575061092a925003836120df565b6000808052859250907f290decd9548b62a8d60345a988386fc84ba6bc95484008f6362f93160ef3e5635b858310611efa57505061092a93508201018561091d565b80548389018501528794508693909201918101611ee3565b346102ff5760203660031901126102ff57600435600052600c6020526020611b586003604060002001541015604051908152f35b346102ff5760203660031901126102ff576004359063ffffffff60e01b82168092036102ff5760209163780e9d6360e01b8114908115611f88575b5015158152f35b6380ac58cd60e01b811491508115611fba575b8115611fa9575b5083611f81565b6301ffc9a760e01b14905083611fa2565b635b5e139f60e01b81149150611f9b565b919082519283825260005b848110611ff7575050826000602080949584010152601f8019910116010190565b602081830181015184830182015201611fd6565b600435906001600160a01b03821682036102ff57565b602435906001600160a01b03821682036102ff57565b60609060031901126102ff576001600160a01b039060043582811681036102ff579160243590811681036102ff579060443590565b90600182811c9216801561209c575b602083101461208657565b634e487b7160e01b600052602260045260246000fd5b91607f169161207b565b610140810190811067ffffffffffffffff821117610f8b57604052565b6020810190811067ffffffffffffffff821117610f8b57604052565b90601f8019910116810190811067ffffffffffffffff821117610f8b57604052565b906040519182600082546121148161206c565b908184526020946001916001811690816000146121845750600114612145575b505050612143925003836120df565b565b600090815285812095935091905b81831061216c5750506121439350820101388080612134565b85548884018501529485019487945091830191612153565b9250505061214394925060ff191682840152151560051b820101388080612134565b906004821015610bda5752565b67ffffffffffffffff8111610f8b57601f01601f191660200190565b9291926121db826121b3565b916121e960405193846120df565b8294818452818301116102ff578281602093846000960137010152565b9080601f830112156102ff57816020612221933591016121cf565b90565b60085481101561225b5760086000527ff3f7a9fe364faab93b216da50a3214154f22a0a2b415b23a84c8169e8b636ee30190600090565b634e487b7160e01b600052603260045260246000fd5b805482101561225b5760005260206000200190600090565b6024359081151582036102ff57565b6122a18161263c565b506000908152600460205260409020546001600160a01b031690565b6001600160a01b0382811693918415611819576000948386526020956002875260409684888320541696331515806124a5575b5087158015612472575b84845260038352898420805460010190558784526002835289842080546001600160a01b0319168617905587858a7fddf252ad1be2c89b69c2b068fc378daa952ba7f163c4a11628f55a4df523b3ef8780a4156123f657600854878452600983528984205561236887612596565b8388036123a4575b5050505016928383036123835750505050565b6064945051926364283d7b60e01b8452600484015260248301526044820152fd5b6123ad906125f6565b6000198101939084116123e25782916007918a9452600681528383208584528152878484205587835252205538808080612370565b634e487b7160e01b83526011600452602483fd5b87841461236857612406886125f6565b878452600783528984205481810361243b575b50878452838a8120558884526006835289842090845282528289812055612368565b898552600684528a852082865284528a8520548a8652600685528b86208287528552808c8720558552600784528a85205538612419565b600088815260046020526040902080546001600160a01b03191690558884526003835289842080546000190190556122fa565b806124f2575b156124b657386122f0565b8887896124d3576024915190637e27328960e01b82526004820152fd5b905163177e802f60e01b81523360048201526024810191909152604490fd5b503388148015612517575b806124ab57508683526004825233868a85205416146124ab565b5087835260058252888320338452825260ff89842054166124fd565b3d1561255e573d90612544826121b3565b9161255260405193846120df565b82523d6000602084013e565b606090565b60001981146106a05760010190565b906004811015610bda57815460ff60a01b191660a09190911b60ff60a01b16179055565b60085490600160401b821015610f8b576114178260016121439401600855612224565b156125c057565b60405162461bcd60e51b815260206004820152600e60248201526d139bdd08185d5d1a1bdc9a5e995960921b6044820152606490fd5b6001600160a01b0316801561261657600052600360205260406000205490565b6040516322718ad960e21b815260006004820152602490fd5b919082018092116106a057565b6000818152600260205260409020546001600160a01b031690811561265f575090565b60249060405190637e27328960e01b82526004820152fd5b600a546001600160a01b0316330361268b57565b60405163118cdaa760e01b8152336004820152602490fd5b906001600160a01b0380806126b78461263c565b169316918383149384156126ea575b5083156126d4575b50505090565b6126e091929350612298565b16143880806126ce565b909350600052600560205260406000208260005260205260ff6040600020541692386126c6565b9190803b612720575b50505050565b61276260018060a01b0380921694604051938493630a85bd0160e11b968786523360048701521660248501526044840152608060648401526084830190611fcb565b03906020816000938185885af1908290826127e1575b50506127b05782612787612533565b80519190826127a957604051633250574960e11b815260048101839052602490fd5b9050602001fd5b6001600160e01b031916036127c957503880808061271a565b60249060405190633250574960e11b82526004820152fd5b909192506020813d602011612829575b816127fe602093836120df565b810103126128255751906001600160e01b0319821682036128225750903880612778565b80fd5b5080fd5b3d91506127f1565b6004811015610bda5760031461284657600190565b60009056fea264697066735822122023fe9b25c647907ea9e4c4de58f333113bc4330b8f422a2d54038fc1d96fc5e764736f6c63430008180033",
  "linkReferences": {},
  "deployedLinkReferences": {}
}