{
  "_format": "hh-sol-artifact-1",
  "contractName": "CommunityGovernance",
  "sourceName": "contracts/CommunityGovernance.sol",
  "abi": [
    {
      "inputs": [
        {
          "internalType": "address",
          "name": "_treasury",
          "type": "address"
        }
      ],
      "stateMutability": "nonpayable",
      "type": "constructor"
    },
    {
      "inputs": [
        {
          "internalType": "address",
          "name": "owner",
          "type": "address"
        }
      ],
      "name": "OwnableInvalidOwner",
      "type": "error"
    },
    {
      "inputs": [
        {
          "internalType": "address",
          "name": "account",
          "type": "address"
        }
      ],
      "name": "OwnableUnauthorizedAccount",
      "type": "error"
    },
    {
      "inputs": [],
      "name": "ReentrancyGuardReentrantCall",
      "type": "error"
    },
    {
      "anonymous": false,
      "inputs": [
        {
          "indexed": true,
          "internalType": "address",
          "name": "user",
          "type": "address"
        },
        {
          "indexed": false,
          "internalType": "uint256",
          "name": "newScore",
          "type": "uint256"
        },
        {
          "indexed": false,
          "internalType": "string",
          "name": "reason",
          "type": "string"
        }
      ],
      "name": "CreditUpdated",
      "type": "event"
    },
    {
      "anonymous": false,
      "inputs": [
        {
          "indexed": true,
          "internalType": "address",
          "name": "user",
          "type": "address"
        },
        {
          "indexed": false,
          "internalType": "uint256",
          "name": "amount",
          "type": "uint256"
        },
        {
          "indexed": false,
          "internalType": "string",
          "name": "reason",
          "type": "string"
        }
      ],
      "name": "ExpEarned",
      "type": "event"
    },
    {
      "anonymous": false,
      "inputs": [
        {
          "indexed": true,
          "internalType": "uint256",
          "name": "postId",
          "type": "uint256"
        },
        {
          "indexed": true,
          "internalType": "address",
          "name": "author",
          "type": "address"
        },
        {
          "indexed": false,
          "internalType": "string",
          "name": "title",
          "type": "string"
        },
        {
          "indexed": false,
          "internalType": "enum CommunityGovernance.PostType",
          "name": "postType",
          "type": "uint8"
        }
      ],
      "name": "ForumPostCreated",
      "type": "event"
    },
    {
      "anonymous": false,
      "inputs": [
        {
          "indexed": true,
          "internalType": "uint256",
          "name": "postId",
          "type": "uint256"
        },
        {
          "indexed": true,
          "internalType": "uint256",
          "name": "replyId",
          "type": "uint256"
        },
        {
          "indexed": true,
          "internalType": "address",
          "name": "author",
          "type": "address"
        }
      ],
      "name": "ForumReplyCreated",
      "type": "event"
    },
    {
      "anonymous": false,
      "inputs": [
        {
          "indexed": true,
          "internalType": "address",
          "name": "previousOwner",
          "type": "address"
        },
        {
          "indexed": true,
          "internalType": "address",
          "name": "newOwner",
          "type": "address"
        }
      ],
      "name": "OwnershipTransferred",
      "type": "event"
    },
    {
      "anonymous": false,
      "inputs": [
        {
          "indexed": true,
          "internalType": "uint256",
          "name": "postId",
          "type": "uint256"
        },
        {
          "indexed": true,
          "internalType": "address",
          "name": "voter",
          "type": "address"
        },
        {
          "indexed": false,
          "internalType": "bool",
          "name": "isUpvote",
          "type": "bool"
        }
      ],
      "name": "PostVoted",
      "type": "event"
    },
    {
      "anonymous": false,
      "inputs": [
        {
          "indexed": true,
          "internalType": "uint256",
          "name": "proposalId",
          "type": "uint256"
        },
        {
          "indexed": true,
          "internalType": "address",
          "name": "proposer",
          "type": "address"
        },
        {
          "indexed": false,
          "internalType": "enum CommunityGovernance.ProposalType",
          "name": "proposalType",
          "type": "uint8"
        }
      ],
      "name": "ProposalCreated",
      "type": "event"
    },
    {
      "anonymous": false,
      "inputs": [
        {
          "indexed": true,
          "internalType": "uint256",
          "name": "proposalId",
          "type": "uint256"
        }
      ],
      "name": "ProposalExecuted",
      "type": "event"
    },
    {
      "anonymous": false,
      "inputs": [
        {
          "indexed": true,
          "internalType": "uint256",
          "name": "goodId",
          "type": "uint256"
        }
      ],
      "name": "PublicGoodCompleted",
      "type": "event"
    },
    {
      "anonymous": false,
      "inputs": [
        {
          "indexed": true,
          "internalType": "uint256",
          "name": "goodId",
          "type": "uint256"
        },
        {
          "indexed": true,
          "internalType": "address",
          "name": "proposer",
          "type": "address"
        },
        {
          "indexed": false,
          "internalType": "string",
          "name": "title",
          "type": "string"
        },
        {
          "indexed": false,
          "internalType": "uint256",
          "name": "targetAmount",
          "type": "uint256"
        }
      ],
      "name": "PublicGoodCreated",
      "type": "event"
    },
    {
      "anonymous": false,
      "inputs": [
        {
          "indexed": true,
          "internalType": "uint256",
          "name": "goodId",
          "type": "uint256"
        },
        {
          "indexed": true,
          "internalType": "address",
          "name": "donor",
          "type": "address"
        },
        {
          "indexed": false,
          "internalType": "uint256",
          "name": "amount",
          "type": "uint256"
        }
      ],
      "name": "PublicGoodDonated",
      "type": "event"
    },
    {
      "anonymous": false,
      "inputs": [
        {
          "indexed": true,
          "internalType": "uint256",
          "name": "goodId",
          "type": "uint256"
        },
        {
          "indexed": false,
          "internalType": "uint256",
          "name": "milestoneIndex",
          "type": "uint256"
        }
      ],
      "name": "PublicGoodMilestoneCompleted",
      "type": "event"
    },
    {
      "anonymous": false,
      "inputs": [
        {
          "indexed": true,
          "internalType": "uint256",
          "name": "proposalId",
          "type": "uint256"
        },
        {
          "indexed": true,
          "internalType": "address",
          "name": "voter",
          "type": "address"
        },
        {
          "indexed": false,
          "internalType": "bool",
          "name": "support",
          "type": "bool"
        },
        {
          "indexed": false,
          "internalType": "uint256",
          "name": "votes",
          "type": "uint256"
        }
      ],
      "name": "VoteCast",
      "type": "event"
    },
    {
      "inputs": [
        {
          "internalType": "uint256",
          "name": "_proposalId",
          "type": "uint256"
        },
        {
          "internalType": "bool",
          "name": "_support",
          "type": "bool"
        }
      ],
      "name": "castVote",
      "outputs": [],
      "stateMutability": "nonpayable",
      "type": "function"
    },
    {
      "inputs": [
        {
          "internalType": "string",
          "name": "_title",
          "type": "string"
        },
        {
          "internalType": "string",
          "name": "_content",
          "type": "string"
        },
        {
          "internalType": "enum CommunityGovernance.PostType",
          "name": "_postType",
          "type": "uint8"
        }
      ],
      "name": "createForumPost",
      "outputs": [
        {
          "internalType": "uint256",
          "name": "",
          "type": "uint256"
        }
      ],
      "stateMutability": "nonpayable",
      "type": "function"
    },
    {
      "inputs": [
        {
          "internalType": "enum CommunityGovernance.ProposalType",
          "name": "_proposalType",
          "type": "uint8"
        },
        {
          "internalType": "string",
          "name": "_title",
          "type": "string"
        },
        {
          "internalType": "string",
          "name": "_description",
          "type": "string"
        },
        {
          "internalType": "address",
          "name": "_targetContract",
          "type": "address"
        },
        {
          "internalType": "bytes",
          "name": "_executionData",
          "type": "bytes"
        }
      ],
      "name": "createProposal",
      "outputs": [
        {
          "internalType": "uint256",
          "name": "",
          "type": "uint256"
        }
      ],
      "stateMutability": "nonpayable",
      "type": "function"
    },
    {
      "inputs": [
        {
          "internalType": "string",
          "name": "_title",
          "type": "string"
        },
        {
          "internalType": "string",
          "name": "_description",
          "type": "string"
        },
        {
          "internalType": "uint256",
          "name": "_targetAmount",
          "type": "uint256"
        },
        {
          "internalType": "address[]",
          "name": "_beneficiaries",
          "type": "address[]"
        },
        {
          "internalType": "uint256[]",
          "name": "_milestoneAmounts",
          "type": "uint256[]"
        },
        {
          "internalType": "string[]",
          "name": "_milestoneDescriptions",
          "type": "string[]"
        }
      ],
      "name": "createPublicGood",
      "outputs": [
        {
          "internalType": "uint256",
          "name": "",
          "type": "uint256"
        }
      ],
      "stateMutability": "nonpayable",
      "type": "function"
    },
    {
      "inputs": [],
      "name": "creditDecayRate",
      "outputs": [
        {
          "internalType": "uint256",
          "name": "",
          "type": "uint256"
        }
      ],
      "stateMutability": "view",
      "type": "function"
    },
    {
      "inputs": [],
      "name": "creditPenaltyBadAction",
      "outputs": [
        {
          "internalType": "uint256",
          "name": "",
          "type": "uint256"
        }
      ],
      "stateMutability": "view",
      "type": "function"
    },
    {
      "inputs": [],
      "name": "creditPerGoodAction",
      "outputs": [
        {
          "internalType": "uint256",
          "name": "",
          "type": "uint256"
        }
      ],
      "stateMutability": "view",
      "type": "function"
    },
    {
      "inputs": [
        {
          "internalType": "address",
          "name": "_user",
          "type": "address"
        }
      ],
      "name": "decayCredit",
      "outputs": [],
      "stateMutability": "nonpayable",
      "type": "function"
    },
    {
      "inputs": [
        {
          "internalType": "uint256",
          "name": "_goodId",
          "type": "uint256"
        }
      ],
      "name": "donateToPublicGood",
      "outputs": [],
      "stateMutability": "payable",
      "type": "function"
    },
    {
      "inputs": [
        {
          "internalType": "uint256",
          "name": "_proposalId",
          "type": "uint256"
        }
      ],
      "name": "executeProposal",
      "outputs": [],
      "stateMutability": "nonpayable",
      "type": "function"
    },
    {
      "inputs": [],
      "name": "expPerDonation",
      "outputs": [
        {
          "internalType": "uint256",
          "name": "",
          "type": "uint256"
        }
      ],
      "stateMutability": "view",
      "type": "function"
    },
    {
      "inputs": [],
      "name": "expPerPost",
      "outputs": [
        {
          "internalType": "uint256",
          "name": "",
          "type": "uint256"
        }
      ],
      "stateMutability": "view",
      "type": "function"
    },
    {
      "inputs": [],
      "name": "expPerProposal",
      "outputs": [
        {
          "internalType": "uint256",
          "name": "",
          "type": "uint256"
        }
      ],
      "stateMutability": "view",
      "type": "function"
    },
    {
      "inputs": [],
      "name": "expPerReply",
      "outputs": [
        {
          "internalType": "uint256",
          "name": "",
          "type": "uint256"
        }
      ],
      "stateMutability": "view",
      "type": "function"
    },
    {
      "inputs": [],
      "name": "expPerUpvote",
      "outputs": [
        {
          "internalType": "uint256",
          "name": "",
          "type": "uint256"
        }
      ],
      "stateMutability": "view",
      "type": "function"
    },
    {
      "inputs": [],
      "name": "expPerVote",
      "outputs": [
        {
          "internalType": "uint256",
          "name": "",
          "type": "uint256"
        }
      ],
      "stateMutability": "view",
      "type": "function"
    },
    {
      "inputs": [
        {
          "internalType": "uint256",
          "name": "",
          "type": "uint256"
        }
      ],
      "name": "forumPosts",
      "outputs": [
        {
          "internalType": "uint256",
          "name": "id",
          "type": "uint256"
        },
        {
          "internalType": "address",
          "name": "author",
          "type": "address"
        },
        {
          "internalType": "string",
          "name": "title",
          "type": "string"
        },
        {
          "internalType": "string",
          "name": "content",
          "type": "string"
        },
        {
          "internalType": "enum CommunityGovernance.PostType",
          "name": "postType",
          "type": "uint8"
        },
        {
          "internalType": "uint256",
          "name": "parentId",
          "type": "uint256"
        },
        {
          "internalType": "uint256",
          "name": "upvotes",
          "type": "uint256"
        },
        {
          "internalType": "uint256",
          "name": "downvotes",
          "type": "uint256"
        },
        {
          "internalType": "uint256",
          "name": "createdAt",
          "type": "uint256"
        },
        {
          "internalType": "bool",
          "name": "isPinned",
          "type": "bool"
        }
      ],
      "stateMutability": "view",
      "type": "function"
    },
    {
      "inputs": [
        {
          "internalType": "uint256",
          "name": "_postId",
          "type": "uint256"
        }
      ],
      "name": "getPostReplies",
      "outputs": [
        {
          "internalType": "uint256[]",
          "name": "",
          "type": "uint256[]"
        }
      ],
      "stateMutability": "view",
      "type": "function"
    },
    {
      "inputs": [
        {
          "internalType": "uint256",
          "name": "_goodId",
          "type": "uint256"
        }
      ],
      "name": "getPublicGoodMilestones",
      "outputs": [
        {
          "internalType": "uint256[]",
          "name": "amounts",
          "type": "uint256[]"
        },
        {
          "internalType": "string[]",
          "name": "descriptions",
          "type": "string[]"
        },
        {
          "internalType": "uint256",
          "name": "current",
          "type": "uint256"
        }
      ],
      "stateMutability": "view",
      "type": "function"
    },
    {
      "inputs": [
        {
          "internalType": "address",
          "name": "_user",
          "type": "address"
        }
      ],
      "name": "getUserLevel",
      "outputs": [
        {
          "internalType": "uint256",
          "name": "",
          "type": "uint256"
        }
      ],
      "stateMutability": "view",
      "type": "function"
    },
    {
      "inputs": [],
      "name": "owner",
      "outputs": [
        {
          "internalType": "address",
          "name": "",
          "type": "address"
        }
      ],
      "stateMutability": "view",
      "type": "function"
    },
    {
      "inputs": [
        {
          "internalType": "uint256",
          "name": "_postId",
          "type": "uint256"
        },
        {
          "internalType": "bool",
          "name": "_pinned",
          "type": "bool"
        }
      ],
      "name": "pinPost",
      "outputs": [],
      "stateMutability": "nonpayable",
      "type": "function"
    },
    {
      "inputs": [],
      "name": "postCounter",
      "outputs": [
        {
          "internalType": "uint256",
          "name": "",
          "type": "uint256"
        }
      ],
      "stateMutability": "view",
      "type": "function"
    },
    {
      "inputs": [],
      "name": "proposalCounter",
      "outputs": [
        {
          "internalType": "uint256",
          "name": "",
          "type": "uint256"
        }
      ],
      "stateMutability": "view",
      "type": "function"
    },
    {
      "inputs": [],
      "name": "proposalThreshold",
      "outputs": [
        {
          "internalType": "uint256",
          "name": "",
          "type": "uint256"
        }
      ],
      "stateMutability": "view",
      "type": "function"
    },
    {
      "inputs": [
        {
          "internalType": "uint256",
          "name": "",
          "type": "uint256"
        }
      ],
      "name": "proposals",
      "outputs": [
        {
          "internalType": "uint256",
          "name": "id",
          "type": "uint256"
        },
        {
          "internalType": "address",
          "name": "proposer",
          "type": "address"
        },
        {
          "internalType": "enum CommunityGovernance.ProposalType",
          "name": "proposalType",
          "type": "uint8"
        },
        {
          "internalType": "string",
          "name": "title",
          "type": "string"
        },
        {
          "internalType": "string",
          "name": "description",
          "type": "string"
        },
        {
          "internalType": "bytes",
          "name": "executionData",
          "type": "bytes"
        },
        {
          "internalType": "address",
          "name": "targetContract",
          "type": "address"
        },
        {
          "internalType": "uint256",
          "name": "forVotes",
          "type": "uint256"
        },
        {
          "internalType": "uint256",
          "name": "againstVotes",
          "type": "uint256"
        },
        {
          "internalType": "enum CommunityGovernance.ProposalStatus",
          "name": "status",
          "type": "uint8"
        },
        {
          "internalType": "uint256",
          "name": "votingStart",
          "type": "uint256"
        },
        {
          "internalType": "uint256",
          "name": "votingEnd",
          "type": "uint256"
        },
        {
          "internalType": "uint256",
          "name": "createdAt",
          "type": "uint256"
        }
      ],
      "stateMutability": "view",
      "type": "function"
    },
    {
      "inputs": [],
      "name": "publicGoodCounter",
      "outputs": [
        {
          "internalType": "uint256",
          "name": "",
          "type": "uint256"
        }
      ],
      "stateMutability": "view",
      "type": "function"
    },
    {
      "inputs": [
        {
          "internalType": "uint256",
          "name": "",
          "type": "uint256"
        }
      ],
      "name": "publicGoods",
      "outputs": [
        {
          "internalType": "uint256",
          "name": "id",
          "type": "uint256"
        },
        {
          "internalType": "address",
          "name": "proposer",
          "type": "address"
        },
        {
          "internalType": "string",
          "name": "title",
          "type": "string"
        },
        {
          "internalType": "string",
          "name": "description",
          "type": "string"
        },
        {
          "internalType": "uint256",
          "name": "targetAmount",
          "type": "uint256"
        },
        {
          "internalType": "uint256",
          "name": "raisedAmount",
          "type": "uint256"
        },
        {
          "internalType": "uint256",
          "name": "spentAmount",
          "type": "uint256"
        },
        {
          "internalType": "uint256",
          "name": "currentMilestone",
          "type": "uint256"
        },
        {
          "internalType": "bool",
          "name": "isActive",
          "type": "bool"
        },
        {
          "internalType": "uint256",
          "name": "createdAt",
          "type": "uint256"
        },
        {
          "internalType": "uint256",
          "name": "completedAt",
          "type": "uint256"
        }
      ],
      "stateMutability": "view",
      "type": "function"
    },
    {
      "inputs": [],
      "name": "quorumDenominator",
      "outputs": [
        {
          "internalType": "uint256",
          "name": "",
          "type": "uint256"
        }
      ],
      "stateMutability": "view",
      "type": "function"
    },
    {
      "inputs": [],
      "name": "quorumNumerator",
      "outputs": [
        {
          "internalType": "uint256",
          "name": "",
          "type": "uint256"
        }
      ],
      "stateMutability": "view",
      "type": "function"
    },
    {
      "inputs": [],
      "name": "renounceOwnership",
      "outputs": [],
      "stateMutability": "nonpayable",
      "type": "function"
    },
    {
      "inputs": [
        {
          "internalType": "uint256",
          "name": "_parentId",
          "type": "uint256"
        },
        {
          "internalType": "string",
          "name": "_content",
          "type": "string"
        }
      ],
      "name": "replyToPost",
      "outputs": [
        {
          "internalType": "uint256",
          "name": "",
          "type": "uint256"
        }
      ],
      "stateMutability": "nonpayable",
      "type": "function"
    },
    {
      "inputs": [
        {
          "internalType": "uint256",
          "name": "_expPerPost",
          "type": "uint256"
        },
        {
          "internalType": "uint256",
          "name": "_expPerReply",
          "type": "uint256"
        },
        {
          "internalType": "uint256",
          "name": "_expPerUpvote",
          "type": "uint256"
        },
        {
          "internalType": "uint256",
          "name": "_expPerProposal",
          "type": "uint256"
        },
        {
          "internalType": "uint256",
          "name": "_expPerVote",
          "type": "uint256"
        }
      ],
      "name": "setExpConfig",
      "outputs": [],
      "stateMutability": "nonpayable",
      "type": "function"
    },
    {
      "inputs": [
        {
          "internalType": "uint256",
          "name": "_threshold",
          "type": "uint256"
        }
      ],
      "name": "setProposalThreshold",
      "outputs": [],
      "stateMutability": "nonpayable",
      "type": "function"
    },
    {
      "inputs": [
        {
          "internalType": "uint256",
          "name": "_period",
          "type": "uint256"
        }
      ],
      "name": "setVotingPeriod",
      "outputs": [],
      "stateMutability": "nonpayable",
      "type": "function"
    },
    {
      "inputs": [
        {
          "internalType": "address",
          "name": "newOwner",
          "type": "address"
        }
      ],
      "name": "transferOwnership",
      "outputs": [],
      "stateMutability": "nonpayable",
      "type": "function"
    },
    {
      "inputs": [],
      "name": "treasury",
      "outputs": [
        {
          "internalType": "address",
          "name": "",
          "type": "address"
        }
      ],
      "stateMutability": "view",
      "type": "function"
    },
    {
      "inputs": [
        {
          "internalType": "address",
          "name": "",
          "type": "address"
        }
      ],
      "name": "userStats",
      "outputs": [
        {
          "internalType": "uint256",
          "name": "expPoints",
          "type": "uint256"
        },
        {
          "internalType": "uint256",
          "name": "creditScore",
          "type": "uint256"
        },
        {
          "internalType": "uint256",
          "name": "forumPosts",
          "type": "uint256"
        },
        {
          "internalType": "uint256",
          "name": "forumReplies",
          "type": "uint256"
        },
        {
          "internalType": "uint256",
          "name": "forumUpvotesReceived",
          "type": "uint256"
        },
        {
          "internalType": "uint256",
          "name": "proposalsCreated",
          "type": "uint256"
        },
        {
          "internalType": "uint256",
          "name": "votesParticipated",
          "type": "uint256"
        },
        {
          "internalType": "uint256",
          "name": "publicGoodsSupported",
          "type": "uint256"
        },
        {
          "internalType": "uint256",
          "name": "publicGoodsCreated",
          "type": "uint256"
        },
        {
          "internalType": "uint256",
          "name": "lastActivityAt",
          "type": "uint256"
        }
      ],
      "stateMutability": "view",
      "type": "function"
    },
    {
      "inputs": [
        {
          "internalType": "uint256",
          "name": "_postId",
          "type": "uint256"
        },
        {
          "internalType": "bool",
          "name": "_isUpvote",
          "type": "bool"
        }
      ],
      "name": "votePost",
      "outputs": [],
      "stateMutability": "nonpayable",
      "type": "function"
    },
    {
      "inputs": [],
      "name": "votingPeriod",
      "outputs": [
        {
          "internalType": "uint256",
          "name": "",
          "type": "uint256"
        }
      ],
      "stateMutability": "view",
      "type": "function"
    },
    {
      "stateMutability": "payable",
      "type": "receive"
    }
  ],
  "bytecode": "0x6080346200011457601f6200320b38819003918201601f19168301916001600160401b0383118484101762000119578084926020946040528339810103126200011457516001600160a01b03908181169081900362000114573315620000fb5760005460018060a01b0319903382821617600055604051933391167f8be0079c531659141344cd1fd0a4f28419497f9722a3daafe3b4186f6b6457e0600080a360018055600a6009556005600a556002600b556032600c556003600d556001600e556001600f556005601055601460115562093a8060125560646013556028601455606460155560165416176016556130db9081620001308239f35b604051631e4fbdf760e01b815260006004820152602490fd5b600080fd5b634e487b7160e01b600052604160045260246000fdfe6080604052600436101561001b575b361561001957600080fd5b005b60003560e01c8063013cf08b1461282357806302a251a31461280557806309b3d75e146127e75780630c0512e9146127c95780630d61b5191461257b5780631203922b146121d3578063152bd0da1461218c57806315373e3d14611f89578063186e4cd214611e9e5780631de7383d14611e6357806321923bde14611e38578063314eb8eb14611e1a57806334ea51d314611bdb57806347e4b8b214611acd57806348c78214146119ab5780634b2e039b1461198d5780634b92dd41146119545780635097e0f51461193657806357b5e2ea146119185780635bb3e1d5146114825780635fc073d81461146457806361d027b31461143b578063715018a6146113e257806382674bd614610b875780638a65d87414610ae95780638da5cb5b14610ac057806397c3d33414610aa2578063a17aafd514610a84578063a637cd1c14610a66578063a7713a7014610a48578063b58131b014610a2a578063ba892485146106da578063c7493292146106bc578063c80bc6c21461069e578063cd1e18d514610680578063d7ee6f431461039c578063ea0217cf1461037b578063ece40cc11461035a578063efae6c05146102665763f2fde38b0361000e5734610261576020366003190112610261576101f1612b1f565b6101f9613079565b6001600160a01b0390811690811561024857600054826001600160601b0360a01b821617600055167f8be0079c531659141344cd1fd0a4f28419497f9722a3daafe3b4186f6b6457e0600080a3005b604051631e4fbdf760e01b815260006004820152602490fd5b600080fd5b34610261576020366003190112610261576004356000526005602052604060002080549060018060a01b03600182015416906040516102b3816102ac81600286016129b0565b0382612a61565b604051916102cf836102c881600385016129b0565b0384612a61565b60ff60048201541692600582015460078301549061032a60088501549361031c60ff600b600a89015498015416976040519b8c9b610140918d5260208d01528060408d01528b0190612a8c565b9089820360608b0152612a8c565b9561033481612a82565b608088015260a087015260c086015260e085015261010084015215156101208301520390f35b3461026157602036600319011261026157610373613079565b600435601355005b3461026157602036600319011261026157610394613079565b600435601255005b34610261576040366003190112610261576001600160401b03600435602435828111610261576103d0903690600401612b87565b816000526020926005845260019060018060a01b0382604060002001541615610643576103ff83511515612e7c565b6002549261040c84612c6e565b6002558360005260058652604060002091848355838301336001600160601b0360a01b8254161790556000600284016104458154612976565b601f8111610625575b5055600383019180519182116105a2576104728261046c8554612976565b85612de5565b8790601f83116001146105c3576104a29291600091836105b8575b50508160011b916000199060031b1c19161790565b90555b6004810160ff1981541690558360058201556000600782015560006008820155600a4291015582600052600584526006604060002001805490600160401b8210156105a2576104f79282018155612ebb565b81549060031b9083821b91600019901b1916179055610544600a546040519061051f82612a46565b6013825272119bdc9d5b481c995c1b1e4818dc99585d1959606a1b8683015233612f0c565b3360005260088352600360406000200161055e8154612c6e565b9055336000526008835242600960406000200155604051918133917f9d700e7cf621d6c3fea61542139165c4b3645e03316b59b7371032e1de54c659600080a48152f35b634e487b7160e01b600052604160045260246000fd5b01519050898061048d565b859291601f19831691856000528a6000209260005b8c82821061060f57505084116105f6575b505050811b0190556104a5565b015160001960f88460031b161c191690558880806105e9565b8385015186558a979095019493840193016105d8565b81835289832061063d91601f0160051c810190612dce565b8961044e565b60405162461bcd60e51b815260048101869052601560248201527414185c995b9d081c1bdcdd081b9bdd08199bdd5b99605a1b6044820152606490fd5b34610261576000366003190112610261576020600f54604051908152f35b34610261576000366003190112610261576020600b54604051908152f35b34610261576000366003190112610261576020600a54604051908152f35b34610261576060366003190112610261576001600160401b036004358181116102615761070b903690600401612b87565b60243582811161026157610723903690600401612b87565b6044359060048210156102615761073c83511515612d91565b61074881511515612e7c565b6002549261075584612c6e565b6002558360005260056020526040600020848155600195868201336001600160601b0360a01b8254161790556002820183518281116105a2576107a28161079c8454612976565b84612de5565b6020601f82116001146109c85790806107d1926000916109bd575b508160011b916000199060031b1c19161790565b90555b83519081116105a25760209686946107fc836107f36003870154612976565b60038701612de5565b8891601f841160011461092c57509180610850927facdedee6db27c17970197c4786046bd191eea7d4f4d8d49b530d8052a52019b69695946000926109215750508160011b916000199060031b1c19161790565b60038201555b6004810161086386612a82565b60ff1981541660ff8716179055600060058201556000600782015560006008820155600a429101556108c26009546040519061089e82612a46565b6012825271119bdc9d5b481c1bdcdd0818dc99585d195960721b8983015233612f0c565b336000526008865260026040600020016108dc8154612c6e565b905533600052600886524260096040600020015561090560405191604083526040830190612a8c565b9361090f81612a82565b868201528033940390a3604051908152f35b015190508a8061048d565b91600385949297969501600052896000209060005b601f19841681106109a557507facdedee6db27c17970197c4786046bd191eea7d4f4d8d49b530d8052a52019b6969783601f1981161061098c575b505050811b016003820155610856565b015160001960f88460031b161c1916905589808061097c565b8882015183558a975091840191908b01908b01610941565b90508601518b6107bd565b908991601f198216908460005260206000209160005b818110610a12575083116109f9575b5050811b0190556107d4565b87015160001960f88460031b161c191690558a806109ed565b8983015184558d9590930192602092830192016109de565b34610261576000366003190112610261576020601354604051908152f35b34610261576000366003190112610261576020601454604051908152f35b34610261576000366003190112610261576020600c54604051908152f35b34610261576000366003190112610261576020600954604051908152f35b34610261576000366003190112610261576020601554604051908152f35b34610261576000366003190112610261576000546040516001600160a01b039091168152602090f35b34610261576020366003190112610261576001600160a01b03610b0a612b1f565b16600052600860205261014060406000208054906001810154906002810154600382015460048301546005840154906006850154926007860154946009600888015497015497604051998a5260208a015260408901526060880152608087015260a086015260c085015260e0840152610100830152610120820152f35b346102615760c0366003190112610261576004356001600160401b03811161026157610bb7903690600401612b87565b6024356001600160401b03811161026157610bd6903690600401612b87565b6064356001600160401b038111610261573660238201121561026157806004013591610c0183612ba5565b91610c0f6040519384612a61565b83835260208301906024829560051b8201019036821161026157602401915b8183106113c257505050608435916001600160401b038311610261573660238401121561026157826004013594610c6486612ba5565b93610c726040519586612a61565b868552602085016024819860051b8301019136831161026157602401905b8282106113b25750505060a435926001600160401b038411610261573660238501121561026157836004013593610cc685612ba5565b90610cd46040519283612a61565b85825260208201906024829760051b820101903682116102615760248101925b8284106113845750505050610d0b83511515612d91565b60443515611346578351156113015785518151036112c757600097885b87518a1015610d4f57610d4760019160208c60051b8b01015190612bfe565b990198610d28565b888891604435036112825760035496610d6788612c6e565b60035587600052600660205260406000209588875560018701336001600160601b0360a01b82541617905587516001600160401b0381116105a257610dbc81610db360028b0154612976565b60028b01612de5565b6020601f8211600114611215579080610dea9260009161120a57508160011b916000199060031b1c19161790565b60028801555b8051906001600160401b0382116105a257610e1b82610e1260038b0154612976565b60038b01612de5565b602090601f831160011461119857610e4b92916000918361118d5750508160011b916000199060031b1c19161790565b60038701555b6044356004870155600060058701556000600687015551906001600160401b0382116105a257600160401b82116105a257600786018054838255610e9791849190612e2a565b60078601600052602060002060005b838110611170575050505051906001600160401b0382116105a257600160401b82116105a257600884018054838255610ee191849190612e2a565b60088401600052602060002060005b83811061115c57505050505193600160401b85116105a25760098201548560098401558086106110e4575b5093600982016000526020600020946000905b828210610ffb5760208686866000600a820155600b8101600160ff19825416179055600c42910155610f6b600c54610f64612e4d565b9033612f0c565b610f80601054610f79612e4d565b9033612f75565b33600052600883526008604060002001610f9a8154612c6e565b9055336000526008835242600960406000200155817f2736b45b55d5a6a3ae9ab239ff4ecc4c63d5229d4f427bd06ba7587a597258d7610fe560405193604085526040850190612a8c565b92604435868201528033940390a3604051908152f35b80518051906001600160401b0382116105a2576110228261101c8b54612976565b8b612de5565b602090601f8311600114611074579261105a836001959460209487966000926110695750508160011b916000199060031b1c19161790565b8a555b01970191019095610f2e565b015190508d8061048d565b908960005260206000209160005b601f19851681106110cc575083602093600196938796938794601f198116106110b3575b505050811b018a5561105d565b015160001960f88460031b161c191690558c80806110a6565b91926020600181928685015181550194019201611082565b600983016000526020600020908682015b8183018110611105575050610f1b565b8061111260019254612976565b8061111f575b50016110f5565b601f811183146111355750600081555b89611118565b600090828252611153601f60208420920160051c8201858301612dce565b8183555561112f565b600190602084519401938184015501610ef0565b82516001600160a01b031681830155602090920191600101610ea6565b015190508c8061048d565b9190600389016000526020600020906000935b601f19841685106111ef576001945083601f198116106111d6575b505050811b016003870155610e51565b015160001960f88460031b161c191690558b80806111c6565b818101518355602094850194600190930192909101906111ab565b90508a01518d6107bd565b906002890160005260206000206000925b8b601f198416851061126b57506001935082601f19811610611252575b5050811b016002880155610df0565b8b015160001960f88460031b161c191690558c80611243565b810151825560209384019360019092019101611226565b60405162461bcd60e51b815260206004820152601d60248201527f4d696c6573746f6e6573206d7573742073756d20746f207461726765740000006044820152606490fd5b60405162461bcd60e51b815260206004820152601260248201527109ad2d8cae6e8dedcca40dad2e6dac2e8c6d60731b6044820152606490fd5b60405162461bcd60e51b815260206004820152601860248201527f4174206c65617374206f6e652062656e656669636961727900000000000000006044820152606490fd5b60405162461bcd60e51b815260206004820152601660248201527515185c99d95d08185b5bdd5b9d081c995c5d5a5c995960521b6044820152606490fd5b6001600160401b0384351161026157602080916113a73660248835870101612b87565b815201930192610cf4565b8135815260209182019101610c90565b82356001600160a01b038116810361026157815260209283019201610c2e565b34610261576000366003190112610261576113fb613079565b600080546001600160a01b0319811682556001600160a01b03167f8be0079c531659141344cd1fd0a4f28419497f9722a3daafe3b4186f6b6457e08280a3005b34610261576000366003190112610261576016546040516001600160a01b039091168152602090f35b34610261576000366003190112610261576020601154604051908152f35b346102615760a03660031901126102615760043560048110156102615760248035916001600160401b0392838111610261576114c2903690600401612b87565b604435848111610261576114da903690600401612b87565b906064356001600160a01b03811690819003610261576084358681116102615736602382011215610261576115189036908781600401359101612b50565b943360005260209660088852604060002054601354116118e15761153e84511515612d91565b6004549661154b88612c6e565b600455876000526007895260406000209588875560019586880180546115708b612a82565b6001600160a81b0319163360ff60a01b19161760a08b901b60ff60a01b1617905580516002890191908581116118cc576115ae8161046c8554612976565b8c8d601f8311600114611868575081906115de9360009261185d5750508160011b916000199060031b1c19161790565b90555b60038701908051848111611848576115fd8161046c8554612976565b8b8c601f83116001146117e45750819061162d936000926110695750508160011b916000199060031b1c19161790565b90555b600486019281519283116117d0575061164d8261046c8554612976565b8890601f831160011461176e5761167c9291600091836109215750508160011b916000199060031b1c19161790565b90555b60058301906001600160601b0360a01b8254161790556000600683015560006007830155600982019060ff1982541617905542600a8201556116c360125442612bfe565b600b820155600c42910155611703600c54604051906116e182612a46565b601082526f141c9bdc1bdcd85b0818dc99585d195960821b8683015233612f0c565b3360005260088352600560406000200161171d8154612c6e565b90553360005260088352426009604060002001556040519061173e81612a82565b8152817f876b000c101c27e7aaff6a3254ea503d0e9bf516112d43803bd82989b1355235843393a3604051908152f35b859291601f19831691856000528b6000209260005b8d8282106117ba57505084116117a1575b505050811b01905561167f565b015160001960f88460031b161c19169055898080611794565b8385015186558a97909501949384019301611783565b634e487b7160e01b60009081526041600452fd5b908993601f1984168660005283600020936000905b82821061182f5750508411611816575b505050811b019055611630565b015160001960f88460031b161c191690558c8080611809565b8484015186558d979095019493840193908101906117f9565b85634e487b7160e01b60005260416004526000fd5b015190508e8061048d565b908a93601f1984168660005283600020936000905b8282106118b3575050841161189a575b505050811b0190556115e1565b015160001960f88460031b161c191690558d808061188d565b8484015186558e9790950194938401939081019061187d565b86634e487b7160e01b60005260416004526000fd5b60405162461bcd60e51b8152600481018990526010818401526f0496e73756666696369656e74206578760841b6044820152606490fd5b34610261576000366003190112610261576020601054604051908152f35b34610261576000366003190112610261576020600d54604051908152f35b346102615760a03660031901126102615761196d613079565b600435600955602435600a55604435600b55606435600c55608435600d55005b34610261576000366003190112610261576020600e54604051908152f35b34610261576020366003190112610261576001600160a01b036119cc612b1f565b16806000526008602052604060002060098101546201518091828201808311611ab757421115611a87576001611a337f84441881b3d27a93324de4a16a7db94321e3ed2818bb7838f18c5b4f70a7e55494611a2960809542612d84565b04600f5490612c0b565b9101908082541015600014611a7d57611a4d908254612d84565b81555b5460405190815260406020820152600c60408201526b43726564697420646563617960a01b6060820152a2005b5060008155611a50565b60405162461bcd60e51b81526020600482015260086024820152672a37b79039b7b7b760c11b6044820152606490fd5b634e487b7160e01b600052601160045260246000fd5b3461026157602080600319360112610261576004356000526006815260406000209060098201611b046008600a8501549401612c7d565b91815490611b1182612ba5565b91611b1f6040519384612a61565b808352818301809460005282600020836000925b848410611bb5575050505050611b5460405194606086526060860190612acc565b9184830382860152519081835280830192818360051b82010194936000915b848310611b87578780888b60408301520390f35b9091929394958480611ba5600193601f198682030187528a51612a8c565b9801930193019194939290611b73565b6001918291604051611bcb816102ac81896129b0565b8152019201920191908490611b33565b3461026157611be936612b00565b81600052602091600583526040600020926001840160018060a01b0390818154168015611de4573314611da857600986013360005280845260406000205460000b9686600014611d9f576001975b8860000b8114611d6157918798918360017fda27da44d80b345c5851ad7ab1a3e80156fb297aeabad007707882e42712f07c999a9514600014611d47575060078101611c838154612d77565b90555b8315611d3357600701611c998154612c6e565b90555b33600052855260406000209060ff198254169060ff16179055611cdb575b505033600052600881524260096040600020015560405193151584523393a3005b611d0f82825416600b5460405191611cf283612a46565b600c83526b141bdcdd081d5c1d9bdd195960a21b87840152612f0c565b5416600052600881526004604060002001611d2a8154612c6e565b90558480611cba565b600801611d408154612c6e565b9055611c9c565b19611c865760088101611d5a8154612d77565b9055611c86565b60405162461bcd60e51b8152600481018790526016602482015275416c726561647920766f7465642073616d652077617960501b6044820152606490fd5b60001997611c37565b60405162461bcd60e51b815260048101849052601460248201527310d85b9b9bdd081d9bdd19481bdddb881c1bdcdd60621b6044820152606490fd5b60405162461bcd60e51b815260048101859052600e60248201526d141bdcdd081b9bdd08199bdd5b9960921b6044820152606490fd5b34610261576000366003190112610261576020600354604051908152f35b34610261576020366003190112610261576020611e5b611e56612b1f565b612cd0565b604051908152f35b3461026157611e7136612b00565b90611e7a613079565b6000526005602052600b6040600020019060ff801983541691151516179055600080f35b346102615760203660031901126102615760043560005260066020526040600020604081549160018060a01b03600182015416825191611ee5836102c881600285016129b0565b835192611f0084611ef981600386016129b0565b0385612a61565b6004820154936005830154600684015490611f5c600a86015493611f4e60ff600b8901541696600d600c8a0154990154998c519d8e9d8e6101609384938252602082015201528c0190612a8c565b908a820360608c0152612a8c565b96608089015260a088015260c087015260e086015215156101008501526101208401526101408301520390f35b3461026157611f9736612b00565b908060005260206007815260406000209060ff6009830154166005811015612176576001611fc59114612bbc565b600b82015442101561214357600882013360005280825260ff6040600020541661210e5733600052600882526040600020549283156120d75785156120c257600601612012848254612bfe565b90555b3360005281526040600020600160ff19825416179055612061600d546040519061203e82612a46565b6011825270159bdd1959081bdb881c1c9bdc1bdcd85b607a1b8483015233612f0c565b3360005260088152600660406000200161207b8154612c6e565b905533600052600881524260096040600020015560405193151584528301527fcbdf6214089cba887ecbf35a0b6a734589959c9763342c756bb2a80ca2bc9f6e60403393a3005b6007016120d0848254612bfe565b9055612015565b60405162461bcd60e51b815260048101849052600f60248201526e2737903b37ba34b733903837bbb2b960891b6044820152606490fd5b60405162461bcd60e51b815260048101839052600d60248201526c105b1c9958591e481d9bdd1959609a1b6044820152606490fd5b6064906040519062461bcd60e51b82526004820152600c60248201526b159bdd1a5b99c8195b99195960a21b6044820152fd5b634e487b7160e01b600052602160045260246000fd5b346102615760203660031901126102615760043560005260056020526121cf6121bb6006604060002001612c7d565b604051918291602083526020830190612acc565b0390f35b60208060031936011261026157600435906121ec612ee9565b8160005260068152604060002060ff600b820154161561253d57341561250457600581019081549060046122203484612bfe565b910154106124ce57612233903490612bfe565b905561224a600e54662386f26fc100003404612c0b565b80612492575b5061228c6010546040519061226482612a46565b6016825275111bdb985d1959081d1bc81c1d589b1a58c819dbdbd960521b8483015233612f75565b336000526008815260076040600020016122a68154612c6e565b9055336000526008815242600960406000200155604051348152827fe95452915c1d76280b508ed0ec02329f82d7f1cb88478dfaf6d7898028a88fd5833393a38160005260068152604060002091600a830190815493600881019485548110612310575b60018055005b6000805b82811115612468575060058301541061230a576123319086612ebb565b92905460039360031b1c916006810161234b848254612bfe565b905561235d6007820193845490612c1e565b9460005b84548110156123d85760008080808a61237a868b612ebb565b9054908c1b1c6001600160a01b03165af1612393612c3e565b50156123a157600101612361565b60405162461bcd60e51b815260048101899052600f60248201526e151c985b9cd9995c8819985a5b1959608a1b6044820152606490fd5b50945094909592506124169150857f4b673a189fe3efb1f15f76b61e2e09b8a1791cdcf8a55a36872980699d89a57f855492604051848152a2612c6e565b80925554111561242a575b8080808061230a565b600b810160ff198154169055600d429101557f9ce7be1de177d7a5c2e6c1744c2058e40023468787c4c598e9ea34ae159c56e0600080a28080612421565b9061248761248d9161247a848b612ebb565b90549060031b1c90612bfe565b91612c6e565b612314565b6040516124c8916124a282612a46565b6014825273283ab13634b19033b7b7b2103237b730ba34b7b760611b8483015233612f0c565b82612250565b60405162461bcd60e51b815260048101849052600e60248201526d115e18d959591cc81d185c99d95d60921b6044820152606490fd5b60405162461bcd60e51b8152600481018390526011602482015270111bdb985d1a5bdb881c995c5d5a5c9959607a1b6044820152606490fd5b60405162461bcd60e51b81526004810183905260166024820152755075626c696320676f6f64206e6f742061637469766560501b6044820152606490fd5b34610261576020806003193601126102615760043590612599612ee9565b81600052600781526040600020600981019182549160ff8316926005841015612176576125c96001809514612bbc565b600b82015442106127915760068201546007830154906125e98282612bfe565b9161260c6126036125fa8385612bfe565b60155490612c0b565b60145490612c1e565b91119182612786575b505015612772575060ff199260028486541617855560018060a01b03600583015416918215158061275d575b61267e575b505050506004908254161790557f712ae1383f79ac853f8d882153778e0260ef8f03b504e2866e0593e04d2b291f600080a260018055005b600401906040519160009181549161269583612976565b928860018216918260001461274657505060011461270b575b50505091816000809493819403925af16126c6612c3e565b50156126d457808080612646565b6064906040519062461bcd60e51b82526004820152601060248201526f115e1958dd5d1a5bdb8819985a5b195960821b6044820152fd5b909192506000528460002090856000925b848410612734575050509082019050816000806126ae565b8054868501529201918690820161271c565b1686525050508015150282019050816000806126ae565b5061276b6004820154612976565b1515612641565b60ff19166003179093555061230a92505050565b101590508780612615565b60405162461bcd60e51b815260048101849052601060248201526f159bdd1a5b99c81b9bdd08195b99195960821b6044820152606490fd5b34610261576000366003190112610261576020600454604051908152f35b34610261576000366003190112610261576020600254604051908152f35b34610261576000366003190112610261576020601254604051908152f35b3461026157602036600319011261026157600435600052600760205260406000208054906001810154918260a01c60ff166080806002850190612865916129b0565b0360809061287291612a61565b604051928361288481600384016129b0565b0361288f9085612a61565b60405192836128a181600485016129b0565b036128ac9085612a61565b600160a01b60019003600583015416936006830154600784015491600985015460ff1697600a86015494600b87015496600c0154976040519b6101a0928d52600160a01b600190031660208d015261290381612a82565b60408c01528060608c01528a0160809061291c91612a8c565b8a810360808c015261292d91612a8c565b89810360a08b015261293e91612a8c565b9560c089015260e088015261010087015260058510156121765785946101208601526101408501526101608401526101808301520390f35b90600182811c921680156129a6575b602083101461299057565b634e487b7160e01b600052602260045260246000fd5b91607f1691612985565b8054600093926129bf82612976565b91828252602093600191600181169081600014612a2757506001146129e6575b5050505050565b90939495506000929192528360002092846000945b838610612a13575050505001019038808080806129df565b8054858701830152940193859082016129fb565b60ff19168685015250505090151560051b0101915038808080806129df565b604081019081106001600160401b038211176105a257604052565b90601f801991011681019081106001600160401b038211176105a257604052565b6004111561217657565b919082519283825260005b848110612ab8575050826000602080949584010152601f8019910116010190565b602081830181015184830182015201612a97565b90815180825260208080930193019160005b828110612aec575050505090565b835185529381019392810192600101612ade565b6040906003190112610261576004359060243580151581036102615790565b600435906001600160a01b038216820361026157565b6001600160401b0381116105a257601f01601f191660200190565b929192612b5c82612b35565b91612b6a6040519384612a61565b829481845281830111610261578281602093846000960137010152565b9080601f8301121561026157816020612ba293359101612b50565b90565b6001600160401b0381116105a25760051b60200190565b15612bc357565b60405162461bcd60e51b815260206004820152601360248201527250726f706f73616c206e6f742061637469766560681b6044820152606490fd5b91908201809211611ab757565b81810292918115918404141715611ab757565b8115612c28570490565b634e487b7160e01b600052601260045260246000fd5b3d15612c69573d90612c4f82612b35565b91612c5d6040519384612a61565b82523d6000602084013e565b606090565b6000198114611ab75760010190565b90604051918281549182825260209260208301916000526020600020936000905b828210612cb657505050612cb492500383612a61565b565b855484526001958601958895509381019390910190612c9e565b6001600160a01b0316600090815260086020526040902054612710811015612d7157611388811015612d6b576109c4811015612d65576103e8811015612d5f576101f4811015612d595760fa811015612d53576064811015612d4d576032811015612d475760191115612d4257600190565b600290565b50600390565b50600490565b50600590565b50600690565b50600790565b50600890565b50600990565b50600a90565b8015611ab7576000190190565b91908203918211611ab757565b15612d9857565b60405162461bcd60e51b815260206004820152600e60248201526d151a5d1b19481c995c5d5a5c995960921b6044820152606490fd5b818110612dd9575050565b60008155600101612dce565b9190601f8111612df457505050565b612cb4926000526020600020906020601f840160051c83019310612e20575b601f0160051c0190612dce565b9091508190612e13565b91818110612e3757505050565b612cb49260005260206000209182019101612dce565b60405190612e5a82612a46565b6013825272141d589b1a58c819dbdbd90818dc99585d1959606a1b6020830152565b15612e8357565b60405162461bcd60e51b815260206004820152601060248201526f10dbdb9d195b9d081c995c5d5a5c995960821b6044820152606490fd5b8054821015612ed35760005260206000200190600090565b634e487b7160e01b600052603260045260246000fd5b600260015414612efa576002600155565b604051633ee5aeb560e01b8152600490fd5b917fa41f232287760442d2f56ce2852d81f86388ec14713dcec41b3688f1e110039d919260018060a01b0316928360005260086020526040600020612f52828254612bfe565b9055612f706040519283928352604060208401526040830190612a8c565b0390a2565b6001600160a01b031660008181526008602052604081209193929080821315613005575081600191612fcd837f84441881b3d27a93324de4a16a7db94321e3ed2818bb7838f18c5b4f70a7e554969501918254612bfe565b908181556103e8809211612ffd575b50505b0154612f706040519283928352604060208401526040830190612a8c565b553880612fdc565b90600160ff1b81146130655791817f84441881b3d27a93324de4a16a7db94321e3ed2818bb7838f18c5b4f70a7e55494936001930383830190808254101560001461305e578161305792935054612d84565b9055612fdf565b5055612fdf565b634e487b7160e01b82526011600452602482fd5b6000546001600160a01b0316330361308d57565b60405163118cdaa760e01b8152336004820152602490fdfea2646970667358221220004d51a92374db3fbe324838bf5b1bd8371dca1c5feebaef0c2d0e062e6d11f564736f6c63430008180033",
  "linkReferences": {},
  "deployedLinkReferences": {}
}