{
  "_format": "hh-sol-artifact-1",
  "contractName": "HumanLevelNFT",
  "sourceName": "contracts/HumanLevelNFT.sol",
  "abi": [
    {
      "inputs": [],
      "stateMutability": "nonpayable",
      "type": "constructor"
    },
    {
      "inputs": [],
      "name": "ERC721EnumerableForbiddenBatchMint",
      "type": "error"
    },
    {
      "inputs": [
        {
          "internalType": "address",
          "name": "sender",
          "type": "address"
        },
        {
          "internalType": "uint256",
          "name": "tokenId",
          "type": "uint256"
        },
        {
          "internalType": "address",
          "name": "owner",
          "type": "address"
        }
      ],
      "name": "ERC721IncorrectOwner",
      "type": "error"
    },
    {
      "inputs": [
        {
          "internalType": "address",
          "name": "operator",
          "type": "address"
        },
        {
          "internalType": "uint256",
          "name": "tokenId",
          "type": "uint256"
        }
      ],
      "name": "ERC721InsufficientApproval",
      "type": "error"
    },
    {
      "inputs": [
        {
          "internalType": "address",
          "name": "approver",
          "type": "address"
        }
      ],
      "name": "ERC721InvalidApprover",
      "type": "error"
    },
    {
      "inputs": [
        {
          "internalType": "address",
          "name": "operator",
          "type": "address"
        }
      ],
      "name": "ERC721InvalidOperator",
      "type": "error"
    },
    {
      "inputs": [
        {
          "internalType": "address",
          "name": "owner",
          "type": "address"
        }
      ],
      "name": "ERC721InvalidOwner",
      "type": "error"
    },
    {
      "inputs": [
        {
          "internalType": "address",
          "name": "receiver",
          "type": "address"
        }
      ],
      "name": "ERC721InvalidReceiver",
      "type": "error"
    },
    {
      "inputs": [
        {
          "internalType": "address",
          "name": "sender",
          "type": "address"
        }
      ],
      "name": "ERC721InvalidSender",
      "type": "error"
    },
    {
      "inputs": [
        {
          "internalType": "uint256",
          "name": "tokenId",
          "type": "uint256"
        }
      ],
      "name": "ERC721NonexistentToken",
      "type": "error"
    },
    {
      "inputs": [
        {
          "internalType": "address",
          "name": "owner",
          "type": "address"
        },
        {
          "internalType": "uint256",
          "name": "index",
          "type": "uint256"
        }
      ],
      "name": "ERC721OutOfBoundsIndex",
      "type": "error"
    },
    {
      "inputs": [
        {
          "internalType": "address",
          "name": "owner",
          "type": "address"
        }
      ],
      "name": "OwnableInvalidOwner",
      "type": "error"
    },
    {
      "inputs": [
        {
          "internalType": "address",
          "name": "account",
          "type": "address"
        }
      ],
      "name": "OwnableUnauthorizedAccount",
      "type": "error"
    },
    {
      "anonymous": false,
      "inputs": [
        {
          "indexed": true,
          "internalType": "address",
          "name": "owner",
          "type": "address"
        },
        {
          "indexed": true,
          "internalType": "address",
          "name": "approved",
          "type": "address"
        },
        {
          "indexed": true,
          "internalType": "uint256",
          "name": "tokenId",
          "type": "uint256"
        }
      ],
      "name": "Approval",
      "type": "event"
    },
    {
      "anonymous": false,
      "inputs": [
        {
          "indexed": true,
          "internalType": "address",
          "name": "owner",
          "type": "address"
        },
        {
          "indexed": true,
          "internalType": "address",
          "name": "operator",
          "type": "address"
        },
        {
          "indexed": false,
          "internalType": "bool",
          "name": "approved",
          "type": "bool"
        }
      ],
      "name": "ApprovalForAll",
      "type": "event"
    },
    {
      "anonymous": false,
      "inputs": [
        {
          "indexed": true,
          "internalType": "uint256",
          "name": "tokenId",
          "type": "uint256"
        },
        {
          "indexed": false,
          "internalType": "uint256",
          "name": "points",
          "type": "uint256"
        },
        {
          "indexed": false,
          "internalType": "uint256",
          "name": "total",
          "type": "uint256"
        }
      ],
      "name": "ContributionAdded",
      "type": "event"
    },
    {
      "anonymous": false,
      "inputs": [
        {
          "indexed": true,
          "internalType": "uint256",
          "name": "tokenId",
          "type": "uint256"
        },
        {
          "indexed": true,
          "internalType": "address",
          "name": "wallet",
          "type": "address"
        },
        {
          "indexed": false,
          "internalType": "string",
          "name": "username",
          "type": "string"
        }
      ],
      "name": "HumanRegistered",
      "type": "event"
    },
    {
      "anonymous": false,
      "inputs": [
        {
          "indexed": true,
          "internalType": "uint256",
          "name": "tokenId",
          "type": "uint256"
        },
        {
          "indexed": false,
          "internalType": "enum HumanLevelNFT.Level",
          "name": "oldLevel",
          "type": "uint8"
        },
        {
          "indexed": false,
          "internalType": "enum HumanLevelNFT.Level",
          "name": "newLevel",
          "type": "uint8"
        }
      ],
      "name": "LevelUp",
      "type": "event"
    },
    {
      "anonymous": false,
      "inputs": [
        {
          "indexed": true,
          "internalType": "address",
          "name": "previousOwner",
          "type": "address"
        },
        {
          "indexed": true,
          "internalType": "address",
          "name": "newOwner",
          "type": "address"
        }
      ],
      "name": "OwnershipTransferred",
      "type": "event"
    },
    {
      "anonymous": false,
      "inputs": [
        {
          "indexed": true,
          "internalType": "uint256",
          "name": "tokenId",
          "type": "uint256"
        },
        {
          "indexed": false,
          "internalType": "uint256",
          "name": "oldScore",
          "type": "uint256"
        },
        {
          "indexed": false,
          "internalType": "uint256",
          "name": "newScore",
          "type": "uint256"
        }
      ],
      "name": "ReputationUpdated",
      "type": "event"
    },
    {
      "anonymous": false,
      "inputs": [
        {
          "indexed": true,
          "internalType": "address",
          "name": "from",
          "type": "address"
        },
        {
          "indexed": true,
          "internalType": "address",
          "name": "to",
          "type": "address"
        },
        {
          "indexed": true,
          "internalType": "uint256",
          "name": "tokenId",
          "type": "uint256"
        }
      ],
      "name": "Transfer",
      "type": "event"
    },
    {
      "inputs": [
        {
          "internalType": "uint256",
          "name": "_tokenId",
          "type": "uint256"
        },
        {
          "internalType": "uint256",
          "name": "_points",
          "type": "uint256"
        }
      ],
      "name": "addContribution",
      "outputs": [],
      "stateMutability": "nonpayable",
      "type": "function"
    },
    {
      "inputs": [
        {
          "internalType": "address",
          "name": "to",
          "type": "address"
        },
        {
          "internalType": "uint256",
          "name": "tokenId",
          "type": "uint256"
        }
      ],
      "name": "approve",
      "outputs": [],
      "stateMutability": "nonpayable",
      "type": "function"
    },
    {
      "inputs": [
        {
          "internalType": "address",
          "name": "owner",
          "type": "address"
        }
      ],
      "name": "balanceOf",
      "outputs": [
        {
          "internalType": "uint256",
          "name": "",
          "type": "uint256"
        }
      ],
      "stateMutability": "view",
      "type": "function"
    },
    {
      "inputs": [
        {
          "internalType": "uint256[]",
          "name": "_tokenIds",
          "type": "uint256[]"
        },
        {
          "internalType": "uint256[]",
          "name": "_points",
          "type": "uint256[]"
        }
      ],
      "name": "batchAddContribution",
      "outputs": [],
      "stateMutability": "nonpayable",
      "type": "function"
    },
    {
      "inputs": [
        {
          "internalType": "uint256",
          "name": "_tokenId",
          "type": "uint256"
        }
      ],
      "name": "canArbitrate",
      "outputs": [
        {
          "internalType": "bool",
          "name": "",
          "type": "bool"
        }
      ],
      "stateMutability": "view",
      "type": "function"
    },
    {
      "inputs": [
        {
          "internalType": "uint256",
          "name": "_tokenId",
          "type": "uint256"
        }
      ],
      "name": "canGovern",
      "outputs": [
        {
          "internalType": "bool",
          "name": "",
          "type": "bool"
        }
      ],
      "stateMutability": "view",
      "type": "function"
    },
    {
      "inputs": [
        {
          "internalType": "uint256",
          "name": "_tokenId",
          "type": "uint256"
        }
      ],
      "name": "canPublishTask",
      "outputs": [
        {
          "internalType": "bool",
          "name": "",
          "type": "bool"
        }
      ],
      "stateMutability": "view",
      "type": "function"
    },
    {
      "inputs": [
        {
          "internalType": "uint256",
          "name": "_tokenId",
          "type": "uint256"
        },
        {
          "internalType": "enum HumanLevelNFT.Level",
          "name": "_newLevel",
          "type": "uint8"
        }
      ],
      "name": "forceLevelUp",
      "outputs": [],
      "stateMutability": "nonpayable",
      "type": "function"
    },
    {
      "inputs": [
        {
          "internalType": "uint256",
          "name": "tokenId",
          "type": "uint256"
        }
      ],
      "name": "getApproved",
      "outputs": [
        {
          "internalType": "address",
          "name": "",
          "type": "address"
        }
      ],
      "stateMutability": "view",
      "type": "function"
    },
    {
      "inputs": [
        {
          "internalType": "address",
          "name": "_wallet",
          "type": "address"
        }
      ],
      "name": "getHumanByWallet",
      "outputs": [
        {
          "components": [
            {
              "internalType": "string",
              "name": "username",
              "type": "string"
            },
            {
              "internalType": "enum HumanLevelNFT.Level",
              "name": "level",
              "type": "uint8"
            },
            {
              "internalType": "uint256",
              "name": "contributionPoints",
              "type": "uint256"
            },
            {
              "internalType": "uint256",
              "name": "tasksPublished",
              "type": "uint256"
            },
            {
              "internalType": "uint256",
              "name": "tasksCompleted",
              "type": "uint256"
            },
            {
              "internalType": "uint256",
              "name": "reputationScore",
              "type": "uint256"
            },
            {
              "internalType": "address",
              "name": "wallet",
              "type": "address"
            },
            {
              "internalType": "uint256",
              "name": "joinedAt",
              "type": "uint256"
            },
            {
              "internalType": "string",
              "name": "metadataURI",
              "type": "string"
            }
          ],
          "internalType": "struct HumanLevelNFT.Human",
          "name": "",
          "type": "tuple"
        }
      ],
      "stateMutability": "view",
      "type": "function"
    },
    {
      "inputs": [
        {
          "internalType": "enum HumanLevelNFT.Level",
          "name": "_level",
          "type": "uint8"
        }
      ],
      "name": "getHumansByLevel",
      "outputs": [
        {
          "internalType": "uint256[]",
          "name": "",
          "type": "uint256[]"
        }
      ],
      "stateMutability": "view",
      "type": "function"
    },
    {
      "inputs": [
        {
          "internalType": "uint256",
          "name": "_tokenId",
          "type": "uint256"
        }
      ],
      "name": "getLevel",
      "outputs": [
        {
          "internalType": "enum HumanLevelNFT.Level",
          "name": "",
          "type": "uint8"
        }
      ],
      "stateMutability": "view",
      "type": "function"
    },
    {
      "inputs": [
        {
          "internalType": "uint256",
          "name": "_tokenId",
          "type": "uint256"
        }
      ],
      "name": "getLevelName",
      "outputs": [
        {
          "internalType": "string",
          "name": "",
          "type": "string"
        }
      ],
      "stateMutability": "view",
      "type": "function"
    },
    {
      "inputs": [
        {
          "internalType": "uint256",
          "name": "",
          "type": "uint256"
        }
      ],
      "name": "humans",
      "outputs": [
        {
          "internalType": "string",
          "name": "username",
          "type": "string"
        },
        {
          "internalType": "enum HumanLevelNFT.Level",
          "name": "level",
          "type": "uint8"
        },
        {
          "internalType": "uint256",
          "name": "contributionPoints",
          "type": "uint256"
        },
        {
          "internalType": "uint256",
          "name": "tasksPublished",
          "type": "uint256"
        },
        {
          "internalType": "uint256",
          "name": "tasksCompleted",
          "type": "uint256"
        },
        {
          "internalType": "uint256",
          "name": "reputationScore",
          "type": "uint256"
        },
        {
          "internalType": "address",
          "name": "wallet",
          "type": "address"
        },
        {
          "internalType": "uint256",
          "name": "joinedAt",
          "type": "uint256"
        },
        {
          "internalType": "string",
          "name": "metadataURI",
          "type": "string"
        }
      ],
      "stateMutability": "view",
      "type": "function"
    },
    {
      "inputs": [
        {
          "internalType": "address",
          "name": "owner",
          "type": "address"
        },
        {
          "internalType": "address",
          "name": "operator",
          "type": "address"
        }
      ],
      "name": "isApprovedForAll",
      "outputs": [
        {
          "internalType": "bool",
          "name": "",
          "type": "bool"
        }
      ],
      "stateMutability": "view",
      "type": "function"
    },
    {
      "inputs": [
        {
          "internalType": "address",
          "name": "_wallet",
          "type": "address"
        }
      ],
      "name": "isRegistered",
      "outputs": [
        {
          "internalType": "bool",
          "name": "",
          "type": "bool"
        }
      ],
      "stateMutability": "view",
      "type": "function"
    },
    {
      "inputs": [
        {
          "internalType": "enum HumanLevelNFT.Level",
          "name": "",
          "type": "uint8"
        }
      ],
      "name": "levelNames",
      "outputs": [
        {
          "internalType": "string",
          "name": "",
          "type": "string"
        }
      ],
      "stateMutability": "view",
      "type": "function"
    },
    {
      "inputs": [
        {
          "internalType": "enum HumanLevelNFT.Level",
          "name": "",
          "type": "uint8"
        }
      ],
      "name": "levelThresholds",
      "outputs": [
        {
          "internalType": "uint256",
          "name": "",
          "type": "uint256"
        }
      ],
      "stateMutability": "view",
      "type": "function"
    },
    {
      "inputs": [],
      "name": "name",
      "outputs": [
        {
          "internalType": "string",
          "name": "",
          "type": "string"
        }
      ],
      "stateMutability": "view",
      "type": "function"
    },
    {
      "inputs": [],
      "name": "owner",
      "outputs": [
        {
          "internalType": "address",
          "name": "",
          "type": "address"
        }
      ],
      "stateMutability": "view",
      "type": "function"
    },
    {
      "inputs": [
        {
          "internalType": "uint256",
          "name": "tokenId",
          "type": "uint256"
        }
      ],
      "name": "ownerOf",
      "outputs": [
        {
          "internalType": "address",
          "name": "",
          "type": "address"
        }
      ],
      "stateMutability": "view",
      "type": "function"
    },
    {
      "inputs": [
        {
          "internalType": "uint256",
          "name": "_tokenId",
          "type": "uint256"
        }
      ],
      "name": "recordTaskCompleted",
      "outputs": [],
      "stateMutability": "nonpayable",
      "type": "function"
    },
    {
      "inputs": [
        {
          "internalType": "uint256",
          "name": "_tokenId",
          "type": "uint256"
        }
      ],
      "name": "recordTaskPublished",
      "outputs": [],
      "stateMutability": "nonpayable",
      "type": "function"
    },
    {
      "inputs": [
        {
          "internalType": "string",
          "name": "_username",
          "type": "string"
        },
        {
          "internalType": "string",
          "name": "_metadataURI",
          "type": "string"
        }
      ],
      "name": "registerHuman",
      "outputs": [
        {
          "internalType": "uint256",
          "name": "",
          "type": "uint256"
        }
      ],
      "stateMutability": "nonpayable",
      "type": "function"
    },
    {
      "inputs": [],
      "name": "renounceOwnership",
      "outputs": [],
      "stateMutability": "nonpayable",
      "type": "function"
    },
    {
      "inputs": [
        {
          "internalType": "address",
          "name": "from",
          "type": "address"
        },
        {
          "internalType": "address",
          "name": "to",
          "type": "address"
        },
        {
          "internalType": "uint256",
          "name": "tokenId",
          "type": "uint256"
        }
      ],
      "name": "safeTransferFrom",
      "outputs": [],
      "stateMutability": "nonpayable",
      "type": "function"
    },
    {
      "inputs": [
        {
          "internalType": "address",
          "name": "from",
          "type": "address"
        },
        {
          "internalType": "address",
          "name": "to",
          "type": "address"
        },
        {
          "internalType": "uint256",
          "name": "tokenId",
          "type": "uint256"
        },
        {
          "internalType": "bytes",
          "name": "data",
          "type": "bytes"
        }
      ],
      "name": "safeTransferFrom",
      "outputs": [],
      "stateMutability": "nonpayable",
      "type": "function"
    },
    {
      "inputs": [
        {
          "internalType": "address",
          "name": "operator",
          "type": "address"
        },
        {
          "internalType": "bool",
          "name": "approved",
          "type": "bool"
        }
      ],
      "name": "setApprovalForAll",
      "outputs": [],
      "stateMutability": "nonpayable",
      "type": "function"
    },
    {
      "inputs": [
        {
          "internalType": "enum HumanLevelNFT.Level",
          "name": "_level",
          "type": "uint8"
        },
        {
          "internalType": "uint256",
          "name": "_threshold",
          "type": "uint256"
        }
      ],
      "name": "setLevelThreshold",
      "outputs": [],
      "stateMutability": "nonpayable",
      "type": "function"
    },
    {
      "inputs": [
        {
          "internalType": "uint256",
          "name": "_tokenId",
          "type": "uint256"
        },
        {
          "internalType": "string",
          "name": "_uri",
          "type": "string"
        }
      ],
      "name": "setTokenURI",
      "outputs": [],
      "stateMutability": "nonpayable",
      "type": "function"
    },
    {
      "inputs": [
        {
          "internalType": "bytes4",
          "name": "interfaceId",
          "type": "bytes4"
        }
      ],
      "name": "supportsInterface",
      "outputs": [
        {
          "internalType": "bool",
          "name": "",
          "type": "bool"
        }
      ],
      "stateMutability": "view",
      "type": "function"
    },
    {
      "inputs": [],
      "name": "symbol",
      "outputs": [
        {
          "internalType": "string",
          "name": "",
          "type": "string"
        }
      ],
      "stateMutability": "view",
      "type": "function"
    },
    {
      "inputs": [
        {
          "internalType": "uint256",
          "name": "index",
          "type": "uint256"
        }
      ],
      "name": "tokenByIndex",
      "outputs": [
        {
          "internalType": "uint256",
          "name": "",
          "type": "uint256"
        }
      ],
      "stateMutability": "view",
      "type": "function"
    },
    {
      "inputs": [
        {
          "internalType": "address",
          "name": "owner",
          "type": "address"
        },
        {
          "internalType": "uint256",
          "name": "index",
          "type": "uint256"
        }
      ],
      "name": "tokenOfOwnerByIndex",
      "outputs": [
        {
          "internalType": "uint256",
          "name": "",
          "type": "uint256"
        }
      ],
      "stateMutability": "view",
      "type": "function"
    },
    {
      "inputs": [
        {
          "internalType": "uint256",
          "name": "_tokenId",
          "type": "uint256"
        }
      ],
      "name": "tokenURI",
      "outputs": [
        {
          "internalType": "string",
          "name": "",
          "type": "string"
        }
      ],
      "stateMutability": "view",
      "type": "function"
    },
    {
      "inputs": [],
      "name": "totalSupply",
      "outputs": [
        {
          "internalType": "uint256",
          "name": "",
          "type": "uint256"
        }
      ],
      "stateMutability": "view",
      "type": "function"
    },
    {
      "inputs": [
        {
          "internalType": "address",
          "name": "from",
          "type": "address"
        },
        {
          "internalType": "address",
          "name": "to",
          "type": "address"
        },
        {
          "internalType": "uint256",
          "name": "tokenId",
          "type": "uint256"
        }
      ],
      "name": "transferFrom",
      "outputs": [],
      "stateMutability": "nonpayable",
      "type": "function"
    },
    {
      "inputs": [
        {
          "internalType": "address",
          "name": "newOwner",
          "type": "address"
        }
      ],
      "name": "transferOwnership",
      "outputs": [],
      "stateMutability": "nonpayable",
      "type": "function"
    },
    {
      "inputs": [
        {
          "internalType": "uint256",
          "name": "_tokenId",
          "type": "uint256"
        },
        {
          "internalType": "uint256",
          "name": "_newScore",
          "type": "uint256"
        }
      ],
      "name": "updateReputation",
      "outputs": [],
      "stateMutability": "nonpayable",
      "type": "function"
    },
    {
      "inputs": [
        {
          "internalType": "address",
          "name": "",
          "type": "address"
        }
      ],
      "name": "walletToTokenId",
      "outputs": [
        {
          "internalType": "uint256",
          "name": "",
          "type": "uint256"
        }
      ],
      "stateMutability": "view",
      "type": "function"
    }
  ],
  "bytecode": "0x60803462000411576001600160401b039060409080820183811182821017620003fb578252600c81526020926b21b7b4b232b090243ab6b0b760a11b84830152825183810181811083821117620003fb57845260049182825263434f484d60e01b86830152835193818511620003e657600094806200007f875462000416565b92601f938a858211620003b5575b505089908483116001146200034d57889262000341575b50508160011b916000199060031b1c19161785555b82519182116200032e578190600193620000d4855462000416565b828111620002f3575b50889183116001146200028f57869262000283575b5050600019600383901b1c191690821b1781555b33156200026d57600a8054336001600160a01b03198216811790925594958695600f9491939192906001600160a01b03167f8be0079c531659141344cd1fd0a4f28419497f9722a3daafe3b4186f6b6457e08780a3848052600e83528486812055808552606486862055600285526101f486862055600385526107d08686205581855261271086862055848052838352858520620001b0620001a9825462000416565b826200046c565b600c654e6f7669636560d01b0190558452828252848420620001d7620001a9825462000416565b60146941707072656e7469636560b01b0190556002845282825284842062000204620001a9825462000416565b600c65115e1c195c9d60d21b019055600384528282528484206200022d620001a9825462000416565b600c6526b0b9ba32b960d11b0190558352522062000250620001a9825462000416565b600c65131959d95b9960d21b01905551612a9890816200049a8239f35b509151631e4fbdf760e01b815291820152602490fd5b015190503880620000f2565b8487528887208594509190601f198416885b8b828210620002dc5750508411620002c2575b505050811b01815562000106565b015160001960f88460031b161c19169055388080620002b4565b8385015186558897909501949384019301620002a1565b6200031d908689528a89208480870160051c8201928d881062000324575b0160051c019062000453565b38620000dd565b9250819262000311565b634e487b7160e01b855260418452602485fd5b015190503880620000a4565b8880528a89209250601f198416895b8c8282106200039e57505090846001959493921062000384575b505050811b018555620000b9565b015160001960f88460031b161c1916905538808062000376565b60018596829396860151815501950193016200035c565b620003de918a805286828c209181870160051c830193871062000324570160051c019062000453565b388a6200008d565b604184634e487b7160e01b6000525260246000fd5b634e487b7160e01b600052604160045260246000fd5b600080fd5b90600182811c9216801562000448575b60208310146200043257565b634e487b7160e01b600052602260045260246000fd5b91607f169162000426565b8181106200045f575050565b6000815560010162000453565b90601f81116200047a575050565b6200049791600052601f6020600020910160051c81019062000453565b56fe608080604052600436101561001357600080fd5b60003560e01c90816301ffc9a7146120e5575080630675f7631461202257806306fdde0314611f77578063081812fc14611f59578063095ea7b314611e725780631216f7191461169f57806313362b4e14611409578063152aa131146113b0578063162094c4146111b257806318160ddd1461119457806323b872dd1461117d5780632b10bde4146111245780632f745c59146110a05780633cb03ac21461103d57806342842e0e1461100f5780634f6ccce714610fb9578063604cfc9d14610f565780636352211e14610f2657806370a0823114610efb5780637116c59514610d46578063715018a614610ce95780638102fced14610c2a57806386481d4014610bce5780638da5cb5b14610ba557806395d89b4114610ac257806399e1179b146108d35780639c2806c714610899578063a22cb465146107f4578063af06b027146106c1578063b88d4fde14610654578063c15f33ae14610623578063c278e678146105c6578063c3c5a547146105a3578063c87b56dd14610503578063ce780d6414610484578063d16af21f14610448578063e52f703414610417578063e985e9c5146103c1578063f2fde38b146103385763fecfba14146101d757600080fd5b34610333576020806003193601126103335760043560058082101591826103335760085460009260005b8281106102ee575061022b610215856122b8565b946102236040519687612225565b8086526122b8565b8487019590601f190136873760009160005b84811061028757888789604051928392818401908285525180915260408401929160005b82811061027057505050500390f35b835185528695509381019392810192600101610261565b80600052600c89528260ff60016040600020015416906102d857828110156102d85786146102b8575b60010161023d565b926102d081856102ca6001948b612512565b526124eb565b9390506102b0565b634e487b7160e01b600052602160045260246000fd5b80600052600c87528560ff60016040600020015416906102d857828110156102d857841461031f575b600101610201565b9361032b6001916124eb565b949050610317565b600080fd5b34610333576020366003190112610333576103516121c0565b610359612893565b6001600160a01b039081169081156103a857600a54826001600160601b0360a01b821617600a55167f8be0079c531659141344cd1fd0a4f28419497f9722a3daafe3b4186f6b6457e0600080a3005b604051631e4fbdf760e01b815260006004820152602490fd5b34610333576040366003190112610333576103da6121c0565b6103e26121d6565b9060018060a01b03809116600052600560205260406000209116600052602052602060ff604060002054166040519015158152f35b346103335760203660031901126103335760043560058110156103335761043f602091612451565b54604051908152f35b34610333576020366003190112610333576004356000908152600260209081526040909120546001600160a01b031615155b6040519015158152f35b34610333576040366003190112610333576004356005811015610333576104a9612893565b80156104be576104bb60243591612451565b55005b60405162461bcd60e51b815260206004820152601a60248201527f43616e6e6f74206368616e6765204c31207468726573686f6c640000000000006044820152606490fd5b34610333576020366003190112610333576004356000818152600260205260409020546001600160a01b03161561056757600052600c60205261056361054f600860406000200161239f565b604051918291602083526020830190612180565b0390f35b60405162461bcd60e51b8152602060048201526014602482015273151bdad95b88191bd95cc81b9bdd08195e1a5cdd60621b6044820152606490fd5b3461033357602036600319011261033357602061047a6105c16121c0565b61284e565b34610333576020366003190112610333576004356105e2612893565b600081815260026020526040902054610605906001600160a01b03161515612483565b600052600c602052600360406000200161061f81546124eb565b9055005b346103335760203660031901126103335760043560058110156103335761054f61064f6105639261246a565b61239f565b346103335760803660031901126103335761066d6121c0565b6106756121d6565b906044356064359267ffffffffffffffff84116103335736602385011215610333576106ae6106bf943690602481600401359101612263565b926106ba83838361253c565b6128fa565b005b34610333576040366003190112610333576004356024356005811015610333576106e9612893565b60008281526002602052604090205461070c906001600160a01b03161515612483565b600481116107bf5781600052600c60205260016040600020019060ff82541660058110156102d85780821115610786576107838261076d6040947f44697a67cd9691f7f18049ea378a049c4fdc1895f73acd5748172ba405836ba5966124fa565b61077984518094612444565b6020830190612444565ba2005b60405162461bcd60e51b8152602060048201526011602482015270043616e206f6e6c79206c6576656c20757607c1b6044820152606490fd5b60405162461bcd60e51b815260206004820152600d60248201526c125b9d985b1a59081b195d995b609a1b6044820152606490fd5b346103335760403660031901126103335761080d6121c0565b60243590811515809203610333576001600160a01b031690811561088057336000526005602052604060002082600052602052604060002060ff1981541660ff83161790556040519081527f17307eab39ab6107e8899845ad3d59bd9653f200f220920489ca2b5937696c3160203392a3005b604051630b61174360e31b815260048101839052602490fd5b34610333576020366003190112610333576001600160a01b036108ba6121c0565b16600052600d6020526020604060002054604051908152f35b3461033357602080600319360112610333576108ed6121c0565b604051916108fa836121ec565b60608352600081840152600060408401526000606084015260006080840152600060a0840152600060c0840152600060e084015260606101008094015260018060a01b0380921680600052600d825260406000205490811590811591610aa6575b5015610a6957600052600c81526040600020926040519261097b846121ec565b6109848561239f565b845260ff600186015416918385019260058110156102d85783526002860154956040860196875260038101549260608701938452600482015460808801908152600583015460a08901908152826006850154169160c08a0192835260078501549460e08b019586526008016109f89061239f565b96868b019788526040519b8c9b8b8d52518c6101209c8d9101526101408d01610a2091612180565b995160408d01610a2f91612444565b5160608c01525160808b01525160a08a01525160c0890152511660e087015251908501525191601f19848303019084015261056391612180565b60405162461bcd60e51b815260048101839052601560248201527415d85b1b195d081b9bdd081c9959da5cdd195c9959605a1b6044820152606490fd5b905060008052600c83528360066040600020015416148561095b565b3461033357600036600319011261033357604051600060018260015492610ae884612365565b9283835260209485600182169182600014610b85575050600114610b28575b50610b1492500383612225565b610563604051928284938452830190612180565b84915060016000527fb10e2d527612073b26eecdfd717e6a320cf44b4afac2b0732d9fcbe2b7fa0cf6906000915b858310610b6d575050610b14935082010185610b07565b80548389018501528794508693909201918101610b56565b60ff191685820152610b1495151560051b8501019250879150610b079050565b3461033357600036600319011261033357600a546040516001600160a01b039091168152602090f35b3461033357602036600319011261033357600435600081815260026020526040902054610c05906001600160a01b03161515612483565b600052600c602052602060ff60016040600020015416610c286040518092612444565bf35b3461033357602036600319011261033357600435600052600c602052610cb26040600020610563610c5a8261239f565b9160ff600182015416906002810154906003810154600482015460058301549060018060a01b0360068501541692610c9960086007870154960161239f565b95610cbd6040519b8c9b8c6101208091528d0190612180565b9860208c0190612444565b60408a01526060890152608088015260a087015260c086015260e0850152838203610100850152612180565b3461033357600036600319011261033357610d02612893565b600a80546001600160a01b031981169091556000906001600160a01b03167f8be0079c531659141344cd1fd0a4f28419497f9722a3daafe3b4186f6b6457e08280a3005b3461033357610d543661216a565b610d5c612893565b600082815260026020526040902054610d7f906001600160a01b03161515612483565b8015610ebc57816000526020600c6020526002604060002001908154838101809111610e3357825583600052600c60205260406000209060019060018301600260ff8254169401546004846005916005881015915b610dfb575b8a600080516020612a4383398151915260408c8c5482519182526020820152a2005b816102d85787811115610eb757828110156102d8578a610e1a82612451565b54851015610e4957508015610e33576000190186610dd4565b634e487b7160e01b600052601160045260246000fd5b956040999750899450600080516020612a438339815191529a989350610ea99250610e95827f44697a67cd9691f7f18049ea378a049c4fdc1895f73acd5748172ba405836ba5976124fa565b610ea185518095612444565b830190612444565ba29181938680808080610dd9565b610dd9565b60405162461bcd60e51b8152602060048201526017602482015276506f696e7473206d75737420626520706f73697469766560481b6044820152606490fd5b34610333576020366003190112610333576020610f1e610f196121c0565b612815565b604051908152f35b34610333576020366003190112610333576020610f446004356128bf565b6040516001600160a01b039091168152f35b3461033357602036600319011261033357600435600081815260026020526040902054610f8d906001600160a01b03161515612483565b600052600c60205260ff6001604060002001541660058110156102d85760209060036040519110158152f35b3461033357602036600319011261033357600435600854811015610ff057610fe26020916127de565b90546040519160031b1c8152f35b6044906040519063295f44f760e21b8252600060048301526024820152fd5b34610333576106bf61102036612330565b906040519261102e84612209565b600084526106ba83838361253c565b3461033357602036600319011261033357600435600081815260026020526040902054611074906001600160a01b03161515612483565b600052600c60205260ff6001604060002001541660058110156102d85760209060046040519110158152f35b34610333576040366003190112610333576110b96121c0565b602435906110c681612815565b8210156110f95760018060a01b031660005260066020526040600020906000526020526020604060002054604051908152f35b60405163295f44f760e21b81526001600160a01b039190911660048201526024810191909152604490fd5b346103335760203660031901126103335760043560008181526002602052604090205461115b906001600160a01b03161515612483565b600052600c60205261056361054f61064f60ff6001604060002001541661246a565b34610333576106bf61118e36612330565b9161253c565b34610333576000366003190112610333576020600854604051908152f35b346103335760403660031901126103335760043567ffffffffffffffff602435818111610333576111e790369060040161229a565b916001600160a01b03806111fa836128bf565b1690813314918215611389575b508115611375575b501561133f57600052602090600c825260086040600020019183519182116113295761123b8354612365565b601f81116112e3575b5080601f83116001146112805750819293600092611275575b5050600019600383901b1c191660019190911b179055005b01519050838061125d565b90601f198316948460005282600020926000905b8782106112cb5750508360019596106112b2575b505050811b019055005b015160001960f88460031b161c191690558380806112a8565b80600185968294968601518155019501930190611294565b8360005281600020601f840160051c81019183851061131f575b601f0160051c01905b8181106113135750611244565b60008155600101611306565b90915081906112fd565b634e487b7160e01b600052604160045260246000fd5b60405162461bcd60e51b815260206004820152600e60248201526d139bdd08185d5d1a1bdc9a5e995960921b6044820152606490fd5b339150611381836124c6565b16148461120f565b909150600052600560205260406000203360005260205260ff604060002054169085611207565b34610333576020366003190112610333576004356113cc612893565b6000818152600260205260409020546113ef906001600160a01b03161515612483565b600052600c602052600460406000200161061f81546124eb565b346103335760403660031901126103335767ffffffffffffffff6004358181116103335761143b9036906004016122d0565b6024918235908111610333576114559036906004016122d0565b61145d612893565b81518151036116695760005b82518110156106bf5761147c8184612512565b516114878284612512565b51611490612893565b6000828152600260205260409020546114b3906001600160a01b03161515612483565b801561162b5781600052600c6020908082526002806040600020019182548581018091116116165783558560005283526040600020906001908183019060ff82541693015460048360059182871015915b611539575b505050505050506001949392600080516020612a438339815191529260409254908351928352820152a201611469565b816115fc578681111561161157828110156115fc5761155781612451565b5484101561158457801561156f576000190185611504565b8e634e487b7160e01b60005260116004526000fd5b600080516020612a438339815191529895508a99969060019c9b94507f44697a67cd9691f7f18049ea378a049c4fdc1895f73acd5748172ba405836ba5935060409895899350906115d8816115ed936124fa565b6115e484518094612444565b87830190612444565ba2928295969782958d80611509565b8e634e487b7160e01b60005260216004526000fd5b611509565b8a634e487b7160e01b60005260116004526000fd5b60405162461bcd60e51b81526020600482015260178188015276506f696e7473206d75737420626520706f73697469766560481b6044820152606490fd5b60405162461bcd60e51b815260206004820152600f818501526e098cadccee8d040dad2e6dac2e8c6d608b1b6044820152606490fd5b346103335760403660031901126103335760043567ffffffffffffffff8111610333576116d090369060040161229a565b60243567ffffffffffffffff8111610333576116f090369060040161229a565b90805115611e2d576020815111611df45761170a3361284e565b611daf57600b549061171b826124eb565b600b5560405161172a81612209565b600081523315611d96576000838152600260205260409020546001600160a01b03168015908115611d5f575b3360005260036020526040600020600181540190558460005260026020526040600020336001600160601b0360a01b8254161790558433827fddf252ad1be2c89b69c2b068fc378daa952ba7f163c4a11628f55a4df523b3ef600080a48115611cd85760085485600052600960205280604060002055600160401b81101561132957856117ec82600161180594016008556127de565b90919082549060031b91821b91600019901b1916179055565b3303611c8c575b15611c7357333b611b5d575b5060405192611826846121ec565b81845260006020850152600060408501526000606085015260006080850152603260a08501523360c08501524260e085015261010084015281600052600c6020526040600020835180519067ffffffffffffffff821161132957819061188c8454612365565b601f8111611b0d575b50602090601f8311600114611aa157600092611a96575b50508160011b916000199060031b1c19161781555b602084015160058110156102d857816118e2600892600161010095016124fa565b60408601516002820155606086015160038201556080860151600482015560a086015160058201556006810160018060a01b0360c0880151166001600160601b0360a01b82541617905560e086015160078201550193015192835167ffffffffffffffff8111611329576119568254612365565b601f8111611a4e575b50806020958690601f83116001146119ea576000926119df575b50508160011b916000199060031b1c19161790555b33600052600d835281604060002055817ff173e3735c89c221cb3075fb699f18ca7cc9aa96ae688a8970d5b340bdb4783d604051858152806119d4339588830190612180565b0390a3604051908152f35b015190508680611979565b60008581528881209350601f198516905b818110611a375750908460019594939210611a1e575b505050811b01905561198e565b015160001960f88460031b161c19169055868080611a11565b9293896001819287860151815501950193016119fb565b826000526020600020601f830160051c81019160208410611a8c575b601f0160051c01905b818110611a80575061195f565b60008155600101611a73565b9091508190611a6a565b0151905086806118ac565b9250836000526020600020906000935b601f1984168510611af2576001945083601f19811610611ad9575b505050811b0181556118c1565b015160001960f88460031b161c19169055868080611acc565b81810151835560209485019460019093019290910190611ab1565b909150836000526020600020601f840160051c810160208510611b56575b90849392915b601f830160051c82018110611b47575050611895565b60008155859450600101611b31565b5080611b2b565b60405160208180611b97630a85bd0160e11b9586835233600484015260006024840152886044840152608060648401526084830190612180565b03816000335af160009181611c2e575b50611c01573d15611bfa573d611bbc81612247565b90611bca6040519283612225565b81523d6000602083013e5b80519081611bf557604051633250574960e11b8152336004820152602490fd5b602001fd5b6060611bd5565b6001600160e01b03191603611c165783611818565b604051633250574960e11b8152336004820152602490fd5b9091506020813d602011611c6b575b81611c4a60209383612225565b8101031261033357516001600160e01b031981168103610333579086611ba7565b3d9150611c3d565b6040516339e3563760e11b815260006004820152602490fd5b611c9533612815565b80600019810111610e335733600052600660205260406000206000198201600052602052846040600020558460005260076020526000190160406000205561180c565b33811461180557611ce881612815565b856000526007602052604060002054818103611d2c575b50856000526000604081205581600052600660205260406000209060005260205260006040812055611805565b60008381526006602090815260408083208584528252808320548484528184208190558352600790915290205587611cff565b600085815260046020526040902080546001600160a01b031916905580600052600360205260406000206000198154019055611756565b604051633250574960e11b815260006004820152602490fd5b60405162461bcd60e51b815260206004820152601960248201527f57616c6c657420616c72656164792072656769737465726564000000000000006044820152606490fd5b60405162461bcd60e51b8152602060048201526011602482015270557365726e616d6520746f6f206c6f6e6760781b6044820152606490fd5b60405162461bcd60e51b815260206004820152601860248201527f557365726e616d652063616e6e6f7420626520656d70747900000000000000006044820152606490fd5b3461033357604036600319011261033357611e8b6121c0565b602435611e97816128bf565b33151580611f46575b80611f19575b611f01576001600160a01b039283169282918491167f8c5be1e5ebec7d5bd14f71427d1e84f3dd0314c0f7b2291e5b200ac8c7c3b925600080a4600090815260046020526040902080546001600160a01b0319169091179055005b60405163a9fbf51f60e01b8152336004820152602490fd5b5060018060a01b038116600052600560205260406000203360005260205260ff6040600020541615611ea6565b506001600160a01b038116331415611ea0565b34610333576020366003190112610333576020610f446004356124c6565b3461033357600036600319011261033357604051600080549082611f9a83612365565b9182825260209360019085600182169182600014610b85575050600114611fc85750610b1492500383612225565b6000808052859250907f290decd9548b62a8d60345a988386fc84ba6bc95484008f6362f93160ef3e5635b85831061200a575050610b14935082010185610b07565b80548389018501528794508693909201918101611ff3565b34610333576120303661216a565b612038612893565b60008281526002602052604090205461205b906001600160a01b03161515612483565b606481116120aa5760407fd9f66501c000653403d74ddfa62a75c8dd44cc05d910ee81bf1d852262dd5fa19183600052600c6020526005826000200190808254925582519182526020820152a2005b60405162461bcd60e51b8152602060048201526013602482015272053636f7265206d75737420626520302d31303606c1b6044820152606490fd5b34610333576020366003190112610333576004359063ffffffff60e01b82168092036103335760209163780e9d6360e01b8114908115612127575b5015158152f35b6380ac58cd60e01b811491508115612159575b8115612148575b5083612120565b6301ffc9a760e01b14905083612141565b635b5e139f60e01b8114915061213a565b6040906003190112610333576004359060243590565b919082519283825260005b8481106121ac575050826000602080949584010152601f8019910116010190565b60208183018101518483018201520161218b565b600435906001600160a01b038216820361033357565b602435906001600160a01b038216820361033357565b610120810190811067ffffffffffffffff82111761132957604052565b6020810190811067ffffffffffffffff82111761132957604052565b90601f8019910116810190811067ffffffffffffffff82111761132957604052565b67ffffffffffffffff811161132957601f01601f191660200190565b92919261226f82612247565b9161227d6040519384612225565b829481845281830111610333578281602093846000960137010152565b9080601f83011215610333578160206122b593359101612263565b90565b67ffffffffffffffff81116113295760051b60200190565b9080601f830112156103335760209082356122ea816122b8565b936122f86040519586612225565b81855260208086019260051b82010192831161033357602001905b828210612321575050505090565b81358152908301908301612313565b6060906003190112610333576001600160a01b0390600435828116810361033357916024359081168103610333579060443590565b90600182811c92168015612395575b602083101461237f57565b634e487b7160e01b600052602260045260246000fd5b91607f1691612374565b906040519182600082546123b281612365565b9081845260209460019160018116908160001461242257506001146123e3575b5050506123e192500383612225565b565b600090815285812095935091905b81831061240a5750506123e193508201013880806123d2565b855488840185015294850194879450918301916123f1565b925050506123e194925060ff191682840152151560051b8201013880806123d2565b9060058210156102d85752565b60058110156102d857600052600e602052604060002090565b60058110156102d857600052600f602052604060002090565b1561248a57565b60405162461bcd60e51b8152602060048201526014602482015273121d5b585b88191bd95cc81b9bdd08195e1a5cdd60621b6044820152606490fd5b6124cf816128bf565b506000908152600460205260409020546001600160a01b031690565b6000198114610e335760010190565b9060058110156102d85760ff80198354169116179055565b80518210156125265760209160051b010190565b634e487b7160e01b600052603260045260246000fd5b6001600160a01b0382811693918415611d9657600094838652602095600287526040968488832054169633151580612750575b508715801561271d575b84845260038352898420805460010190558784526002835289842080546001600160a01b0319168617905587858a7fddf252ad1be2c89b69c2b068fc378daa952ba7f163c4a11628f55a4df523b3ef8780a4156126a15760085487845260098352808a852055600160401b81101561268d57876117ec8260016125ff94016008556127de565b83880361263b575b50505050169283830361261a5750505050565b6064945051926364283d7b60e01b8452600484015260248301526044820152fd5b61264490612815565b6000198101939084116126795782916007918a9452600681528383208584528152878484205587835252205538808080612607565b634e487b7160e01b83526011600452602483fd5b634e487b7160e01b84526041600452602484fd5b8784146125ff576126b188612815565b87845260078352898420548181036126e6575b50878452838a81205588845260068352898420908452825282898120556125ff565b898552600684528a852082865284528a8520548a8652600685528b86208287528552808c8720558552600784528a852055386126c4565b600088815260046020526040902080546001600160a01b0319169055888452600383528984208054600019019055612579565b8061279d575b15612761573861256f565b88878961277e576024915190637e27328960e01b82526004820152fd5b905163177e802f60e01b81523360048201526024810191909152604490fd5b5033881480156127c2575b8061275657508683526004825233868a8520541614612756565b5087835260058252888320338452825260ff89842054166127a8565b6008548110156125265760086000527ff3f7a9fe364faab93b216da50a3214154f22a0a2b415b23a84c8169e8b636ee30190600090565b6001600160a01b0316801561283557600052600360205260406000205490565b6040516322718ad960e21b815260006004820152602490fd5b6001600160a01b039081166000818152600d6020526040902054600b5491929181101561288b57600052600c602052600660406000200154161490565b505050600090565b600a546001600160a01b031633036128a757565b60405163118cdaa760e01b8152336004820152602490fd5b6000818152600260205260409020546001600160a01b03169081156128e2575090565b60249060405190637e27328960e01b82526004820152fd5b813b612907575b50505050565b604051630a85bd0160e11b8082523360048301526001600160a01b03928316602483015260448201949094526080606482015260209592909116939092908390612955906084830190612180565b039285816000958187895af18491816129fe575b506129c9575050503d6000146129c1573d61298381612247565b906129916040519283612225565b81528091843d92013e5b805192836129bc57604051633250574960e11b815260048101849052602490fd5b019050fd5b50606061299b565b919450915063ffffffff60e01b16036129e6575038808080612901565b60249060405190633250574960e11b82526004820152fd5b9091508681813d8311612a3b575b612a168183612225565b81010312612a3757516001600160e01b031981168103612a37579038612969565b8480fd5b503d612a0c56fe0cca412f02f8a51d97c69da18503af208f21c3eca5bbbfa87a453ccdcef459d7a26469706673582212201c509f6a6dec2580c02f5acdee54cb55d21ba44607a6f0b11821e881ca8154ae64736f6c63430008180033",
  "linkReferences": {},
  "deployedLinkReferences": {}
}