{
  "_format": "hh-sol-artifact-1",
  "contractName": "LiabilityPreset",
  "sourceName": "contracts/LiabilityPreset.sol",
  "abi": [
    {
      "inputs": [],
      "stateMutability": "nonpayable",
      "type": "constructor"
    },
    {
      "inputs": [
        {
          "internalType": "address",
          "name": "owner",
          "type": "address"
        }
      ],
      "name": "OwnableInvalidOwner",
      "type": "error"
    },
    {
      "inputs": [
        {
          "internalType": "address",
          "name": "account",
          "type": "address"
        }
      ],
      "name": "OwnableUnauthorizedAccount",
      "type": "error"
    },
    {
      "inputs": [],
      "name": "ReentrancyGuardReentrantCall",
      "type": "error"
    },
    {
      "anonymous": false,
      "inputs": [
        {
          "indexed": true,
          "internalType": "uint256",
          "name": "taskId",
          "type": "uint256"
        },
        {
          "indexed": true,
          "internalType": "address",
          "name": "party",
          "type": "address"
        },
        {
          "indexed": false,
          "internalType": "uint256",
          "name": "amount",
          "type": "uint256"
        }
      ],
      "name": "LiabilityDeposited",
      "type": "event"
    },
    {
      "anonymous": false,
      "inputs": [
        {
          "indexed": true,
          "internalType": "uint256",
          "name": "taskId",
          "type": "uint256"
        },
        {
          "indexed": true,
          "internalType": "address",
          "name": "party",
          "type": "address"
        },
        {
          "indexed": false,
          "internalType": "uint256",
          "name": "amount",
          "type": "uint256"
        }
      ],
      "name": "LiabilityReleased",
      "type": "event"
    },
    {
      "anonymous": false,
      "inputs": [
        {
          "indexed": true,
          "internalType": "address",
          "name": "previousOwner",
          "type": "address"
        },
        {
          "indexed": true,
          "internalType": "address",
          "name": "newOwner",
          "type": "address"
        }
      ],
      "name": "OwnershipTransferred",
      "type": "event"
    },
    {
      "anonymous": false,
      "inputs": [
        {
          "indexed": true,
          "internalType": "uint256",
          "name": "taskId",
          "type": "uint256"
        },
        {
          "indexed": true,
          "internalType": "bytes32",
          "name": "presetId",
          "type": "bytes32"
        },
        {
          "indexed": true,
          "internalType": "address",
          "name": "publisher",
          "type": "address"
        }
      ],
      "name": "PresetApplied",
      "type": "event"
    },
    {
      "anonymous": false,
      "inputs": [
        {
          "indexed": true,
          "internalType": "bytes32",
          "name": "presetId",
          "type": "bytes32"
        },
        {
          "indexed": false,
          "internalType": "enum LiabilityPreset.LiabilityModel",
          "name": "model",
          "type": "uint8"
        },
        {
          "indexed": false,
          "internalType": "uint256",
          "name": "publisherLiability",
          "type": "uint256"
        },
        {
          "indexed": false,
          "internalType": "uint256",
          "name": "workerLiability",
          "type": "uint256"
        }
      ],
      "name": "PresetCreated",
      "type": "event"
    },
    {
      "anonymous": false,
      "inputs": [
        {
          "indexed": true,
          "internalType": "address",
          "name": "registry",
          "type": "address"
        }
      ],
      "name": "TaskRegistryAuthorized",
      "type": "event"
    },
    {
      "inputs": [
        {
          "internalType": "uint256",
          "name": "_taskId",
          "type": "uint256"
        },
        {
          "internalType": "bytes32",
          "name": "_presetId",
          "type": "bytes32"
        },
        {
          "internalType": "address",
          "name": "_publisher",
          "type": "address"
        }
      ],
      "name": "applyPreset",
      "outputs": [],
      "stateMutability": "payable",
      "type": "function"
    },
    {
      "inputs": [
        {
          "internalType": "address",
          "name": "_registry",
          "type": "address"
        }
      ],
      "name": "authorizeTaskRegistry",
      "outputs": [],
      "stateMutability": "nonpayable",
      "type": "function"
    },
    {
      "inputs": [
        {
          "internalType": "address",
          "name": "",
          "type": "address"
        }
      ],
      "name": "authorizedTaskRegistries",
      "outputs": [
        {
          "internalType": "bool",
          "name": "",
          "type": "bool"
        }
      ],
      "stateMutability": "view",
      "type": "function"
    },
    {
      "inputs": [
        {
          "internalType": "bytes32",
          "name": "_presetId",
          "type": "bytes32"
        },
        {
          "internalType": "uint256",
          "name": "_publisherLiability",
          "type": "uint256"
        },
        {
          "internalType": "uint256",
          "name": "_workerLiability",
          "type": "uint256"
        },
        {
          "internalType": "uint256",
          "name": "_disputeWindow",
          "type": "uint256"
        }
      ],
      "name": "createBondedPreset",
      "outputs": [],
      "stateMutability": "nonpayable",
      "type": "function"
    },
    {
      "inputs": [
        {
          "internalType": "bytes32",
          "name": "_presetId",
          "type": "bytes32"
        },
        {
          "internalType": "uint256",
          "name": "_publisherLiability",
          "type": "uint256"
        },
        {
          "internalType": "uint256",
          "name": "_insurancePremium",
          "type": "uint256"
        },
        {
          "internalType": "address",
          "name": "_insuranceProvider",
          "type": "address"
        },
        {
          "internalType": "uint256",
          "name": "_disputeWindow",
          "type": "uint256"
        }
      ],
      "name": "createInsuredPreset",
      "outputs": [],
      "stateMutability": "nonpayable",
      "type": "function"
    },
    {
      "inputs": [
        {
          "internalType": "bytes32",
          "name": "_presetId",
          "type": "bytes32"
        },
        {
          "internalType": "uint256",
          "name": "_publisherLiability",
          "type": "uint256"
        },
        {
          "internalType": "uint256",
          "name": "_workerLiability",
          "type": "uint256"
        },
        {
          "internalType": "uint256",
          "name": "_disputeWindow",
          "type": "uint256"
        }
      ],
      "name": "createLimitedPreset",
      "outputs": [],
      "stateMutability": "nonpayable",
      "type": "function"
    },
    {
      "inputs": [
        {
          "internalType": "bytes32",
          "name": "_presetId",
          "type": "bytes32"
        },
        {
          "internalType": "uint256",
          "name": "_disputeWindow",
          "type": "uint256"
        }
      ],
      "name": "createStandardPreset",
      "outputs": [],
      "stateMutability": "nonpayable",
      "type": "function"
    },
    {
      "inputs": [
        {
          "internalType": "uint256",
          "name": "_taskId",
          "type": "uint256"
        }
      ],
      "name": "depositWorkerLiability",
      "outputs": [],
      "stateMutability": "payable",
      "type": "function"
    },
    {
      "inputs": [
        {
          "internalType": "uint256",
          "name": "",
          "type": "uint256"
        },
        {
          "internalType": "address",
          "name": "",
          "type": "address"
        }
      ],
      "name": "escrowDeposits",
      "outputs": [
        {
          "internalType": "uint256",
          "name": "",
          "type": "uint256"
        }
      ],
      "stateMutability": "view",
      "type": "function"
    },
    {
      "inputs": [
        {
          "internalType": "uint256",
          "name": "_taskId",
          "type": "uint256"
        },
        {
          "internalType": "address",
          "name": "_party",
          "type": "address"
        }
      ],
      "name": "getEscrowBalance",
      "outputs": [
        {
          "internalType": "uint256",
          "name": "",
          "type": "uint256"
        }
      ],
      "stateMutability": "view",
      "type": "function"
    },
    {
      "inputs": [
        {
          "internalType": "uint256",
          "name": "_taskId",
          "type": "uint256"
        }
      ],
      "name": "getTaskPreset",
      "outputs": [
        {
          "components": [
            {
              "internalType": "enum LiabilityPreset.LiabilityModel",
              "name": "model",
              "type": "uint8"
            },
            {
              "internalType": "uint256",
              "name": "publisherLiability",
              "type": "uint256"
            },
            {
              "internalType": "uint256",
              "name": "workerLiability",
              "type": "uint256"
            },
            {
              "internalType": "uint256",
              "name": "insurancePremium",
              "type": "uint256"
            },
            {
              "internalType": "address",
              "name": "insuranceProvider",
              "type": "address"
            },
            {
              "internalType": "uint256",
              "name": "disputeWindow",
              "type": "uint256"
            },
            {
              "internalType": "bool",
              "name": "enabled",
              "type": "bool"
            }
          ],
          "internalType": "struct LiabilityPreset.PresetConfig",
          "name": "",
          "type": "tuple"
        }
      ],
      "stateMutability": "view",
      "type": "function"
    },
    {
      "inputs": [],
      "name": "owner",
      "outputs": [
        {
          "internalType": "address",
          "name": "",
          "type": "address"
        }
      ],
      "stateMutability": "view",
      "type": "function"
    },
    {
      "inputs": [
        {
          "internalType": "bytes32",
          "name": "",
          "type": "bytes32"
        }
      ],
      "name": "presets",
      "outputs": [
        {
          "internalType": "enum LiabilityPreset.LiabilityModel",
          "name": "model",
          "type": "uint8"
        },
        {
          "internalType": "uint256",
          "name": "publisherLiability",
          "type": "uint256"
        },
        {
          "internalType": "uint256",
          "name": "workerLiability",
          "type": "uint256"
        },
        {
          "internalType": "uint256",
          "name": "insurancePremium",
          "type": "uint256"
        },
        {
          "internalType": "address",
          "name": "insuranceProvider",
          "type": "address"
        },
        {
          "internalType": "uint256",
          "name": "disputeWindow",
          "type": "uint256"
        },
        {
          "internalType": "bool",
          "name": "enabled",
          "type": "bool"
        }
      ],
      "stateMutability": "view",
      "type": "function"
    },
    {
      "inputs": [
        {
          "internalType": "uint256",
          "name": "_taskId",
          "type": "uint256"
        },
        {
          "internalType": "address",
          "name": "_publisher",
          "type": "address"
        },
        {
          "internalType": "address",
          "name": "_worker",
          "type": "address"
        }
      ],
      "name": "releaseLiability",
      "outputs": [],
      "stateMutability": "nonpayable",
      "type": "function"
    },
    {
      "inputs": [],
      "name": "renounceOwnership",
      "outputs": [],
      "stateMutability": "nonpayable",
      "type": "function"
    },
    {
      "inputs": [
        {
          "internalType": "uint256",
          "name": "_taskId",
          "type": "uint256"
        }
      ],
      "name": "requiresWorkerDeposit",
      "outputs": [
        {
          "internalType": "bool",
          "name": "",
          "type": "bool"
        },
        {
          "internalType": "uint256",
          "name": "",
          "type": "uint256"
        }
      ],
      "stateMutability": "view",
      "type": "function"
    },
    {
      "inputs": [
        {
          "internalType": "uint256",
          "name": "_taskId",
          "type": "uint256"
        },
        {
          "internalType": "address",
          "name": "_guiltyParty",
          "type": "address"
        },
        {
          "internalType": "address",
          "name": "_recipient",
          "type": "address"
        }
      ],
      "name": "slashLiability",
      "outputs": [],
      "stateMutability": "nonpayable",
      "type": "function"
    },
    {
      "inputs": [
        {
          "internalType": "uint256",
          "name": "",
          "type": "uint256"
        }
      ],
      "name": "taskPresets",
      "outputs": [
        {
          "internalType": "bytes32",
          "name": "",
          "type": "bytes32"
        }
      ],
      "stateMutability": "view",
      "type": "function"
    },
    {
      "inputs": [
        {
          "internalType": "address",
          "name": "newOwner",
          "type": "address"
        }
      ],
      "name": "transferOwnership",
      "outputs": [],
      "stateMutability": "nonpayable",
      "type": "function"
    }
  ],
  "bytecode": "0x6080806040523461007e5733156100685760008054336001600160a01b03198216811783556040519290916001600160a01b0316907f8be0079c531659141344cd1fd0a4f28419497f9722a3daafe3b4186f6b6457e09080a36001805561156c90816100848239f35b631e4fbdf760e01b815260006004820152602490fd5b600080fdfe6080604081815260048036101561001557600080fd5b600092833560e01c908162a95c0c1461104f5750806302b9e3ed14610fd15780630590657c14610fa5578063212ed42a14610e165780632b568f3714610cf757806348249d9414610c8e57806349a7027e14610c4b57806363c7fd5314610a5f578063715018a614610bee5780638da5cb5b14610bc65780638e7318b614610a9f57806395021e2914610a5f578063b7073abe146108f1578063c4a33cfe146105c3578063c64163cc1461044c578063c9fbbf8c146102e6578063d6a3c8fc146101a3578063df82b8351461017c5763f2fde38b146100f357600080fd5b346101785760203660031901126101785761010c61108a565b906101156114c7565b6001600160a01b0391821692831561016257505082546001600160a01b0319811683178455167f8be0079c531659141344cd1fd0a4f28419497f9722a3daafe3b4186f6b6457e08380a380f35b51631e4fbdf760e01b8152908101849052602490fd5b8280fd5b50346101785760203660031901126101785760209282913581526003845220549051908152f35b508290346102e2576101b4366110de565b90338552602091600583526101ce60ff8888205416611242565b6101d66114f3565b838652600383526101eb878720541515611202565b8386528483528686206001600160a01b0392831680885290845287872054959086156102a957858852818552888820908852845286888120558680808089865af161023461128e565b501561026e57507fa099e19db3826fa2de550ffeb8f51b7b8fcb5ad67965d3e50236435c055de65993949596519586521693a36001805580f35b875162461bcd60e51b8152908101849052601560248201527414db185cda081d1c985b9cd9995c8819985a5b1959605a1b6044820152606490fd5b885162461bcd60e51b8152808301869052601360248201527209cde40c8cae0dee6d2e840e8de40e6d8c2e6d606b1b6044820152606490fd5b5080fd5b506020918260031936011261044857813591828552600384528185205461030e811515611202565b85526002845281852060ff8154168281101561043557600303610401576002015434106103c05782855280845281852033865284528185205461038b57907fe9974cc23a6963041d166e57305aaa2b22e6d5e4d8d532e7f60f9cff126f9a709183865284528085203386528452348186205551923484523393a380f35b83606492519162461bcd60e51b83528201526011602482015270105b1c9958591e4819195c1bdcda5d1959607a1b6044820152fd5b83606492519162461bcd60e51b8352820152601d60248201527f496e73756666696369656e7420776f726b6572206c696162696c6974790000006044820152fd5b5083606492519162461bcd60e51b8352820152600f60248201526e4e6f7420626f6e646564206d6f646560881b6044820152fd5b634e487b7160e01b875260218352602487fd5b8380fd5b50346101785761045b36611113565b90929491936104686114c7565b858752600260205261048360ff6006858a2001541615611188565b84158015906105ba575b156105825761049a6111cc565b9160018352602083019186835284840190868252606085018a815260808601928b845260a0870194855260c0870195600187528b8d526002602052888d2097518481101561056f57936000805160206115178339815191529b99979361055c979360609c9a979360069760ff80198b5416911617895551600189015551600288015551600387015585019060018060a01b039051166001600160601b0360a01b82541617905551600584015551151591019060ff801983541691151516179055565b805192600184526020840152820152a280f35b634e487b7160e01b8e526021855260248efd5b606490602084519162461bcd60e51b835282015260126024820152714d75737420736574206c696162696c69747960701b6044820152fd5b5083151561048d565b50606036600319011261017857803560249182359260449081359560018060a01b0390818816978881036108ed57338a526020926005845261060a60ff848d205416611242565b888b526002845260ff6006848d20015416156108b957878b5260038452828b205461087f57888b5260028452828b2090600182019182549260ff8254168a81101561086d57600214610846575b833410610805578a8e888f938f848452600383528a842055548d8a826107c3575b5050505050505060ff815416898110156107b1579060028e939214806107a4575b61073b575b5050508034116106d4575b8a8a8a8a7ff68e6774ccbc493f3ffe04dd099f0593fa233216a26cde1846030c62cec5de928480a480f35b340390348211610729578a80809381935af16106ee61128e565b50156106fb5780806106a9565b5162461bcd60e51b815293840152600d908301526c1499599d5b990819985a5b1959609a1b90820152606490fd5b634e487b7160e01b8b5260118752848bfd5b8281600382948d8495015416910154905af161075561128e565b5015610763578a388061069e565b825162461bcd60e51b81528088018590526018818701527f496e737572616e6365207061796d656e74206661696c6564000000000000000081880152606490fd5b5060038101541515610699565b634e487b7160e01b8e5260218a52878efd5b7fe9974cc23a6963041d166e57305aaa2b22e6d5e4d8d532e7f60f9cff126f9a709483928552818120888252855220558951908152a38b8a8e88388d8a610678565b855162461bcd60e51b8152808b01889052601e818a01527f496e73756666696369656e74206c696162696c697479206465706f7369740000818b0152606490fd5b926003820154810180911161085b5792610657565b634e487b7160e01b8e5260118a52878efd5b634e487b7160e01b8f5260218b52888ffd5b825162461bcd60e51b815280880185905260168187015275141c995cd95d08185b1c9958591e48185c1c1b1a595960521b81880152606490fd5b825162461bcd60e51b81528088018590526010818701526f141c995cd95d081b9bdd08199bdd5b9960821b81880152606490fd5b8980fd5b50346101785761090036611113565b909294919361090d6114c7565b858752600260205261092860ff6006858a2001541615611188565b84151580610a56575b15610a135761093e6111cc565b9160038352602083019186835284840190868252606085018a815260808601928b845260a0870194855260c0870195600187528b8d526002602052888d2097518481101561056f57936000805160206115178339815191529b999793610a00979360609c9a979360069760ff80198b5416911617895551600189015551600288015551600387015585019060018060a01b039051166001600160601b0360a01b82541617905551600584015551151591019060ff801983541691151516179055565b805192600384526020840152820152a280f35b606490602084519162461bcd60e51b8352820152601760248201527f426f74682070617274696573206d757374207374616b650000000000000000006044820152fd5b50831515610931565b50346101785781600319360112610178576020928291610a7d6110a5565b813583529085528282206001600160a01b039091168252845220549051908152f35b509190346102e257806003193601126102e257823590610abd6114c7565b8183526002602052610ad860ff600683862001541615611188565b610ae06111cc565b8381526020810184815282820185815260608301868152608084019087825260a0850192602435845260c086019460018652888a526002602052878a2096518b811015610bb357938b6006946000805160206115178339815191529a9894610b9f989460609b9860ff80198b5416911617895551600189015551600288015551600387015585019060018060a01b039051166001600160601b0360a01b82541617905551600584015551151591019060ff801983541691151516179055565b84815191818352816020840152820152a280f35b634e487b7160e01b8b5260218c5260248bfd5b5050346102e257816003193601126102e257905490516001600160a01b039091168152602090f35b8334610c485780600319360112610c4857610c076114c7565b80546001600160a01b03198116825581906001600160a01b03167f8be0079c531659141344cd1fd0a4f28419497f9722a3daafe3b4186f6b6457e08280a380f35b80fd5b5050346102e257610c7a610c879160ff610c64366110de565b9491929093338852600560205287205416611242565b610c826114f3565b6112d9565b6001805580f35b5050346102e25760203660031901126102e257610ca961108a565b610cb16114c7565b6001600160a01b03168083526005602052908220805460ff191660011790557f6ae1725cf80be22f8ed86254cccadd3c179ddc1922591dcf7f52cd6f19af242c8280a280f35b509190346102e25760209081600319360112610178578260c0610d186111cc565b828152828582015282848201528260608201528260808201528260a08201520152833583526003825280832054610d50811515611202565b83526002825280832090610d626111cc565b9260ff8354169486861015610e0357509060e0959185855260018401549181860192835260028501548187019081526003860154926060880193845260018060a01b03809688015416946080890195865260c060ff600660058b01549a60a08d019b8c5201541699019815158952610ddc8451809b6110bb565b51908901525190870152516060860152511660808401525160a083015251151560c0820152f35b634e487b7160e01b815260218752602490fd5b509190346102e25760a03660031901126102e257823590602435906001600160a01b0360643581811690819003610fa157610e4f6114c7565b8486526002602052610e6a60ff600685892001541615611188565b8015610f5e57610e786111cc565b91600283526020830191858352848401918883526060850160443581526080860192835260a0860193608435855260c0870195600187528a8c526002602052888c2097518d811015610f4a57946000805160206115178339815191529a98948e6006958f9a9560609d9a95610f379a60ff80198c54169116178a555160018a015551600289015551600388015586019151166001600160601b0360a01b82541617905551600584015551151591019060ff801983541691151516179055565b805192600284526020840152820152a280f35b50634e487b7160e01b8c5260218d5260248cfd5b825162461bcd60e51b8152602081890152601a60248201527f496e76616c696420696e737572616e63652070726f76696465720000000000006044820152606490fd5b8580fd5b508234610c48576020366003190112610c485750610fc39035611131565b825191151582526020820152f35b5034610178576020366003190112610178578160e0938235815260026020522060ff81541692600182015492600283015460038401549160018060a01b0390850154169260ff60066005870154960154169561102f825180996110bb565b60208801528601526060850152608084015260a0830152151560c0820152f35b849084346101785760203660031901126101785760209260ff91906001600160a01b0361107a61108a565b1681526005855220541615158152f35b600435906001600160a01b03821682036110a057565b600080fd5b602435906001600160a01b03821682036110a057565b9060048210156110c85752565b634e487b7160e01b600052602160045260246000fd5b60609060031901126110a057600435906001600160a01b039060243582811681036110a0579160443590811681036110a05790565b60809060031901126110a05760043590602435906044359060643590565b90600091825260036020526040822054801561118357825260026020526040822060ff81541692600484101561116f57506002600391015492149190565b634e487b7160e01b81526021600452602490fd5b508190565b1561118f57565b60405162461bcd60e51b815260206004820152601560248201527450726573657420616c72656164792065786973747360581b6044820152606490fd5b6040519060e0820182811067ffffffffffffffff8211176111ec57604052565b634e487b7160e01b600052604160045260246000fd5b1561120957565b60405162461bcd60e51b8152602060048201526011602482015270139bc81c1c995cd95d08185c1c1b1a5959607a1b6044820152606490fd5b1561124957565b60405162461bcd60e51b815260206004820152601760248201527f4e6f7420617574686f72697a65642072656769737472790000000000000000006044820152606490fd5b3d156112d45767ffffffffffffffff903d8281116111ec5760405192601f8201601f19908116603f01168401908111848210176111ec5760405282523d6000602084013e565b606090565b90916000908282526020916003835260409081812054801561134b5781526002845281812085825260048086528383206001600160a01b03898116808652918852858520549099929493928490868a8c85611421575b5050505050505060ff9054168281101561140e57600314611354575b50505050505050565b858152818552828120968416968782528552828120549384611377575b5061134b565b81808681938a8352868a528783208c84528a5282888120555af161139961128e565b50156113d55750519081527fa099e19db3826fa2de550ffeb8f51b7b8fcb5ad67965d3e50236435c055de6599190a33880808080808080611371565b83606492519162461bcd60e51b8352820152601560248201527415dbdc9ad95c881c995b19585cd94819985a5b1959605a1b6044820152fd5b506021602492634e487b7160e01b835252fd5b84938493849388938552528d8c84209089855252828c8120555af161144461128e565b50156114845790887fa099e19db3826fa2de550ffeb8f51b7b8fcb5ad67965d3e50236435c055de6598960ff95948951908152a390388381868a8c61132f565b855162461bcd60e51b8152808601899052601860248201527f5075626c69736865722072656c65617365206661696c656400000000000000006044820152606490fd5b6000546001600160a01b031633036114db57565b60405163118cdaa760e01b8152336004820152602490fd5b600260015414611504576002600155565b604051633ee5aeb560e01b8152600490fdfe0757ff3f8ed2e8966d372a8ca609d232cc842f426165c0925c945cb066753008a26469706673582212206529f0ce5133a1d254438cfd99938201d922601e1be4c0b22b1c36521d9f38c364736f6c63430008180033",
  "linkReferences": {},
  "deployedLinkReferences": {}
}