{
  "_format": "hh-sol-artifact-1",
  "contractName": "TaskRegistry",
  "sourceName": "contracts/TaskRegistry.sol",
  "abi": [
    {
      "inputs": [
        {
          "internalType": "address",
          "name": "_feeRecipient",
          "type": "address"
        }
      ],
      "stateMutability": "nonpayable",
      "type": "constructor"
    },
    {
      "inputs": [
        {
          "internalType": "address",
          "name": "owner",
          "type": "address"
        }
      ],
      "name": "OwnableInvalidOwner",
      "type": "error"
    },
    {
      "inputs": [
        {
          "internalType": "address",
          "name": "account",
          "type": "address"
        }
      ],
      "name": "OwnableUnauthorizedAccount",
      "type": "error"
    },
    {
      "inputs": [],
      "name": "ReentrancyGuardReentrantCall",
      "type": "error"
    },
    {
      "anonymous": false,
      "inputs": [
        {
          "indexed": true,
          "internalType": "address",
          "name": "previousOwner",
          "type": "address"
        },
        {
          "indexed": true,
          "internalType": "address",
          "name": "newOwner",
          "type": "address"
        }
      ],
      "name": "OwnershipTransferred",
      "type": "event"
    },
    {
      "anonymous": false,
      "inputs": [
        {
          "indexed": false,
          "internalType": "uint256",
          "name": "newFee",
          "type": "uint256"
        }
      ],
      "name": "PlatformFeeUpdated",
      "type": "event"
    },
    {
      "anonymous": false,
      "inputs": [
        {
          "indexed": true,
          "internalType": "uint256",
          "name": "taskId",
          "type": "uint256"
        },
        {
          "indexed": true,
          "internalType": "uint256",
          "name": "applicationId",
          "type": "uint256"
        },
        {
          "indexed": true,
          "internalType": "address",
          "name": "applicant",
          "type": "address"
        }
      ],
      "name": "TaskApplied",
      "type": "event"
    },
    {
      "anonymous": false,
      "inputs": [
        {
          "indexed": true,
          "internalType": "uint256",
          "name": "taskId",
          "type": "uint256"
        },
        {
          "indexed": true,
          "internalType": "address",
          "name": "worker",
          "type": "address"
        }
      ],
      "name": "TaskAssigned",
      "type": "event"
    },
    {
      "anonymous": false,
      "inputs": [
        {
          "indexed": true,
          "internalType": "uint256",
          "name": "taskId",
          "type": "uint256"
        }
      ],
      "name": "TaskCancelled",
      "type": "event"
    },
    {
      "anonymous": false,
      "inputs": [
        {
          "indexed": true,
          "internalType": "uint256",
          "name": "taskId",
          "type": "uint256"
        },
        {
          "indexed": true,
          "internalType": "address",
          "name": "worker",
          "type": "address"
        },
        {
          "indexed": false,
          "internalType": "uint256",
          "name": "reward",
          "type": "uint256"
        }
      ],
      "name": "TaskCompleted",
      "type": "event"
    },
    {
      "anonymous": false,
      "inputs": [
        {
          "indexed": true,
          "internalType": "uint256",
          "name": "taskId",
          "type": "uint256"
        },
        {
          "indexed": true,
          "internalType": "address",
          "name": "publisher",
          "type": "address"
        },
        {
          "indexed": false,
          "internalType": "string",
          "name": "title",
          "type": "string"
        },
        {
          "indexed": false,
          "internalType": "uint256",
          "name": "reward",
          "type": "uint256"
        }
      ],
      "name": "TaskCreated",
      "type": "event"
    },
    {
      "anonymous": false,
      "inputs": [
        {
          "indexed": true,
          "internalType": "uint256",
          "name": "taskId",
          "type": "uint256"
        },
        {
          "indexed": false,
          "internalType": "string",
          "name": "reason",
          "type": "string"
        }
      ],
      "name": "TaskDisputed",
      "type": "event"
    },
    {
      "anonymous": false,
      "inputs": [
        {
          "indexed": true,
          "internalType": "uint256",
          "name": "taskId",
          "type": "uint256"
        },
        {
          "indexed": false,
          "internalType": "uint256",
          "name": "deadline",
          "type": "uint256"
        }
      ],
      "name": "TaskPublished",
      "type": "event"
    },
    {
      "anonymous": false,
      "inputs": [
        {
          "indexed": true,
          "internalType": "uint256",
          "name": "taskId",
          "type": "uint256"
        },
        {
          "indexed": false,
          "internalType": "bool",
          "name": "approved",
          "type": "bool"
        }
      ],
      "name": "TaskResolved",
      "type": "event"
    },
    {
      "anonymous": false,
      "inputs": [
        {
          "indexed": true,
          "internalType": "uint256",
          "name": "taskId",
          "type": "uint256"
        },
        {
          "indexed": false,
          "internalType": "string",
          "name": "deliverableURI",
          "type": "string"
        }
      ],
      "name": "TaskSubmitted",
      "type": "event"
    },
    {
      "stateMutability": "payable",
      "type": "fallback"
    },
    {
      "inputs": [],
      "name": "applicationCounter",
      "outputs": [
        {
          "internalType": "uint256",
          "name": "",
          "type": "uint256"
        }
      ],
      "stateMutability": "view",
      "type": "function"
    },
    {
      "inputs": [
        {
          "internalType": "uint256",
          "name": "",
          "type": "uint256"
        }
      ],
      "name": "applications",
      "outputs": [
        {
          "internalType": "uint256",
          "name": "taskId",
          "type": "uint256"
        },
        {
          "internalType": "address",
          "name": "applicant",
          "type": "address"
        },
        {
          "internalType": "uint256",
          "name": "agentId",
          "type": "uint256"
        },
        {
          "internalType": "string",
          "name": "proposal",
          "type": "string"
        },
        {
          "internalType": "uint256",
          "name": "proposedPrice",
          "type": "uint256"
        },
        {
          "internalType": "uint256",
          "name": "appliedAt",
          "type": "uint256"
        },
        {
          "internalType": "bool",
          "name": "isAccepted",
          "type": "bool"
        }
      ],
      "stateMutability": "view",
      "type": "function"
    },
    {
      "inputs": [
        {
          "internalType": "uint256",
          "name": "_taskId",
          "type": "uint256"
        },
        {
          "internalType": "string",
          "name": "_proposal",
          "type": "string"
        },
        {
          "internalType": "uint256",
          "name": "_proposedPrice",
          "type": "uint256"
        }
      ],
      "name": "applyForTask",
      "outputs": [
        {
          "internalType": "uint256",
          "name": "",
          "type": "uint256"
        }
      ],
      "stateMutability": "nonpayable",
      "type": "function"
    },
    {
      "inputs": [
        {
          "internalType": "uint256",
          "name": "_taskId",
          "type": "uint256"
        }
      ],
      "name": "approveAndComplete",
      "outputs": [],
      "stateMutability": "nonpayable",
      "type": "function"
    },
    {
      "inputs": [
        {
          "internalType": "uint256",
          "name": "_taskId",
          "type": "uint256"
        },
        {
          "internalType": "uint256",
          "name": "_applicationId",
          "type": "uint256"
        }
      ],
      "name": "assignTask",
      "outputs": [],
      "stateMutability": "nonpayable",
      "type": "function"
    },
    {
      "inputs": [
        {
          "internalType": "uint256",
          "name": "_taskId",
          "type": "uint256"
        }
      ],
      "name": "cancelTask",
      "outputs": [],
      "stateMutability": "nonpayable",
      "type": "function"
    },
    {
      "inputs": [
        {
          "internalType": "string",
          "name": "_title",
          "type": "string"
        },
        {
          "internalType": "string",
          "name": "_description",
          "type": "string"
        },
        {
          "internalType": "enum TaskRegistry.TaskType",
          "name": "_taskType",
          "type": "uint8"
        },
        {
          "internalType": "uint256",
          "name": "_reward",
          "type": "uint256"
        },
        {
          "internalType": "uint256",
          "name": "_deadlineDuration",
          "type": "uint256"
        },
        {
          "internalType": "string[]",
          "name": "_requiredSkills",
          "type": "string[]"
        },
        {
          "internalType": "uint256",
          "name": "_minReputation",
          "type": "uint256"
        },
        {
          "internalType": "bool",
          "name": "_isMultiAgent",
          "type": "bool"
        }
      ],
      "name": "createTask",
      "outputs": [
        {
          "internalType": "uint256",
          "name": "",
          "type": "uint256"
        }
      ],
      "stateMutability": "payable",
      "type": "function"
    },
    {
      "inputs": [],
      "name": "emergencyWithdraw",
      "outputs": [],
      "stateMutability": "nonpayable",
      "type": "function"
    },
    {
      "inputs": [],
      "name": "erc8004Contract",
      "outputs": [
        {
          "internalType": "address",
          "name": "",
          "type": "address"
        }
      ],
      "stateMutability": "view",
      "type": "function"
    },
    {
      "inputs": [
        {
          "internalType": "uint256",
          "name": "_taskId",
          "type": "uint256"
        },
        {
          "internalType": "uint256",
          "name": "_extension",
          "type": "uint256"
        }
      ],
      "name": "extendDeadline",
      "outputs": [],
      "stateMutability": "nonpayable",
      "type": "function"
    },
    {
      "inputs": [],
      "name": "feeRecipient",
      "outputs": [
        {
          "internalType": "address",
          "name": "",
          "type": "address"
        }
      ],
      "stateMutability": "view",
      "type": "function"
    },
    {
      "inputs": [],
      "name": "getActiveTasks",
      "outputs": [
        {
          "internalType": "uint256[]",
          "name": "",
          "type": "uint256[]"
        }
      ],
      "stateMutability": "view",
      "type": "function"
    },
    {
      "inputs": [
        {
          "internalType": "address",
          "name": "_publisher",
          "type": "address"
        }
      ],
      "name": "getPublisherTasks",
      "outputs": [
        {
          "internalType": "uint256[]",
          "name": "",
          "type": "uint256[]"
        }
      ],
      "stateMutability": "view",
      "type": "function"
    },
    {
      "inputs": [
        {
          "internalType": "uint256",
          "name": "_taskId",
          "type": "uint256"
        }
      ],
      "name": "getTaskApplications",
      "outputs": [
        {
          "internalType": "uint256[]",
          "name": "",
          "type": "uint256[]"
        }
      ],
      "stateMutability": "view",
      "type": "function"
    },
    {
      "inputs": [
        {
          "internalType": "enum TaskRegistry.TaskState",
          "name": "_state",
          "type": "uint8"
        }
      ],
      "name": "getTaskCountByState",
      "outputs": [
        {
          "internalType": "uint256",
          "name": "",
          "type": "uint256"
        }
      ],
      "stateMutability": "view",
      "type": "function"
    },
    {
      "inputs": [
        {
          "internalType": "address",
          "name": "_worker",
          "type": "address"
        }
      ],
      "name": "getWorkerTasks",
      "outputs": [
        {
          "internalType": "uint256[]",
          "name": "",
          "type": "uint256[]"
        }
      ],
      "stateMutability": "view",
      "type": "function"
    },
    {
      "inputs": [],
      "name": "humanLevelNFTContract",
      "outputs": [
        {
          "internalType": "address",
          "name": "",
          "type": "address"
        }
      ],
      "stateMutability": "view",
      "type": "function"
    },
    {
      "inputs": [
        {
          "internalType": "uint256",
          "name": "_taskId",
          "type": "uint256"
        }
      ],
      "name": "isExpired",
      "outputs": [
        {
          "internalType": "bool",
          "name": "",
          "type": "bool"
        }
      ],
      "stateMutability": "view",
      "type": "function"
    },
    {
      "inputs": [],
      "name": "maxDeadlineDuration",
      "outputs": [
        {
          "internalType": "uint256",
          "name": "",
          "type": "uint256"
        }
      ],
      "stateMutability": "view",
      "type": "function"
    },
    {
      "inputs": [],
      "name": "minReward",
      "outputs": [
        {
          "internalType": "uint256",
          "name": "",
          "type": "uint256"
        }
      ],
      "stateMutability": "view",
      "type": "function"
    },
    {
      "inputs": [],
      "name": "owner",
      "outputs": [
        {
          "internalType": "address",
          "name": "",
          "type": "address"
        }
      ],
      "stateMutability": "view",
      "type": "function"
    },
    {
      "inputs": [],
      "name": "platformFee",
      "outputs": [
        {
          "internalType": "uint256",
          "name": "",
          "type": "uint256"
        }
      ],
      "stateMutability": "view",
      "type": "function"
    },
    {
      "inputs": [
        {
          "internalType": "uint256",
          "name": "_taskId",
          "type": "uint256"
        }
      ],
      "name": "publishTask",
      "outputs": [],
      "stateMutability": "nonpayable",
      "type": "function"
    },
    {
      "inputs": [
        {
          "internalType": "address",
          "name": "",
          "type": "address"
        },
        {
          "internalType": "uint256",
          "name": "",
          "type": "uint256"
        }
      ],
      "name": "publisherTasks",
      "outputs": [
        {
          "internalType": "uint256",
          "name": "",
          "type": "uint256"
        }
      ],
      "stateMutability": "view",
      "type": "function"
    },
    {
      "inputs": [
        {
          "internalType": "uint256",
          "name": "_taskId",
          "type": "uint256"
        },
        {
          "internalType": "string",
          "name": "_reason",
          "type": "string"
        }
      ],
      "name": "raiseDispute",
      "outputs": [],
      "stateMutability": "nonpayable",
      "type": "function"
    },
    {
      "inputs": [],
      "name": "renounceOwnership",
      "outputs": [],
      "stateMutability": "nonpayable",
      "type": "function"
    },
    {
      "inputs": [
        {
          "internalType": "uint256",
          "name": "_taskId",
          "type": "uint256"
        },
        {
          "internalType": "string",
          "name": "_feedback",
          "type": "string"
        }
      ],
      "name": "requestChanges",
      "outputs": [],
      "stateMutability": "nonpayable",
      "type": "function"
    },
    {
      "inputs": [
        {
          "internalType": "uint256",
          "name": "_taskId",
          "type": "uint256"
        },
        {
          "internalType": "bool",
          "name": "_approved",
          "type": "bool"
        }
      ],
      "name": "resolveDispute",
      "outputs": [],
      "stateMutability": "nonpayable",
      "type": "function"
    },
    {
      "inputs": [
        {
          "internalType": "address",
          "name": "_erc8004",
          "type": "address"
        },
        {
          "internalType": "address",
          "name": "_humanNFT",
          "type": "address"
        }
      ],
      "name": "setContractAddresses",
      "outputs": [],
      "stateMutability": "nonpayable",
      "type": "function"
    },
    {
      "inputs": [
        {
          "internalType": "uint256",
          "name": "_newFee",
          "type": "uint256"
        }
      ],
      "name": "setPlatformFee",
      "outputs": [],
      "stateMutability": "nonpayable",
      "type": "function"
    },
    {
      "inputs": [
        {
          "internalType": "uint256",
          "name": "_taskId",
          "type": "uint256"
        },
        {
          "internalType": "string",
          "name": "_deliverableURI",
          "type": "string"
        }
      ],
      "name": "submitWork",
      "outputs": [],
      "stateMutability": "nonpayable",
      "type": "function"
    },
    {
      "inputs": [
        {
          "internalType": "uint256",
          "name": "",
          "type": "uint256"
        },
        {
          "internalType": "uint256",
          "name": "",
          "type": "uint256"
        }
      ],
      "name": "taskApplications",
      "outputs": [
        {
          "internalType": "uint256",
          "name": "",
          "type": "uint256"
        }
      ],
      "stateMutability": "view",
      "type": "function"
    },
    {
      "inputs": [],
      "name": "taskCounter",
      "outputs": [
        {
          "internalType": "uint256",
          "name": "",
          "type": "uint256"
        }
      ],
      "stateMutability": "view",
      "type": "function"
    },
    {
      "inputs": [
        {
          "internalType": "uint256",
          "name": "",
          "type": "uint256"
        }
      ],
      "name": "tasks",
      "outputs": [
        {
          "internalType": "uint256",
          "name": "id",
          "type": "uint256"
        },
        {
          "internalType": "string",
          "name": "title",
          "type": "string"
        },
        {
          "internalType": "string",
          "name": "description",
          "type": "string"
        },
        {
          "internalType": "enum TaskRegistry.TaskType",
          "name": "taskType",
          "type": "uint8"
        },
        {
          "internalType": "enum TaskRegistry.TaskState",
          "name": "state",
          "type": "uint8"
        },
        {
          "internalType": "address",
          "name": "publisher",
          "type": "address"
        },
        {
          "internalType": "address",
          "name": "worker",
          "type": "address"
        },
        {
          "internalType": "uint256",
          "name": "reward",
          "type": "uint256"
        },
        {
          "internalType": "uint256",
          "name": "deposit",
          "type": "uint256"
        },
        {
          "internalType": "uint256",
          "name": "createdAt",
          "type": "uint256"
        },
        {
          "internalType": "uint256",
          "name": "deadline",
          "type": "uint256"
        },
        {
          "internalType": "uint256",
          "name": "assignedAt",
          "type": "uint256"
        },
        {
          "internalType": "uint256",
          "name": "submittedAt",
          "type": "uint256"
        },
        {
          "internalType": "uint256",
          "name": "completedAt",
          "type": "uint256"
        },
        {
          "internalType": "string",
          "name": "deliverableURI",
          "type": "string"
        },
        {
          "internalType": "uint256",
          "name": "minReputation",
          "type": "uint256"
        },
        {
          "internalType": "bool",
          "name": "isMultiAgent",
          "type": "bool"
        }
      ],
      "stateMutability": "view",
      "type": "function"
    },
    {
      "inputs": [
        {
          "internalType": "address",
          "name": "newOwner",
          "type": "address"
        }
      ],
      "name": "transferOwnership",
      "outputs": [],
      "stateMutability": "nonpayable",
      "type": "function"
    },
    {
      "inputs": [
        {
          "internalType": "address",
          "name": "",
          "type": "address"
        },
        {
          "internalType": "uint256",
          "name": "",
          "type": "uint256"
        }
      ],
      "name": "workerTasks",
      "outputs": [
        {
          "internalType": "uint256",
          "name": "",
          "type": "uint256"
        }
      ],
      "stateMutability": "view",
      "type": "function"
    },
    {
      "stateMutability": "payable",
      "type": "receive"
    }
  ],
  "bytecode": "0x6080346200013557601f62002c5c38819003918201601f19168301916001600160401b038311848410176200013a578084926020946040528339810103126200013557516001600160a01b0380821691829003620001355733156200011c576000549060018060a01b0319913383821617600055604051913391167f8be0079c531659141344cd1fd0a4f28419497f9722a3daafe3b4186f6b6457e0600080a36001805560fa60095566038d7ea4c68000600b556276a700600c558215620000da5750600a541617600a55604051612b0b9081620001518239f35b62461bcd60e51b815260206004820152601560248201527f496e76616c69642066656520726563697069656e7400000000000000000000006044820152606490fd5b604051631e4fbdf760e01b815260006004820152602490fd5b600080fd5b634e487b7160e01b600052604160045260246000fdfe60806040526004361015610018575b361561001657005b005b60003560e01c806301612c40146123c857806312e8e2c314612335578063191281d714611fb057806326232a2e14611f925780632bf70dee14611f485780632d1fdef614611e9f5780632fa1e69714611e1957806334b25ee214611c5f5780633ce2d7fa14611bcb5780634690484014611ba25780635867173014611b845780635aef573c14611a3c5780636127f246146118b057806366bb8c1c146118875780636a14a04914611869578063715018a614611810578063751a9ef6146117a35780637b9b6b581461177a5780637eec20a81461166a57806383079a3314610c3d5780638d97767214610ae15780638da5cb5b14610ab8578063a7f1830914610a3d578063aae895c5146109b2578063ab066fca14610981578063af3885e514610896578063b91bda371461072b578063ba16d6001461070d578063cd931e40146106b2578063d9548e5314610656578063da8accf9146103b7578063db144d0114610399578063db2e21bc14610322578063dfefadff1461028f578063e0239ed1146102375763f2fde38b0361000e5734610232576020366003190112610232576101c2612648565b6101ca612a86565b6001600160a01b0390811690811561021957600054826001600160601b0360a01b821617600055167f8be0079c531659141344cd1fd0a4f28419497f9722a3daafe3b4186f6b6457e0600080a3005b604051631e4fbdf760e01b815260006004820152602490fd5b600080fd5b3461023257604036600319011261023257610250612648565b6001600160a01b0316600090815260076020526040902080546024359190821015610232576020916102819161265e565b90546040519160031b1c8152f35b346102325760203660031901126102325760043560005260066020526040600020805460018060a01b036001830154169160028101546102d160038301612735565b9161030c60048201549360ff60066005850154940154169360405197889788526020880152604087015260e0606087015260e08601906127da565b92608085015260a0840152151560c08301520390f35b346102325760003660031901126102325761033b612a86565b6000805481908190819047906001600160a01b03165af161035a61293a565b501561036257005b60405162461bcd60e51b815260206004820152600f60248201526e15da5d1a191c985dc819985a5b1959608a1b6044820152606490fd5b34610232576000366003190112610232576020600354604051908152f35b34610232576103c536612676565b90806000526020916004835260406000209260018060a01b03600485015416330361061c5760038401805460ff8160081c16600881101561060657600261040c91146128ed565b60088601546201518081018091116105f05742116105ab5761ff001916610300179055815193600c81016001600160401b0386116105955761044e81546126fb565b601f811161055a575b5082601f87116001146104d557867f6446ced08d52e8f0331d94dbe32ad91d577ec02d6d8ec44376b1517fcca598a796976104a8926000916104ca575b508160011b916000199060031b1c19161790565b90555b600a429101556104c56040519282849384528301906127da565b0390a2005b905086015189610494565b601f1987169082600052846000209160005b81811061054357509188917f6446ced08d52e8f0331d94dbe32ad91d577ec02d6d8ec44376b1517fcca598a798996001941061052a575b5050811b0190556104ab565b87015160001960f88460031b161c19169055888061051e565b91928660018192868b0151815501940192016104e7565b610585908260005284600020601f890160051c810191868a1061058b575b601f0160051c01906128d6565b86610457565b9091508190610578565b634e487b7160e01b600052604160045260246000fd5b60405162461bcd60e51b815260048101849052601860248201527f5375626d697373696f6e2077696e646f7720636c6f73656400000000000000006044820152606490fd5b634e487b7160e01b600052601160045260246000fd5b634e487b7160e01b600052602160045260246000fd5b6064906040519062461bcd60e51b8252600482015260136024820152722737ba1030b9b9b4b3b732b2103bb7b935b2b960691b6044820152fd5b3461023257602036600319011261023257600435600052600460205260406000206008810154421180610691575b6020906040519015158152f35b50600360ff91015460081c1660088110156106065760056020911415610684565b34610232576040366003190112610232576106cb612648565b6024356001600160a01b038181169291839003610232576106ea612a86565b6001600160601b0360a01b911681600d541617600d55600e541617600e55600080f35b34610232576000366003190112610232576020600b54604051908152f35b3461023257602036600319011261023257600435610747612ab2565b60008181526004602052604090206003810180549092916001600160a01b0391610778601082901c8416331461281a565b60ff8160081c1660088110156106065760031461079490612a45565b61ff00191661050017845542600b82015560058101918254816009546107ba90836129a6565b612710900491826107ca916129b9565b96600485019288838554165a6000809381938293f16107e761293a565b506107f1906129c6565b801515966006602097610830937f843af93d40addceac6932508439844b897d4df9e971db326d557e3cdaa9f3ebf9a610872575b5001549054906129b9565b80610849575b505050541693604051908152a360018055005b60008080939261086a9582945460101c165af161086461293a565b5061296a565b818780610836565b6000808080610890948b600a54165af161088a61293a565b50612a03565b8c610825565b346102325760203660031901126102325760043580600052600460205260406000206003810180546108d43360018060a01b038360101c161461281a565b60ff8160081c166008811015610606576109475761ff00191661010017905560080180547f23691238e4e404915763d24b460fe881a2cf90dd35537d0a6cdc5d2c185f94bb91602091801561093a5761092e905b4261292d565b809155604051908152a2005b5061092e62093a80610928565b60405162461bcd60e51b81526020600482015260126024820152714e6f7420696e20647261667420737461746560701b6044820152606490fd5b346102325761098f36612594565b90600052600560205260406000208054821015610232576020916102819161265e565b3461023257602080600319360112610232576001600160a01b036109d4612648565b1660005260086020526040600020906040519081602084549182815201936000526020600020916000905b828210610a2657610a2285610a16818903826125c5565b604051918291826126a8565b0390f35b8354865294850194600193840193909101906109ff565b3461023257602080600319360112610232576001600160a01b03610a5f612648565b1660005260076020526040600020906040519081602084549182815201936000526020600020916000905b828210610aa157610a2285610a16818903826125c5565b835486529485019460019384019390910190610a8a565b34610232576000366003190112610232576000546040516001600160a01b039091168152602090f35b346102325760203660031901126102325760043560005260046020526040600020805460018201610b1190612735565b91610b1e60028201612735565b916003820154600160a01b6001900360048401541693600584015490600685015460078601546008870154600988015490600a89015492600b8a015494600c8b01610b6890612735565b96600e8c01549b600f015460ff169a6040519e8f916102209083528060208401528201610b94916127da565b908082039060400152610ba6916127da565b9760ff8a1660071115610606578d606060ff8c16910152600860ff8b821c161015610606578d9c60c08e8c60ff610c2a9e60081c16608083015260018060a01b039060101c1660a0820152015260e08d01526101008c01526101208b01526101408a01526101608901526101808801526101a08701528582036101c08701526127da565b916101e084015215156102008301520390f35b610100366003190112610232576004356001600160401b03811161023257610c69903690600401612601565b6024356001600160401b03811161023257610c88903690600401612601565b9060076044351015610232576001600160401b0360a435116102325736602360a43501121561023257610cc060a435600401356126e4565b90610cce60405192836125c5565b60a4356004013582526020820136602460a4356004013560051b60a43501011161023257602460a43501905b602460a4356004013560051b60a4350101821061163a57505060e435918215158303610232578151156115fd5760648251116115c757600b546064351061158b57600c54608435116115535760643534106115175760025492610d5c846128c7565b60025560405191610d6c836125aa565b6000835260405195866102608101106001600160401b036102608901111761059557610260870160405285875284602088015260408701526044356060870152600060808701523360a0870152600060c087015260643560e0870152346101008701524261012087015260006101408701526000610160870152600061018087015260006101a0870152604051610e02816125aa565b600081526101c08701526101e086015260c435610200860152151561022085015261024084015281600052600460205260406000208351815560208401518051906001600160401b03821161059557610e5e60018401546126fb565b601f81116114e2575b50602090601f831160011461147057610e99929160009183611317575b50508160011b916000199060031b1c19161790565b60018201555b60408401518051906001600160401b03821161059557610ec260028401546126fb565b601f811161143b575b50602090601f83116001146113c957610efc9291600091836113175750508160011b916000199060031b1c19161790565b60028201555b6060840151600781101561060657600382015460808601519060088210156106065761ff009060ff62010000600160b01b0360a08a015160101b1694169069ffffffffffffffffffff60b01b16179160081b16171760038201556004810160018060a01b0360c0860151166001600160601b0360a01b82541617905560e084015160058201556101008401516006820155610120840151600782015561014084015160088201556101608401516009820155610180840151600a8201556101a0840151600b8201556101c08401518051906001600160401b03821161059557610fee600c8401546126fb565b601f8111611394575b50602090601f8311600114611322576110289291600091836113175750508160011b916000199060031b1c19161790565b600c8201555b6101e0840151805190600160401b821161059557600d83015482600d85015580831061129f575b5060200190600d83016000526020600020916000905b8282106111845750505050601061024091610200860151600e8201556110a76102208701511515600f83019060ff801983541691151516179055565b019301518051906001600160401b03821161059557600160401b8211610595576020908554838755808410611167575b500193600052602060002060005b82811061115357602085853360005260078352611106826040600020612892565b817f9e3c9757475c00b86393e183b68033bb76e48fa164849c7428ad17f62e1954a761113d604051936040855260408501906127da565b92606435868201528033940390a3604051908152f35b6001906020875197019681840155016110e5565b61117e9087600052848460002091820191016128d6565b866110d7565b80518051906001600160401b038211610595576111a186546126fb565b601f811161126d575b50602090601f83116001146111fd57926111e3836001959460209487966000926111f25750508160011b916000199060031b1c19161790565b87555b0194019101909261106b565b015190508e80610e84565b908660005260206000209160005b601f1985168110611255575083602093600196938796938794601f1981161061123c575b505050811b0187556111e6565b015160001960f88460031b161c191690558d808061122f565b9192602060018192868501518155019401920161120b565b61129990876000526020600020601f850160051c8101916020861061058b57601f0160051c01906128d6565b8a6111aa565b600d84016000526020600020908382015b81830181106112c0575050611055565b806112cd600192546126fb565b806112da575b50016112b0565b601f811183146112f05750600081555b8a6112d3565b60009082825261130e601f60208420920160051c82018583016128d6565b818355556112ea565b015190508780610e84565b9190600c84016000526020600020906000935b601f1984168510611379576001945083601f19811610611360575b505050811b01600c82015561102e565b015160001960f88460031b161c19169055868080611350565b81810151835560209485019460019093019290910190611335565b6113c390600c85016000526020600020601f850160051c8101916020861061058b57601f0160051c01906128d6565b86610ff7565b9190600284016000526020600020906000935b601f1984168510611420576001945083601f19811610611407575b505050811b016002820155610f02565b015160001960f88460031b161c191690558680806113f7565b818101518355602094850194600190930192909101906113dc565b61146a90600285016000526020600020601f850160051c8101916020861061058b57601f0160051c01906128d6565b86610ecb565b9190600184016000526020600020906000935b601f19841685106114c7576001945083601f198116106114ae575b505050811b016001820155610e9f565b015160001960f88460031b161c1916905586808061149e565b81810151835560209485019460019093019290910190611483565b61151190600185016000526020600020601f850160051c8101916020861061058b57601f0160051c01906128d6565b86610e67565b60405162461bcd60e51b8152602060048201526014602482015273125b9cdd59999a58da595b9d0819195c1bdcda5d60621b6044820152606490fd5b60405162461bcd60e51b815260206004820152601060248201526f2232b0b23634b732903a37b7903330b960811b6044820152606490fd5b60405162461bcd60e51b81526020600482015260146024820152735265776172642062656c6f77206d696e696d756d60601b6044820152606490fd5b60405162461bcd60e51b815260206004820152600e60248201526d5469746c6520746f6f206c6f6e6760901b6044820152606490fd5b60405162461bcd60e51b81526020600482015260156024820152745469746c652063616e6e6f7420626520656d70747960581b6044820152606490fd5b6001600160401b03823511610232576020809161165f366024863560a4350101612601565b815201910190610cfa565b3461023257602036600319011261023257600435611686612ab2565b60008181526004602052604090206003810180546001600160a01b03906116b4601082901c8316331461281a565b60ff8160081c16600881101561060657801590811561176f575b501561172a5760008093819360066116ff97610600859661ff0019161780945501549160101c165af161086461293a565b7fc6eacc3aa5b2aa77b5a826b832a804ca0b71830ec74f9aa57a15edd978c31ed6600080a260018055005b60405162461bcd60e51b815260206004820152601b60248201527f43616e6e6f742063616e63656c206174207468697320737461676500000000006044820152606490fd5b6001915014866116ce565b3461023257600036600319011261023257600e546040516001600160a01b039091168152602090f35b34610232576020806003193601126102325760043560005260056020526040600020906040519081602084549182815201936000526020600020916000905b8282106117f957610a2285610a16818903826125c5565b8354865294850194600193840193909101906117e2565b3461023257600036600319011261023257611829612a86565b600080546001600160a01b0319811682556001600160a01b03167f8be0079c531659141344cd1fd0a4f28419497f9722a3daafe3b4186f6b6457e08280a3005b34610232576000366003190112610232576020600c54604051908152f35b3461023257600036600319011261023257600d546040516001600160a01b039091168152602090f35b346102325760003660031901126102325760008060028054915b8281106119be57506118f46118de846126e4565b936118ec60405195866125c5565b8085526126e4565b60209190601f1901368584013760009060005b84811061191c5760405180610a2288826126a8565b806000526004845260ff60039081604060002001549080600892831c168281101561060657600114928315611999575b50505061195c575b600101611907565b9185518110156119835761197b81848660019460051b8a0101526128c7565b929050611954565b634e487b7160e01b600052603260045260246000fd5b600085815260048952604090200154821c16915081101561060657821487808061194c565b8060005260206004815260ff60039081604060002001549181600893841c168381101561060657600114938415611a15575b50505050611a01575b6001016118ca565b92611a0d6001916128c7565b9390506119f9565b60008681526004909152604090200154821c169150811015610606578214858080806119f0565b3461023257611a4a36612676565b8160005260046020526040600020600381019182549160018060a01b039033828560101c1614918215611b72575b505015611b365760ff8260081c1660088110156106065760038114908115611b2b575b5015611ae6577f08824ea73fe0c710b8488bb1d0d50ab5b21b6019aa7eaebafbe0076e5f7ab945926107006104c59361ff0019161790556040519182916020835260208301906127da565b60405162461bcd60e51b815260206004820152601c60248201527f43616e6e6f7420646973707574652061742074686973207374616765000000006044820152606490fd5b600291501485611a9b565b60405162461bcd60e51b81526020600482015260146024820152734e6f7420696e766f6c76656420696e207461736b60601b6044820152606490fd5b90915060043392015416148580611a78565b34610232576000366003190112610232576020600254604051908152f35b3461023257600036600319011261023257600a546040516001600160a01b039091168152602090f35b3461023257611bd936612676565b5060008181526004602052604090206003810180546001600160a01b03929091611c0a601084901c8516331461281a565b60ff8360081c16600881101561060657600493611c2c60036102009314612a45565b61ff001916179055015416907f52476d55ecef5cf13caa64038f297fe6bbf865d9584a98b8722a15a6d5db128f600080a3005b346102325760403660031901126102325760043560243580151580820361023257611c88612a86565b611c90612ab2565b826000526004602052604060002090600382019182549260ff8460081c16600881101561060657600703611de0577fed5939bba37a00d5c5e15afdf60875a81165f29105f4cd477f80b8680be049669461050060209561ff001916179081835542600b850155600014611db45750611d5c600583016006815494611d24612710611d1c600954896129a6565b0480976129b9565b95611d4c600080808060018060a01b039b8c6004890154165af1611d4661293a565b506129c6565b80611d96575001549054906129b9565b80611d73575b5050505b604051908152a260018055005b600080809392611d8e9582945460101c165af161086461293a565b848080611d62565b6000808080611dae948b600a54165af161088a61293a565b8a610825565b60008080935080926006611ddb9601549060018060a01b039060101c165af161086461293a565b611d66565b60405162461bcd60e51b815260206004820152601160248201527015185cdac81b9bdd08191a5cdc1d5d1959607a1b6044820152606490fd5b34610232576020806003193601126102325760086004358181101592908361023257600092600092600254935b848110611e5857602086604051908152f35b80600052600482528660ff600360406000200154851c16906106065783811015610606578414611e8b575b600101611e46565b94611e976001916128c7565b959050611e83565b3461023257611ead36612594565b906000526004602052604060002060ff6003820154611ed83360018060a01b038360101c161461281a565b60081c166008811015610606576002611ef191146128ed565b62278d008211611f0e576008611f0a910191825461292d565b9055005b60405162461bcd60e51b8152602060048201526012602482015271457874656e73696f6e20746f6f206c6f6e6760701b6044820152606490fd5b3461023257604036600319011261023257611f61612648565b6001600160a01b0316600090815260086020526040902080546024359190821015610232576020916102819161265e565b34610232576000366003190112610232576020600954604051908152f35b346102325760603660031901126102325760246004356001600160401b03823581811161023257611fe5903690600401612601565b90604435836000526020946004865260406000209160038301549260ff8460081c16600881101561232057600161201c9114612856565b60088101544210156122ea576001600160a01b039360101c841633146122a65760050154811161226b5760035494612053866128c7565b6003556040519460e086018681108282111761225657604052878652888601933385526040870160008152606088019384526080880194855260a088019542875260c0890197600089528a60005260068d52604060002099518a5560018a019151166001600160601b0360a01b82541617905551600288015560038701925190815192831161224257506120e783546126fb565b601f8111612212575b508990601f83116001146121a1578261215098979593600697959361212b936000926121965750508160011b916000199060031b1c19161790565b90555b51600485015551600584015551151591019060ff801983541691151516179055565b8160005260058352612166816040600020612892565b604051918133917f91abd88f7320dc9033d4ea70422e922329a879aa3812cbff0bec68fe869d0a20600080a48152f35b015190508d80610e84565b90601f19831691846000528b6000209260005b8d8282106121fc5750509260019285926121509b9a989660069a9896106121e3575b505050811b01905561212e565b015160001960f88460031b161c191690558c80806121d6565b60018596829396860151815501950193016121b4565b61223c90846000528b600020601f850160051c8101918d861061058b57601f0160051c01906128d6565b8a6120f0565b634e487b7160e01b60009081526041600452fd5b84634e487b7160e01b60005260416004526000fd5b60405162461bcd60e51b81526004810188905260148184015273141c9a58d948195e18d959591cc81c995dd85c9960621b6044820152606490fd5b60405162461bcd60e51b8152600481018990526018818501527f43616e6e6f74206170706c7920746f206f776e207461736b00000000000000006044820152606490fd5b60405162461bcd60e51b815260048101899052600f818501526e111958591b1a5b99481c185cdcd959608a1b6044820152606490fd5b83634e487b7160e01b60005260216004526000fd5b3461023257602036600319011261023257600435612351612a86565b6103e8811161238b576020817f45610d581145924dd7090a5017e5f2b1d6f42213bb2e95707ff86846bbfcb1ca92600955604051908152a1005b60405162461bcd60e51b81526020600482015260156024820152744665652063616e6e6f74206578636565642031302560581b6044820152606490fd5b34610232576123d636612594565b9080600052602091600483526040600020600381019384549460018060a01b039361240733868960101c161461281a565b60ff8760081c1660088110156106065760016124239114612856565b60035481101561255657600052600682526040600020928584540361251157600684019160ff8354166124d95761020060089596979861ff00191617905560056004600187019688885416828501906001600160601b0360a01b8254161790554260098501550154910155600160ff1982541617905583835416600052526124af836040600020612892565b5416907f52476d55ecef5cf13caa64038f297fe6bbf865d9584a98b8722a15a6d5db128f600080a3005b60405162461bcd60e51b815260048101859052601060248201526f105b1c9958591e481858d8d95c1d195960821b6044820152606490fd5b60405162461bcd60e51b815260048101849052601d60248201527f4170706c69636174696f6e206e6f7420666f722074686973207461736b0000006044820152606490fd5b60405162461bcd60e51b8152600481018490526016602482015275125b9d985b1a5908185c1c1b1a58d85d1a5bdb88125160521b6044820152606490fd5b6040906003190112610232576004359060243590565b602081019081106001600160401b0382111761059557604052565b90601f801991011681019081106001600160401b0382111761059557604052565b6001600160401b03811161059557601f01601f191660200190565b81601f8201121561023257803590612618826125e6565b9261262660405194856125c5565b8284526020838301011161023257816000926020809301838601378301015290565b600435906001600160a01b038216820361023257565b80548210156119835760005260206000200190600090565b9060406003198301126102325760043591602435906001600160401b038211610232576126a591600401612601565b90565b602090602060408183019282815285518094520193019160005b8281106126d0575050505090565b8351855293810193928101926001016126c2565b6001600160401b0381116105955760051b60200190565b90600182811c9216801561272b575b602083101461271557565b634e487b7160e01b600052602260045260246000fd5b91607f169161270a565b90604051918260008254612748816126fb565b908184526020946001916001811690816000146127b85750600114612779575b505050612777925003836125c5565b565b600090815285812095935091905b8183106127a05750506127779350820101388080612768565b85548884018501529485019487945091830191612787565b9250505061277794925060ff191682840152151560051b820101388080612768565b919082519283825260005b848110612806575050826000602080949584010152601f8019910116010190565b6020818301810151848301820152016127e5565b1561282157565b60405162461bcd60e51b815260206004820152600d60248201526c2737ba10383ab13634b9b432b960991b6044820152606490fd5b1561285d57565b60405162461bcd60e51b815260206004820152600d60248201526c2a30b9b5903737ba1037b832b760991b6044820152606490fd5b8054600160401b811015610595576128af9160018201815561265e565b819291549060031b91821b91600019901b1916179055565b60001981146105f05760010190565b8181106128e1575050565b600081556001016128d6565b156128f457565b60405162461bcd60e51b815260206004820152601160248201527015185cdac81b9bdd08185cdcda59db9959607a1b6044820152606490fd5b919082018092116105f057565b3d15612965573d9061294b826125e6565b9161295960405193846125c5565b82523d6000602084013e565b606090565b1561297157565b60405162461bcd60e51b815260206004820152600d60248201526c1499599d5b990819985a5b1959609a1b6044820152606490fd5b818102929181159184041417156105f057565b919082039182116105f057565b156129cd57565b60405162461bcd60e51b815260206004820152600e60248201526d14185e5b595b9d0819985a5b195960921b6044820152606490fd5b15612a0a57565b60405162461bcd60e51b8152602060048201526013602482015272119959481d1c985b9cd9995c8819985a5b1959606a1b6044820152606490fd5b15612a4c57565b60405162461bcd60e51b815260206004820152601260248201527115185cdac81b9bdd081cdd589b5a5d1d195960721b6044820152606490fd5b6000546001600160a01b03163303612a9a57565b60405163118cdaa760e01b8152336004820152602490fd5b600260015414612ac3576002600155565b604051633ee5aeb560e01b8152600490fdfea2646970667358221220ff37491c2ecc63ef292f28539c4923820971a4030e5f27964393c43806c924b264736f6c63430008180033",
  "linkReferences": {},
  "deployedLinkReferences": {}
}