{
  "_format": "hh-sol-artifact-1",
  "contractName": "X402Payment",
  "sourceName": "contracts/X402Payment.sol",
  "abi": [
    {
      "inputs": [
        {
          "internalType": "address",
          "name": "_feeRecipient",
          "type": "address"
        }
      ],
      "stateMutability": "nonpayable",
      "type": "constructor"
    },
    {
      "inputs": [
        {
          "internalType": "address",
          "name": "target",
          "type": "address"
        }
      ],
      "name": "AddressEmptyCode",
      "type": "error"
    },
    {
      "inputs": [
        {
          "internalType": "address",
          "name": "account",
          "type": "address"
        }
      ],
      "name": "AddressInsufficientBalance",
      "type": "error"
    },
    {
      "inputs": [],
      "name": "ECDSAInvalidSignature",
      "type": "error"
    },
    {
      "inputs": [
        {
          "internalType": "uint256",
          "name": "length",
          "type": "uint256"
        }
      ],
      "name": "ECDSAInvalidSignatureLength",
      "type": "error"
    },
    {
      "inputs": [
        {
          "internalType": "bytes32",
          "name": "s",
          "type": "bytes32"
        }
      ],
      "name": "ECDSAInvalidSignatureS",
      "type": "error"
    },
    {
      "inputs": [],
      "name": "FailedInnerCall",
      "type": "error"
    },
    {
      "inputs": [],
      "name": "InvalidShortString",
      "type": "error"
    },
    {
      "inputs": [
        {
          "internalType": "address",
          "name": "owner",
          "type": "address"
        }
      ],
      "name": "OwnableInvalidOwner",
      "type": "error"
    },
    {
      "inputs": [
        {
          "internalType": "address",
          "name": "account",
          "type": "address"
        }
      ],
      "name": "OwnableUnauthorizedAccount",
      "type": "error"
    },
    {
      "inputs": [],
      "name": "ReentrancyGuardReentrantCall",
      "type": "error"
    },
    {
      "inputs": [
        {
          "internalType": "address",
          "name": "token",
          "type": "address"
        }
      ],
      "name": "SafeERC20FailedOperation",
      "type": "error"
    },
    {
      "inputs": [
        {
          "internalType": "string",
          "name": "str",
          "type": "string"
        }
      ],
      "name": "StringTooLong",
      "type": "error"
    },
    {
      "anonymous": false,
      "inputs": [
        {
          "indexed": true,
          "internalType": "bytes32",
          "name": "authorizationId",
          "type": "bytes32"
        },
        {
          "indexed": true,
          "internalType": "address",
          "name": "payer",
          "type": "address"
        },
        {
          "indexed": true,
          "internalType": "address",
          "name": "payee",
          "type": "address"
        },
        {
          "indexed": false,
          "internalType": "uint256",
          "name": "amount",
          "type": "uint256"
        },
        {
          "indexed": false,
          "internalType": "address",
          "name": "token",
          "type": "address"
        },
        {
          "indexed": false,
          "internalType": "address",
          "name": "facilitator",
          "type": "address"
        }
      ],
      "name": "Authorized",
      "type": "event"
    },
    {
      "anonymous": false,
      "inputs": [
        {
          "indexed": true,
          "internalType": "bytes32",
          "name": "authorizationId",
          "type": "bytes32"
        },
        {
          "indexed": false,
          "internalType": "string",
          "name": "reason",
          "type": "string"
        }
      ],
      "name": "Cancelled",
      "type": "event"
    },
    {
      "anonymous": false,
      "inputs": [],
      "name": "EIP712DomainChanged",
      "type": "event"
    },
    {
      "anonymous": false,
      "inputs": [
        {
          "indexed": true,
          "internalType": "address",
          "name": "facilitator",
          "type": "address"
        },
        {
          "indexed": false,
          "internalType": "bool",
          "name": "approved",
          "type": "bool"
        }
      ],
      "name": "FacilitatorUpdated",
      "type": "event"
    },
    {
      "anonymous": false,
      "inputs": [
        {
          "indexed": true,
          "internalType": "address",
          "name": "previousOwner",
          "type": "address"
        },
        {
          "indexed": true,
          "internalType": "address",
          "name": "newOwner",
          "type": "address"
        }
      ],
      "name": "OwnershipTransferred",
      "type": "event"
    },
    {
      "anonymous": false,
      "inputs": [
        {
          "indexed": true,
          "internalType": "bytes32",
          "name": "authorizationId",
          "type": "bytes32"
        },
        {
          "indexed": false,
          "internalType": "uint256",
          "name": "amount",
          "type": "uint256"
        },
        {
          "indexed": true,
          "internalType": "address",
          "name": "payer",
          "type": "address"
        }
      ],
      "name": "Refunded",
      "type": "event"
    },
    {
      "anonymous": false,
      "inputs": [
        {
          "indexed": true,
          "internalType": "bytes32",
          "name": "authorizationId",
          "type": "bytes32"
        },
        {
          "indexed": false,
          "internalType": "uint256",
          "name": "amount",
          "type": "uint256"
        },
        {
          "indexed": false,
          "internalType": "uint256",
          "name": "platformFee",
          "type": "uint256"
        },
        {
          "indexed": false,
          "internalType": "uint256",
          "name": "gasFee",
          "type": "uint256"
        },
        {
          "indexed": false,
          "internalType": "address",
          "name": "facilitator",
          "type": "address"
        }
      ],
      "name": "Settled",
      "type": "event"
    },
    {
      "anonymous": false,
      "inputs": [
        {
          "indexed": true,
          "internalType": "address",
          "name": "token",
          "type": "address"
        },
        {
          "indexed": false,
          "internalType": "bool",
          "name": "supported",
          "type": "bool"
        }
      ],
      "name": "TokenSupportUpdated",
      "type": "event"
    },
    {
      "inputs": [],
      "name": "AUTHORIZATION_TYPEHASH",
      "outputs": [
        {
          "internalType": "bytes32",
          "name": "",
          "type": "bytes32"
        }
      ],
      "stateMutability": "view",
      "type": "function"
    },
    {
      "inputs": [
        {
          "internalType": "bytes32",
          "name": "",
          "type": "bytes32"
        }
      ],
      "name": "authorizations",
      "outputs": [
        {
          "internalType": "address",
          "name": "payer",
          "type": "address"
        },
        {
          "internalType": "address",
          "name": "payee",
          "type": "address"
        },
        {
          "internalType": "uint256",
          "name": "amount",
          "type": "uint256"
        },
        {
          "internalType": "uint256",
          "name": "settledAmount",
          "type": "uint256"
        },
        {
          "internalType": "address",
          "name": "token",
          "type": "address"
        },
        {
          "internalType": "uint256",
          "name": "createdAt",
          "type": "uint256"
        },
        {
          "internalType": "uint256",
          "name": "expiresAt",
          "type": "uint256"
        },
        {
          "internalType": "bytes32",
          "name": "payloadHash",
          "type": "bytes32"
        },
        {
          "internalType": "enum X402Payment.PaymentState",
          "name": "state",
          "type": "uint8"
        },
        {
          "internalType": "address",
          "name": "facilitator",
          "type": "address"
        },
        {
          "internalType": "uint256",
          "name": "gasFee",
          "type": "uint256"
        }
      ],
      "stateMutability": "view",
      "type": "function"
    },
    {
      "inputs": [
        {
          "internalType": "address",
          "name": "_payer",
          "type": "address"
        },
        {
          "internalType": "address",
          "name": "_payee",
          "type": "address"
        },
        {
          "internalType": "uint256",
          "name": "_amount",
          "type": "uint256"
        },
        {
          "internalType": "address",
          "name": "_token",
          "type": "address"
        },
        {
          "internalType": "uint256",
          "name": "_expiresAt",
          "type": "uint256"
        },
        {
          "internalType": "bytes32",
          "name": "_payloadHash",
          "type": "bytes32"
        },
        {
          "internalType": "address",
          "name": "_facilitator",
          "type": "address"
        },
        {
          "internalType": "uint256",
          "name": "_gasFee",
          "type": "uint256"
        },
        {
          "internalType": "bytes",
          "name": "_signature",
          "type": "bytes"
        }
      ],
      "name": "authorize",
      "outputs": [
        {
          "internalType": "bytes32",
          "name": "",
          "type": "bytes32"
        }
      ],
      "stateMutability": "nonpayable",
      "type": "function"
    },
    {
      "inputs": [
        {
          "internalType": "bytes32",
          "name": "_authorizationId",
          "type": "bytes32"
        },
        {
          "internalType": "string",
          "name": "_reason",
          "type": "string"
        }
      ],
      "name": "cancel",
      "outputs": [],
      "stateMutability": "nonpayable",
      "type": "function"
    },
    {
      "inputs": [],
      "name": "eip712Domain",
      "outputs": [
        {
          "internalType": "bytes1",
          "name": "fields",
          "type": "bytes1"
        },
        {
          "internalType": "string",
          "name": "name",
          "type": "string"
        },
        {
          "internalType": "string",
          "name": "version",
          "type": "string"
        },
        {
          "internalType": "uint256",
          "name": "chainId",
          "type": "uint256"
        },
        {
          "internalType": "address",
          "name": "verifyingContract",
          "type": "address"
        },
        {
          "internalType": "bytes32",
          "name": "salt",
          "type": "bytes32"
        },
        {
          "internalType": "uint256[]",
          "name": "extensions",
          "type": "uint256[]"
        }
      ],
      "stateMutability": "view",
      "type": "function"
    },
    {
      "inputs": [
        {
          "internalType": "address",
          "name": "",
          "type": "address"
        }
      ],
      "name": "facilitators",
      "outputs": [
        {
          "internalType": "bool",
          "name": "",
          "type": "bool"
        }
      ],
      "stateMutability": "view",
      "type": "function"
    },
    {
      "inputs": [],
      "name": "feeRecipient",
      "outputs": [
        {
          "internalType": "address",
          "name": "",
          "type": "address"
        }
      ],
      "stateMutability": "view",
      "type": "function"
    },
    {
      "inputs": [
        {
          "internalType": "bytes32",
          "name": "_authorizationId",
          "type": "bytes32"
        }
      ],
      "name": "getRemainingAmount",
      "outputs": [
        {
          "internalType": "uint256",
          "name": "",
          "type": "uint256"
        }
      ],
      "stateMutability": "view",
      "type": "function"
    },
    {
      "inputs": [
        {
          "internalType": "bytes32",
          "name": "_authorizationId",
          "type": "bytes32"
        }
      ],
      "name": "isSettleable",
      "outputs": [
        {
          "internalType": "bool",
          "name": "",
          "type": "bool"
        }
      ],
      "stateMutability": "view",
      "type": "function"
    },
    {
      "inputs": [],
      "name": "maxAuthorizationDuration",
      "outputs": [
        {
          "internalType": "uint256",
          "name": "",
          "type": "uint256"
        }
      ],
      "stateMutability": "view",
      "type": "function"
    },
    {
      "inputs": [],
      "name": "minAuthorizationAmount",
      "outputs": [
        {
          "internalType": "uint256",
          "name": "",
          "type": "uint256"
        }
      ],
      "stateMutability": "view",
      "type": "function"
    },
    {
      "inputs": [
        {
          "internalType": "address",
          "name": "",
          "type": "address"
        }
      ],
      "name": "nonces",
      "outputs": [
        {
          "internalType": "uint256",
          "name": "",
          "type": "uint256"
        }
      ],
      "stateMutability": "view",
      "type": "function"
    },
    {
      "inputs": [],
      "name": "owner",
      "outputs": [
        {
          "internalType": "address",
          "name": "",
          "type": "address"
        }
      ],
      "stateMutability": "view",
      "type": "function"
    },
    {
      "inputs": [
        {
          "internalType": "address",
          "name": "",
          "type": "address"
        },
        {
          "internalType": "uint256",
          "name": "",
          "type": "uint256"
        }
      ],
      "name": "payeeAuthorizations",
      "outputs": [
        {
          "internalType": "bytes32",
          "name": "",
          "type": "bytes32"
        }
      ],
      "stateMutability": "view",
      "type": "function"
    },
    {
      "inputs": [
        {
          "internalType": "address",
          "name": "",
          "type": "address"
        },
        {
          "internalType": "uint256",
          "name": "",
          "type": "uint256"
        }
      ],
      "name": "payerAuthorizations",
      "outputs": [
        {
          "internalType": "bytes32",
          "name": "",
          "type": "bytes32"
        }
      ],
      "stateMutability": "view",
      "type": "function"
    },
    {
      "inputs": [],
      "name": "platformFee",
      "outputs": [
        {
          "internalType": "uint256",
          "name": "",
          "type": "uint256"
        }
      ],
      "stateMutability": "view",
      "type": "function"
    },
    {
      "inputs": [
        {
          "internalType": "bytes32",
          "name": "_authorizationId",
          "type": "bytes32"
        }
      ],
      "name": "refundExpired",
      "outputs": [],
      "stateMutability": "nonpayable",
      "type": "function"
    },
    {
      "inputs": [],
      "name": "renounceOwnership",
      "outputs": [],
      "stateMutability": "nonpayable",
      "type": "function"
    },
    {
      "inputs": [
        {
          "internalType": "address",
          "name": "_facilitator",
          "type": "address"
        },
        {
          "internalType": "bool",
          "name": "_approved",
          "type": "bool"
        }
      ],
      "name": "setFacilitator",
      "outputs": [],
      "stateMutability": "nonpayable",
      "type": "function"
    },
    {
      "inputs": [
        {
          "internalType": "uint256",
          "name": "_fee",
          "type": "uint256"
        }
      ],
      "name": "setPlatformFee",
      "outputs": [],
      "stateMutability": "nonpayable",
      "type": "function"
    },
    {
      "inputs": [
        {
          "internalType": "address",
          "name": "_token",
          "type": "address"
        },
        {
          "internalType": "bool",
          "name": "_supported",
          "type": "bool"
        }
      ],
      "name": "setTokenSupport",
      "outputs": [],
      "stateMutability": "nonpayable",
      "type": "function"
    },
    {
      "inputs": [
        {
          "internalType": "bytes32",
          "name": "_authorizationId",
          "type": "bytes32"
        },
        {
          "internalType": "uint256",
          "name": "_amount",
          "type": "uint256"
        },
        {
          "internalType": "bytes",
          "name": "_payload",
          "type": "bytes"
        }
      ],
      "name": "settle",
      "outputs": [],
      "stateMutability": "nonpayable",
      "type": "function"
    },
    {
      "inputs": [
        {
          "internalType": "address",
          "name": "",
          "type": "address"
        }
      ],
      "name": "supportedTokens",
      "outputs": [
        {
          "internalType": "bool",
          "name": "",
          "type": "bool"
        }
      ],
      "stateMutability": "view",
      "type": "function"
    },
    {
      "inputs": [
        {
          "internalType": "address",
          "name": "newOwner",
          "type": "address"
        }
      ],
      "name": "transferOwnership",
      "outputs": [],
      "stateMutability": "nonpayable",
      "type": "function"
    },
    {
      "stateMutability": "payable",
      "type": "receive"
    }
  ],
  "bytecode": "0x610160346200028f576001600160401b0390601f6200251538819003918201601f191683019291848411838510176200029457808392604095865283396020928391810103126200028f57516001600160a01b039384821693918490036200028f578151926200006f84620002aa565b60158452808401947f58343032205061796d656e742050726f746f636f6c00000000000000000000008652835196620000a888620002aa565b6001885282880193603160f81b855233156200027757600094855460018060a01b031993338583161788553391167f8be0079c531659141344cd1fd0a4f28419497f9722a3daafe3b4186f6b6457e08880a3600180556200010988620002c6565b98610120998a526200011b8b620004a3565b98610140998a52519020998a60e05251902061010099818b524660a052875191868301917f8b73c3c69bb8fe3d512ecc4cf759cc79239f7b179b0ffacaa9a75d522b39400f83528984015260608301524660808301523060a083015260a0825260c0820192828410908411176200026357828852815190206080523060c0526064600a5566038d7ea4c68000600c5562278d00600d5583156200022157505091600891859493600b541617600b558280525220600160ff198254161790555191611ebc9384620006598539608051846119e7015260a05184611aa2015260c051846119b1015260e05184611a3601525183611a5c01525182610a9901525181610ac20152f35b907f496e76616c69642066656520726563697069656e7400000000000000000000006101046064938762461bcd60e51b855260c4820152601560e48201520152fd5b634e487b7160e01b87526041600452602487fd5b8551631e4fbdf760e01b815260006004820152602490fd5b600080fd5b634e487b7160e01b600052604160045260246000fd5b604081019081106001600160401b038211176200029457604052565b805160209081811015620003635750601f825111620003025780825192015190808310620002f357501790565b82600019910360031b1b161790565b90604051809263305a27a960e01b82528060048301528251908160248401526000935b82851062000349575050604492506000838284010152601f80199101168101030190fd5b848101820151868601604401529381019385935062000325565b906001600160401b0382116200029457600254926001938481811c9116801562000498575b838210146200048257601f811162000448575b5081601f8411600114620003dc5750928293918392600094620003d0575b50501b916000199060031b1c19161760025560ff90565b015192503880620003b9565b919083601f198116600260005284600020946000905b888383106200042d575050501062000413575b505050811b0160025560ff90565b015160001960f88460031b161c1916905538808062000405565b858701518855909601959485019487935090810190620003f2565b600260005284601f84600020920160051c820191601f860160051c015b828110620004755750506200039b565b6000815501859062000465565b634e487b7160e01b600052602260045260246000fd5b90607f169062000388565b8051602091908281101562000533575090601f825111620004d25780825192015190808310620002f357501790565b90604051809263305a27a960e01b82528060048301528251908160248401526000935b82851062000519575050604492506000838284010152601f80199101168101030190fd5b8481018201518686016044015293810193859350620004f5565b6001600160401b03811162000294576003928354926001938481811c911680156200064d575b838210146200048257601f811162000614575b5081601f8411600114620005ab57509282939183926000946200059f575b50501b9160001990841b1c191617905560ff90565b0151925038806200058a565b919083601f1981168760005284600020946000905b88838310620005f95750505010620005e0575b505050811b01905560ff90565b015160001983861b60f8161c19169055388080620005d3565b858701518855909601959485019487935090810190620005c0565b8560005284601f84600020920160051c820191601f860160051c015b828110620006405750506200056c565b6000815501859062000630565b90607f16906200055956fe6080604052600436101561001b575b361561001957600080fd5b005b60003560e01c80630c6a753f146114f057806312e8e2c314611498578063135dfea81461147a57806326232a2e1461145c57806329881317146114125780632db7f40a146113f457806346904840146113cb5780634b719ab61461138c57806368c4ac261461134d578063702d1c8914610c72578063715018a614610c195780637339651214610bde5780637ecebe0014610ba457806384b0196e14610a835780638c179be614610a2d5780638da5cb5b14610a045780638f57e97d1461099757806393deddf214610560578063b7d6fe2414610416578063c618d0ec146103d8578063c9cb9b3c14610380578063cc3e049b1461026c578063e8d7d5eb146101b65763f2fde38b0361000e57346101b15760203660031901126101b157610141611596565b6101496117ed565b6001600160a01b0390811690811561019857600054826001600160601b0360a01b821617600055167f8be0079c531659141344cd1fd0a4f28419497f9722a3daafe3b4186f6b6457e0600080a3005b604051631e4fbdf760e01b815260006004820152602490fd5b600080fd5b346101b15760203660031901126101b1576004356000526004602052610160604060002060018060a01b0390818154169180600183015416916002810154906003810154836004830154166005830154600684015491600785015493600886015496600960ff8916970154996040519b8c5260208c015260408b015260608a0152608089015260a088015260c087015260e086015261025481611706565b61010085015260081c16610120830152610140820152f35b346101b1576020806003193601126101b157600435610289611819565b80600052600482526040600020916008830180546102b360ff82166102ad81611706565b15611776565b600685015442111561034d579060037fcc33ce18e322dc717363fea37fd6b19d05ce254cd48a950c2c173e35b244d7e3939260ff19161790556102ff60028501546003860154906117b0565b9360018060a01b0390818154166000526005835261032185604060002061190e565b816001820154166000526006835261033d85604060002061190e565b541693604051908152a360018055005b60405162461bcd60e51b815260048101849052600b60248201526a139bdd08195e1c1a5c995960aa1b6044820152606490fd5b346101b15760403660031901126101b157610399611596565b6001600160a01b03166000908152600560205260409020805460243591908210156101b1576020916103ca916115db565b90546040519160031b1c8152f35b346101b15760203660031901126101b1576004356000526004602052602061040e604060002060036002820154910154906117b0565b604051908152f35b346101b15760403660031901126101b15760243560043567ffffffffffffffff8083116101b157366023840112156101b15782600401359081116101b15736602482850101116101b157610468611819565b8160005260209260048452604060002060018060a01b03908181541633810361052f579380602481956040956001867f112d08ed7b0f82f4c66e48562d924a56d1d0ae05fe7b751f057aeb1a75794a429a60088e9901600281546104d260ff82166102ad81611706565b60ff1916179055600052600588526104ed8c8a60002061190e565b01541660005260068552610504898760002061190e565b855196858896875286015201848401376000828201840152601f01601f19168101030190a260018055005b60405162461bcd60e51b81526004810188905260096024820152682737ba103830bcb2b960b91b6044820152606490fd5b346101b15760603660031901126101b15760043560248035906044803567ffffffffffffffff81116101b15761059a90369060040161167f565b6105a2611819565b84600052602092600484526040600020600890818101948554936105cc60ff86166102ad81611706565b60018301805490966001600160a01b03969187169190338314801561098a575b156109565760068601544211610929576002860154908c600388019182549161061583866117b0565b106108f2578d81519101206007890154036108bd578d61063491611726565b80915510156108ae575b50600a54808b02908b8204148b15171561089957612710900496610662888c6117b0565b9461067360098201968754906117b0565b92886004830154169081156000146107f657505050600080809389829454165af161069c6117bd565b50156107bc578561076a575b82548015158061075c575b610707575b5050509160809593917f501ebfce3c93563530bb1a48a993894a904c423730b5aa697010202eab3e65e19795935b549354901c169260405194855284015260408301526060820152a260018055005b600080808093898c548a1c165af161071d6117bd565b501561072957806106b8565b6d11d85cc81999594819985a5b195960921b606492600e8a936040519462461bcd60e51b86526004860152840152820152fd5b50858854861c1615156106b3565b60008080808989600b54165af161077f6117bd565b506106a85772119959481d1c985b9cd9995c8819985a5b1959606a1b60649260138a936040519462461bcd60e51b86526004860152840152820152fd5b7414185e5959481d1c985b9cd9995c8819985a5b1959605a1b60649260158a936040519462461bcd60e51b86526004860152840152820152fd5b60809c9a989650897f501ebfce3c93563530bb1a48a993894a904c423730b5aa697010202eab3e65e19e9c9a98965083610836949693955054168461183c565b85610880575b8254908582151580610872575b610857575b505050506106e6565b610869935416868954871c169161183c565b8a80808561084e565b50808954871c161515610849565b610894868684541687600b5416908461183c565b61083c565b82634e487b7160e01b60005260116004526000fd5b60ff191660011788558b61063e565b60405162461bcd60e51b8152600481018e9052600f818801526e125b9d985b1a59081c185e5b1bd859608a1b81890152606490fd5b60405162461bcd60e51b8152600481018f905260118189015270457863656564732072656d61696e696e6760781b818a0152606490fd5b60405162461bcd60e51b8152600481018c905260078186015266115e1c1a5c995960ca1b81870152606490fd5b60405162461bcd60e51b8152600481018c9052600e818601526d139bdd08185d5d1a1bdc9a5e995960921b81870152606490fd5b50338883891c16146105ec565b346101b15760207f23b563b53629727de17c5cec4b391a63440584fdaf0d888a95bbc671da2c62e16109c8366115ac565b92906109d26117ed565b6001600160a01b031660008181526009835260409020805460ff191660ff86151516179055925b6040519015158152a2005b346101b15760003660031901126101b1576000546040516001600160a01b039091168152602090f35b346101b15760203660031901126101b15760043560005260046020526020604060002060ff600882015416610a6181611706565b159081610a74575b506040519015158152f35b60069150015442111582610a69565b346101b15760003660031901126101b157610abd7f0000000000000000000000000000000000000000000000000000000000000000611b8f565b610ae67f0000000000000000000000000000000000000000000000000000000000000000611cbb565b60405160208082019282841067ffffffffffffffff851117610b8e57916020610b418594610b33979660405260008452604051978897600f60f81b895260e0858a015260e08901906116c6565b9087820360408901526116c6565b91466060870152306080870152600060a087015285830360c0870152519182815201929160005b828110610b7757505050500390f35b835185528695509381019392810192600101610b68565b634e487b7160e01b600052604160045260246000fd5b346101b15760203660031901126101b1576001600160a01b03610bc5611596565b1660005260076020526020604060002054604051908152f35b346101b15760003660031901126101b15760206040517fcc20e6342f2af1b51b5285cae3a7d18e5d1865dec10f30a1f6b4fbda49b8b9bc8152f35b346101b15760003660031901126101b157610c326117ed565b600080546001600160a01b0319811682556001600160a01b03167f8be0079c531659141344cd1fd0a4f28419497f9722a3daafe3b4186f6b6457e08280a3005b346101b1576101203660031901126101b157610c8c611596565b6024356001600160a01b03811690036101b1576064356001600160a01b03811690036101b15760c435906001600160a01b03821682036101b15767ffffffffffffffff61010435116101b157610ce8366101043560040161167f565b610cf0611819565b6064356001600160a01b031660009081526008602052604090205460ff161561131257600c54604435106112d657610d2a600d5442611726565b6084351161129d57426084351115611260576024356001600160a01b0316151580611247575b15611212576001600160a01b03831660009081526009602052604090205460ff168015611201575b156111c6576001600160a01b038216600090815260076020526040902080549060001982146111b057600182019055604051907fcc20e6342f2af1b51b5285cae3a7d18e5d1865dec10f30a1f6b4fbda49b8b9bc602083015260018060a01b038416604083015260018060a01b03602435166060830152604435608083015260018060a01b036064351660a083015260c082015260843560e082015260a43561010082015261010081528061012081011067ffffffffffffffff61012083011117610b8e57610e8491604282610120610e7b940160405260208151910120610e5e6119ae565b906040519161190160f01b83526002830152602282015220611ac8565b90929192611b04565b6001600160a01b038281169116036111775760018060a01b038116600052600760205260406000205460405160208101916001600160601b0319808560601b1684528060243560601b166034840152604435604884015260643560601b166068830152607c82015242609c820152609c8152610eff81611609565b5190206000818152600460205260409020549091906001600160a01b031661113b57604051928361016081011067ffffffffffffffff61016086011117610b8e57836101606020950160405260018060a01b038316815260018060a01b03602435168582015260443560408201526000606082015260018060a01b036064351660808201524260a082015260843560c082015260a43560e0820152600061010082015260018060a01b03821661012082015260e4356101408201528360005260048552600961014060406000209260018060a01b038151166001600160601b0360a01b90818654161785556001850160018060a01b038a84015116828254161790556040820151600286015560608201516003860155600485019060018060a01b036080840151169082541617905560a0810151600585015560c0810151600685015560e081015160078501556008840161010082015161105f81611706565b61106881611706565b815460ff610100600160a81b0361012086015160081b169216906affffffffffffffffffffff60a81b1617179055015191015560018060a01b038216600052600584526110b9836040600020611733565b60018060a01b0360243516600052600684526110d9836040600020611733565b6040805160443581526001600160a01b03606435811687830152928316918101919091526024358216929091169083907f4e4500d4d7a1dd1a3089439bd9ff5d6570ba9d851587e576cdabd4cea3f8352e90606090a460018055604051908152f35b60405162461bcd60e51b8152602060048201526014602482015273417574686f72697a6174696f6e2065786973747360601b6044820152606490fd5b60405162461bcd60e51b8152602060048201526011602482015270496e76616c6964207369676e617475726560781b6044820152606490fd5b634e487b7160e01b600052601160045260246000fd5b60405162461bcd60e51b815260206004820152601360248201527224b73b30b634b2103330b1b4b634ba30ba37b960691b6044820152606490fd5b506001600160a01b03831615610d78565b60405162461bcd60e51b815260206004820152600d60248201526c496e76616c696420706179656560981b6044820152606490fd5b506024356001600160a01b039081169083161415610d50565b60405162461bcd60e51b81526020600482015260156024820152744d7573742065787069726520696e2066757475726560581b6044820152606490fd5b60405162461bcd60e51b81526020600482015260116024820152704475726174696f6e20746f6f206c6f6e6760781b6044820152606490fd5b60405162461bcd60e51b8152602060048201526014602482015273416d6f756e742062656c6f77206d696e696d756d60601b6044820152606490fd5b60405162461bcd60e51b8152602060048201526013602482015272151bdad95b881b9bdd081cdd5c1c1bdc9d1959606a1b6044820152606490fd5b346101b15760203660031901126101b1576001600160a01b0361136e611596565b166000526008602052602060ff604060002054166040519015158152f35b346101b15760203660031901126101b1576001600160a01b036113ad611596565b166000526009602052602060ff604060002054166040519015158152f35b346101b15760003660031901126101b157600b546040516001600160a01b039091168152602090f35b346101b15760003660031901126101b1576020600d54604051908152f35b346101b15760403660031901126101b15761142b611596565b6001600160a01b03166000908152600660205260409020805460243591908210156101b1576020916103ca916115db565b346101b15760003660031901126101b1576020600a54604051908152f35b346101b15760003660031901126101b1576020600c54604051908152f35b346101b15760203660031901126101b1576004356114b46117ed565b6101f481116114c257600a55005b60405162461bcd60e51b81526020600482015260066024820152654d617820352560d01b6044820152606490fd5b346101b1576114fe366115ac565b906115076117ed565b6001600160a01b031690811561155d5760207fbbe72b7d9dcb594ee398a4a617885aba53d833e2aad601c813ce9df99fdeb49b9183600052600882526109f98160406000209060ff801983541691151516179055565b60405162461bcd60e51b8152602060048201526011602482015270086c2dcdcdee840c6d0c2dcceca408aa89607b1b6044820152606490fd5b600435906001600160a01b03821682036101b157565b60409060031901126101b1576004356001600160a01b03811681036101b1579060243580151581036101b15790565b80548210156115f35760005260206000200190600090565b634e487b7160e01b600052603260045260246000fd5b60c0810190811067ffffffffffffffff821117610b8e57604052565b6040810190811067ffffffffffffffff821117610b8e57604052565b90601f8019910116810190811067ffffffffffffffff821117610b8e57604052565b67ffffffffffffffff8111610b8e57601f01601f191660200190565b81601f820112156101b15780359061169682611663565b926116a46040519485611641565b828452602083830101116101b157816000926020809301838601378301015290565b919082519283825260005b8481106116f2575050826000602080949584010152601f8019910116010190565b6020818301810151848301820152016116d1565b6004111561171057565b634e487b7160e01b600052602160045260246000fd5b919082018092116111b057565b9081549168010000000000000000831015610b8e578261175b916001611774950181556115db565b90919082549060031b91821b91600019901b1916179055565b565b1561177d57565b60405162461bcd60e51b815260206004820152600b60248201526a4e6f742070656e64696e6760a81b6044820152606490fd5b919082039182116111b057565b3d156117e8573d906117ce82611663565b916117dc6040519384611641565b82523d6000602084013e565b606090565b6000546001600160a01b0316330361180157565b60405163118cdaa760e01b8152336004820152602490fd5b60026001541461182a576002600155565b604051633ee5aeb560e01b8152600490fd5b6040516323b872dd60e01b602082019081526001600160a01b039384166024830152938316604482015260648082019590955293845260a08401919067ffffffffffffffff831185841017610b8e576118af926040521692600080938192519082875af16118a86117bd565b9084611e23565b9081519182151592836118df575b5050506118c75750565b60249060405190635274afe760e01b82526004820152fd5b81929350906020918101031261190a57602001519081159182150361190757503880806118bd565b80fd5b5080fd5b9060005b8254808210156119a857829061192883866115db565b929054600393841b1c14611940575050600101611912565b90939250600019918282019182116111b05761175b61196261196f93866115db565b905490871b1c91856115db565b815480156119925781019261198484846115db565b81939154921b1b1916905555565b634e487b7160e01b600052603160045260246000fd5b50505050565b307f00000000000000000000000000000000000000000000000000000000000000006001600160a01b03161480611a9f575b15611a09577f000000000000000000000000000000000000000000000000000000000000000090565b60405160208101907f8b73c3c69bb8fe3d512ecc4cf759cc79239f7b179b0ffacaa9a75d522b39400f82527f000000000000000000000000000000000000000000000000000000000000000060408201527f000000000000000000000000000000000000000000000000000000000000000060608201524660808201523060a082015260a08152611a9981611609565b51902090565b507f000000000000000000000000000000000000000000000000000000000000000046146119e0565b8151919060418303611af957611af292506020820151906060604084015193015160001a90611d93565b9192909190565b505060009160029190565b611b0d81611706565b80611b16575050565b611b1f81611706565b60018103611b395760405163f645eedf60e01b8152600490fd5b611b4281611706565b60028103611b635760405163fce698f760e01b815260048101839052602490fd5b80611b6f600392611706565b14611b775750565b602490604051906335e2f38360e21b82526004820152fd5b60ff8114611bcd5760ff811690601f8211611bbb5760405191611bb183611625565b8252602082015290565b604051632cd44ac360e21b8152600490fd5b5060405160006002549060018260011c9060018416938415611cb1575b6020948584108114611c9d5783875286949392918115611c7d5750600114611c1e575b5050611c1b92500382611641565b90565b9093915060026000527f405787fa12a823e0f2b7631cc41b3ba8828b3321ca811111fa75cd3aa3bb5ace936000915b818310611c65575050611c1b93508201013880611c0d565b85548784018501529485019486945091830191611c4d565b915050611c1b94925060ff191682840152151560051b8201013880611c0d565b634e487b7160e01b85526022600452602485fd5b91607f1691611bea565b60ff8114611cdd5760ff811690601f8211611bbb5760405191611bb183611625565b5060405160006003549060018260011c9060018416938415611d89575b6020948584108114611c9d5783875286949392918115611c7d5750600114611d2a575050611c1b92500382611641565b9093915060036000527fc2575a0e9e593c00f959f8c92f12db2869c3395a3b0502d05e2516446f71f85b936000915b818310611d71575050611c1b93508201013880611c0d565b85548784018501529485019486945091830191611d59565b91607f1691611cfa565b91907f7fffffffffffffffffffffffffffffff5d576e7357a4501ddfe92f46681b20a08411611e1757926020929160ff608095604051948552168484015260408301526060820152600092839182805260015afa15611e0b5780516001600160a01b03811615611e0257918190565b50809160019190565b604051903d90823e3d90fd5b50505060009160039190565b90611e4a5750805115611e3857805190602001fd5b604051630a12f52160e11b8152600490fd5b81511580611e7d575b611e5b575090565b604051639996b31560e01b81526001600160a01b039091166004820152602490fd5b50803b15611e5356fea2646970667358221220ccfbc3265b95310160ba64f25749f8912db8e3e9297a1dc6c2e83343a154f59964736f6c63430008180033",
  "linkReferences": {},
  "deployedLinkReferences": {}
}